@ba13 ; Affinity 
@bb02 ; MemBank 
@bc03 ; Command 
:020000020A00F2
:1000000087C0FFCFFFC7FFCFFFC7FFCFFFC7FFCF1F
:10001000FFC7FFCFFFC7FFCFFFC7FFCFFFC7FFCF90
:10002000FFC7FFCFFFC7FFCFFFC7FFCFFFC7FFCF80
:10003000FFC7FFCFFFC7FFCFFFC7FFCFFFC7FFCF70
:10004000FFC7FFCFFFC7FFCFFFC7FFCFFFC7FFCF60
:10005000FFC7FFCFFFC7FFCFFFC7FFCFFFC7FFCF50
:10006000FFC7FFCFFFC7FFCFFFC7FFCFFFC7FFCF40
:10007000FFC7FFCFFFC7FFCFFFC7FFCFFFC7FFCF30
:10008000FFC7FFCFFFC7FFCFFFC7FFCFFFC7FFCF20
:10009000FFC7FFCFFFC7FFCFFFC7FFCFFFC7FFCF10
:1000A000FFC7FFCFFFC7FFCFFFC7FFCFFFC7FFCF00
:1000B000FFC7FFCFFFC7FFCFFFC7FFCFFFC7FFCFF0
:1000C000FFC7FFCFFFC7FFCFFFC7FFCFFFC7FFCFE0
:1000D000FFC7FFCFFFC7FFCFFFC7FFCFFFC7FFCFD0
:1000E000FFC7FFCFFFC7FFCFFFC7FFCFFFC7FFCFC0
:1000F000FFC7FFCFFFC7FFCFFFC7FFCFFFC7FFCFB0
:1001000001003BD101000000DD37916837BCC71406
:10011000A895F8942224E8EDE4BF20921001E8EDC0
:10012000F1E0E4BFF0936200EFE1F9E6EDBFFEBF5E
:10013000E0E0F9E6C0E0DAE021922197E9F7C9D4DE
:1001400009F0CCD4D8D409F0DBD4EFB3E093026843
:10015000E0910468E395F999E0930468E0910368FD
:10016000E395FB99E0930368E0910068F0910168E2
:100170003196E0930068F0930168A6D4AF98A79AEF
:10018000489A409AE0E2F8E02682A0E8B1E0A08731
:10019000B1872582A3E0A783A0E4A683A9E0A0936A
:1001A000000A2092200A2092210AA1E0A093000BCD
:1001B0002092010BAFEFA0930C0BA0930D0B20929C
:1001C000B10420927604A1986698E1D4E0D43CD49E
:1001D000DED4E0917F68E21175C0E0915068E211D1
:1001E00024C370C00C9410000C9411000C941200E5
:1001F0000C9413000C9414000C9415000C9416002D
:100200000C9417000C9418000C9419000C941A000C
:100210000C941B000C941C000C941D000C941E00EC
:100220000C941F000C9420000C9421000C942200CC
:100230000C9423000C9424000C9425000C942600AC
:100240000C9427000C9428000C9429000C942A008C
:100250000C942B000C942C000C942D000C942E006C
:100260000C942F000C9430000C9431000C9432004C
:100270000C9433000C9434000C9435000C9436002C
:100280000C9437000C9438000C9439000C943A000C
:100290000C943B000C943C000C943D000C943E00EC
:1002A0000C943F000C9440000C9441000C944200CC
:1002B0000C9443000C9444000C9445000C944600AC
:1002C0000C944700C0E4D8E68DDFF993E9938CDF06
:1002D000F993E99397DFE4E4F8E6D193C193B193FE
:1002E000A193A0914768AF77A16020925069A09335
:1002F00051692DD3A0910091B0910191B883A98348
:10030000AFEFBFEFE09102A1EF3341F4E09103A121
:10031000E13D21F4A09100A1B09101A1BA83AB838A
:100320002C821BD3288229822A822B822C8218D3EA
:10033000E0E0F1E9A081B181B883A9839BB781E0B6
:100340008BBFA081B1819BBFBA83AB832C82E8EEC7
:10035000F3E0E0932369F09324690091FE154427AC
:10036000E0914468E093256921E0B5C180E50FD4B0
:100370009091366980E0FA81943081F08B819530DC
:1003800069F031FD91C18D81983009F091C1EA8108
:10039000E0932068EB81E0932168FC81F093226870
:1003A000209223692092246973D123E099C20CD250
:1003B00084E4EDD38E8180934A688F8180934B686B
:1003C0008885809348688985809349688A8560D14B
:1003D00027E08AC2FED180E7DAD327E091C2F9D1C3
:1003E00081E4D5D3909136699D3080E090E011F0A2
:1003F0009B858C8590934E6880934F688885809309
:100400004C68898580934D688A8582FD14D28370FB
:100410008093506828E081D2809150688211FED18B
:100420005AC190913669953011F0983011F4EA81F3
:1004300016C0973011F09A3019F4D0D1EC810FC06A
:10044000993011F09C3019F4BFD1EE8108C09B3077
:1004500011F09E3019F4BDD1E88501C029C1EC30FE
:1004600080F4F0E0EB5CF54F0994E3C0E3C0E4C036
:10047000E4C0E3C0E2C0E5C0E5C0EBC0F1C0F9C034
:10048000FEC029C1ABD182E482D38C818093A46B5E
:1004900038854985823011F430FD1DC128E1E19A8B
:1004A00030FD3FD230FF40D2C7E0E4E8FBE6D6DEC5
:1004B000C091A46BEFD1D2DEE8D08E819F81E3D1D1
:1004C000EDEEDE2EE8EBCE2EE3E8BE2EE0E2AE2E21
:1004D000EFEF9E2E8E2E7E2E6E2EC2D1FCC07ED1D0
:1004E00083E455D30C8009140D8008040E800704A2
:1004F0000F80060428E211F428E4B2D1DFC16ED1E6
:1005000082E545D328E7B7D1E0C168D184E53FD380
:1005100028E5DBC163D185E43AD328E03E7F442758
:10052000CDC15CD186E433D3B5D190913669963094
:1005300019F08C8130FD9ADE30FD9CDECCC030FDA0
:10054000B1C090913669933009F405C0953011F42B
:1005500045D101C0ADC082E71AD39CD169DE80933A
:10056000486911D065DE809349690DD061DE8093C2
:100570004A6909D05DDE80934B6905D092959095CC
:1005800090934C69FAC1991F90FD0895089487953E
:1005900084D18695E9F7089530FF84C0909136693B
:1005A000933009F422C0953011F418D11EC09B304D
:1005B00011F4229606C09D3019F410D1249601C082
:1005C00077C087E7E4D278E069910894679565D1B0
:1005D0006695E9F77A95C1F7A8E0B0E02897E4E8D6
:1005E000FBE63EDEA8E0B0E01BC0CFD081F478F09F
:1005F000A0E0B2E760E8C9D011F4E8F748F08FB79F
:100600004CD18FBF6795B8F76D93A13898F363C04D
:10061000A050B247C0E0D2E7E4E8FBE621DE00C02C
:10062000C4E8DBE637D130FD1FDE30FD29DE53C0E4
:1006300052C05FC15DD122CE5CC15AD1EFD002E081
:100640004AC05BC19E3009F046C056D123D124DE9A
:1006500042C09E3009F03FC04FD11CD11BDE3BC0D1
:1006600047D1C1E001D2CF3319F4D13D09F4C9D447
:1006700005CE3ED1C1E00ED1F1DD8FEFF9CD38D1FD
:10068000C3E008D1EBDD8FEFF3CDC6E2D9E60895E4
:1006900090910A0B982392111EC0089584E40CC017
:1006A00082E50AC08DE408C083E406C085E404C086
:1006B0008CE402C084E500C06AD20DC0C0912369F9
:1006C000D0912469219738F0C0932369D09324698D
:1006D00011F4B1D0B3CFEFE1F9E6EDBFFEBF57D2D1
:1006E00056D2AFD02CBA6AE050D01130A1F76A953B
:1006F000D9F74BD081F7E8F3913808F43094C5DF8F
:100700007727EE2761E041D0A9F6661FE0F76993ED
:100710007627C63368F639D069F620F0E627FFE879
:10072000E081F0CF7211C2CFE09337693D7FE211D3
:100730003260C652C0933669A8DFE881ED3F69F0A8
:1007400000FD7CCFF981EF2BEA81EF2B29F4E091BA
:100750003669E33009F472CFB1CF6981603F08F4A4
:10076000BACF6F70E2ECF9E9660F660FE60FF21D83
:100770000190022209F496CF019000FE02C031FDE3
:1007800093CF01901080F0010994A895112706B22B
:10079000032401FEFCCF9091200A2092200A20928F
:1007A000210A06B2032401FCFCCF8091200A20928A
:1007B000200A2092210A8D31111F813810FD8F30BF
:1007C000111F012E06940895E0E4F8E684E01DD0A0
:1007D0000CC0E4E4F8E686E018D007C00FD029F09A
:1007E0000AD019F005D009F00CD0821174CF089509
:1007F000EAE4F8E609C0E8E4F8E606C0ECE4F8E666
:1008000003C0EEE4F8E600C082E0DE01129601903B
:100810001D90011411F48A95D1F70895C1E024D1F7
:10082000CF3311F4D13D09F00895B1D1E09105A184
:10083000E0FD01D0E5C3E8EDE4BFE5E8E093011099
:100840000895F0E44211F0E1E0914801E09149019E
:10085000EF23E21103C000C077D18AC179D18EC1E4
:1008600017D00E0112DF6A8A7B8A8C8A9D8A0F8AD2
:10087000188E298E089509DF6A887B888C889D8868
:100880008F89988D00C006D0CFDCC80FD91FC6CC89
:1008900001D0FCCCE4E6FBE6089530F09694879412
:1008A0007794679430F009C096948794779467940E
:1008B00020F09D248C247B246A24089554D09882AF
:1008C00089827A826B822C8259C0E2DFDE018091BC
:1008D000A46B49D088832982BA83AB832C824EC013
:1008E000E0E4F8E692E045C0E4E4F8E690E041C0D8
:1008F000E19A33D024D042C0E19A32D020D03EC019
:1009000029D03CC0E19A32D0ED01ECE3E883E983E1
:10091000EA83EB83EC83ED8334C0E19A18D00FD0E7
:100920002DC0C2E0DAE92AC0C091A46BADDCDE01C3
:100930001AD00882B983AA832B822C821FC0E0912F
:100940000110E470FC81FB7FFE2BFC830895C5E55C
:10095000D9E60895C0E5D9E60895CAE5D9E608952F
:10096000CFE5D9E60895C8E4D9E60895A0E4B9E64C
:100970000895F9DF84E05AD09883F5DFF7DF92DC41
:1009800000C097E712D09DEA10D0F0DF86E090918A
:10099000240895FFFCCF9D91909322088A95B9F782
:1009A0008AE2F5D0E19B97CE08950090200A0916BF
:1009B000E0F32092200A2092210AB19B769970CE12
:1009C00008950100B6090201D7090401EA090401EA
:1009D000EF090000180B0000180B0000180BFF01B6
:1009E000110A0801420A70016F0A20017F0A4001C2
:1009F000850A10018A0A1001910A10009F0A10004E
:100A0000CC0A02003214FFFFF89468D0F89478D032
:100A10000C943C09F89458D069D00C943C090E947D
:100A2000A80DF894A895FFCF0C943E090190099267
:100A30008A95E1F7089529928A95E9F70895208229
:100A40002182228223820895E4E8FBE60E942A099B
:100A5000C4E6D9E60E942C09E4E6FBE60E942A09D6
:100A6000C4E6D9E60C942C09E4E8FBE60E942E09C2
:100A70000C941E091FD005FE0EC001800DC01AD0B7
:100A800006FE09C001800AC015D007FE04C001801F
:100A900007C010D039F00895000C111C000C111C77
:100AA000000C111C10820FB6F8942182228223823E
:100AB0000FBE08951180100C11821280121C128238
:100AC0000380039403820895C0E0D8E6AAE1B0E071
:100AD0001FC0C0E0D8E6AEE1B0E027C0C0E0D8E675
:100AE00080E4A9DFEFEFE0931F680895C0E4D8E643
:100AF000AAE3B0E00DC0C0E4D8E6AEE3B0E015C0B4
:100B0000C0E4D8E680E897DFEFEFE0937F680895D0
:100B10000E94FE08F001A095B095C095D095A083E5
:100B2000B183C283D383248208950E94FE08F0011A
:100B300080830895E2E0F2E000C0EF23F09500909A
:100B400020690F22E02906C0E0E004C0EFEF02C0F8
:100B5000EBE000C0E093206900C0E09120690C94B4
:100B6000FC08EF23F095009021690F22E02908C0CE
:100B7000E0E006C0E5E504C0EFEF02C0E0E000C041
:100B8000E093216900C0E09121690C94FA0808956E
:00000001FF
; 
; *** EOF 
