@ba13 ; Affinity 
@bb01 ; MemBank 
@bc03 ; Command 
:020000020C00F0
:1000000011C1089581E084C082E082C083E080C095
:10001000CAD0CDC085E07CC086E07AC087E078C0D9
:1000200088E076C089E074C08AE072C08BE070C05E
:100030008CE06EC070C000008EE06AC08FE068C0C7
:1000400080E166C081E164C082E162C083E160C09A
:1000500084E15EC085E15CC086E15AC087E158C09A
:10006000A8C0000089E154C08AE152C08BE150C0B1
:100070008CE14EC08DE14CC08EE14AC08FE148C09A
:1000800080E246C081E244C082E242C0C5C00000B6
:1000900084E23EC085E23CC086E23AC087E238C0D6
:1000A00088E236C089E234C08AE232C08BE230C0D6
:1000B0008CE22EC08DE22CC08EE22AC08FE228C0D6
:1000C00080E326C081E324C082E322C083E320C012
:1000D00084E31EC085E31CC086E31AC087E318C012
:1000E00088E316C089E314C08AE312C08BE310C012
:1000F0008CE30EC08DE30CC08EE30AC08FE308C012
:1001000001003FD1020100001E38916806A652F19D
:10011000E82F0C942D12E89B06C0E898209213015A
:10012000C09222081895FF93EF93EFB7EF93DF93F8
:10013000CF93BF93AF93E0911C0BF0911D0BA09157
:10014000026AB091036AE093026AF093036AEA1BC1
:10015000E093046AFB0BF093056A6894B2E0E03721
:10016000FB0708F4ED9AB3E0EC30FB0730F0E894BD
:10017000B4E0E833FB0708F4ED9AF091140BE0E1EA
:10018000A0911D6AEE9BFE27EE98E6E0A211E4E046
:10019000E0934102F093140BEFEFE093160BE09124
:1001A000066AFBE1099401E00093530118950C9451
:1001B0000E283F01E091B86AF091B96A00911006EB
:1001C0000193009111060083E091BA6AF091BB6A35
:1001D000019100930C060191009308060191009390
:1001E0000906019100930006019100930106019117
:1001F0000093A00001910093B86A01910093B96A3D
:10020000019100930B06019100930A06E093BA6AEC
:10021000F093BB6AF30118950FB720920310216089
:100220000FBF1895A895F89422242DBAE8EDE4BFE5
:10023000E5E8E0930110EFE1F9E6EDBFFEBFE0E095
:10024000F9E6C8E8D9E021922197E9F7209205085C
:10025000A9E4A0931502AEE4A0931302A6E0A09334
:1002600041022092720462984B98439A6B98639A69
:100270002092000AA0E8A09312040A98029AE0E0F3
:10028000FBE02082A7E1A1832582A0E8A487A0E06B
:10029000A587A3E0A083E0E1FBE02082A2E0A183A8
:1002A000A1E4A483A1E0A683A583A3E0A083A091F9
:1002B0005101A0FDFCCFA9E1A0935001A1E0A093C2
:1002C0005301A0935201E0E0F6E0A1E1A083A0E099
:1002D000A183ABE0A283A0E0A383A0E0A483A2E07B
:1002E000A0930506A2E4A087A2E4A187A8E0A093BA
:1002F00015040B98039A0E98069A0C98049A059880
:10030000A4E0A0934109A1E3A0934009A8E0A09331
:1003100055044F9A479A4E9A469A4C9A449A459851
:10032000A7E0A0936109A1E2A093600955D0E8ED90
:10033000E4BFE9E0E0930001E1E0E09350000E94B7
:1003400050260E9484260E949D260E948D1D0E9498
:100350009A1A65D064D00E94EE250E94FA2332D307
:100360008DD774D50E94FA260E9484270E94E71F29
:1003700056D0E1E0E09350681DD1EFEFE093160B0B
:10038000E0935301E09304100C949D271894089572
:100390000895E5E4FDE60C945A29E7E0E093010BAB
:1003A000E0E0F4ED0C944213E8EEF3ED0C9442130C
:1003B000E7E1E093010BE8E1F4ED0C944213EE2742
:1003C00008950895E2E0F2E000C0EF23F095009078
:1003D000EF6C0F22E02906C0E0E004C0EFEF02C09E
:1003E000EBE000C0E093EF6C00C0E091EF6C0C9488
:1003F000B013EF23F0950090F06C0F22E02908C0B5
:10040000E0E006C0E5E504C0EFEF02C0E0E000C0B8
:10041000E093F06C00C0E091F06C0C94AE13089582
:10042000F894C0D0F894D0D00C94F013F894B0D0D5
:10043000C1D00C94F0130E94F011F894A895FFCF4E
:100440000C94F213E770F0E0E05BFB45E081089567
:100450000102040810204080ECE3F894AFE1B9E613
:10046000ADBFBEBF0E940812A895FECF01900992B1
:100470008A95E1F7089501901990011411F48A9575
:10048000D1F7089529928A95E9F70895208221826B
:100490002282238208959FEF99938A95E9F7089520
:1004A000E0E0FFE80990E025E0818A95D9F7EE23A6
:1004B0000895799FE001689FD001699FB00DC11D2B
:1004C000D21D789FB00DC11DD21D089580E406C0D5
:1004D00080E204C080E102C088E000C0C083D18314
:1004E0008283238224822582CDCF11D00BC00FD0EE
:1004F00007C00DD003C00BD0AA0FBB1FAA0FBB1F94
:10050000AA0FBB1FAA0FBB1FAA0FBB1F0895B38161
:10051000A081AB0FB181B21DDC91CC93A481B581D8
:10052000AD1BB209AC0FB21DA483B583C281D381C8
:10053000D395DC1708F0DD27D38308951FD005FE7F
:100540000EC001800DC01AD006FE09C001800AC08D
:1005500015D007FE04C0018007C010D039F00895FF
:10056000000C111C000C111C000C111C10820FB689
:10057000F8942182228223820FBE08951180100CEC
:1005800011821280121C1282038003940382089548
:10059000C0E0D8E6AAE1B0E01FC0C0E0D8E6AEE116
:1005A000B0E027C0C0E0D8E680E46CDFEFEFE09376
:1005B0001F680895C0E4D8E6AAE3B0E00DC0C0E427
:1005C000D8E6AEE3B0E015C0C0E4D8E680E85ADF74
:1005D000EFEFE0937F6808950E94B213F001A095B9
:1005E000B095C095D095A083B183C283D383248274
:1005F00008950E94B213F00180830895E0913B704A
:10060000E53008F0E2E0F0E0E95FFC4E099421C03B
:100610001EC00AC006C000C0809188682092886809
:100620001AC08091F16C17C090914C6880914D6810
:10063000892B31F00CD009D014D009D006D014C0C9
:1006400006D003D014C00C948F290C949429FBDF9E
:1006500005C0FBDF03C08211FACFFBCF82E390E03D
:1006600009C088EC90E006C088EE93E003C088EEF5
:1006700093E000C00C942529E091B86AF091B96A22
:10068000EF2B0895CF93C091B86AC21106C0C091F4
:10069000B96AC21102C0CF9103C0CF918894089566
:1006A000CF93C2E0C0930A06C1E0C0930D06C1918A
:1006B000C0930006C191C0930206C191C093030686
:1006C000C191C0930406C191C0930C06C191C0931F
:1006D0000806C191C0930906C191C0930006C1915B
:1006E000C0930106C191C093A000C191C093B86AA4
:1006F000C191C093B96AC191C0930B06C191C093D7
:100700000A06E093BA6AF093BB6ACF910894089501
:1007100076956795769567957695679576956795BD
:100720008091061190910711861B970B609104111F
:1007300070910511BEDEC695B795C695B795C6955D
:10074000B795C695B7957C2F6B2F08950C94100024
:100750000C9411000C9412000C9413000C941400CF
:100760000C9415000C9416000C9417000C941800AF
:100770000C9419000C941A000C941B000C941C008F
:100780000C941D000C941E000C941F000C9420006F
:100790000C9421000C9422000C9423000C9424004F
:1007A0000C9425000C9426000C9427000C9428002F
:1007B0000C9429000C942A000C942B000C942C000F
:1007C0000C942D000C942E000C942F000C943000EF
:1007D0000C9431000C9432000C9433000C943400CF
:1007E0000C9435000C9436000C9437000C943800AF
:1007F0000C9439000C943A000C943B000C943C008F
:100800000C943D000C943E000C943F000C9440006E
:100810000C9441000C9442000C9443000C9444004E
:100820000C9445000C9446000C944700A881A370DA
:100830000E945925B981CF93DF930E94F524DF915F
:10084000CF91689409F4E89440F5F881EA81FC704E
:1008500039F0F43031F0FC3041F0E4FF14C00CC04A
:100860001CC0DEF0AE17C1F018C0AE2F0E94FA24F3
:10087000A1F498F4216010C0AE2F0E94FE2469F408
:1008800060F4216009C04EF0E3FBDCDDAE230EF026
:10089000EE27EA2709F001C07CCD0895A881A37056
:1008A0000E945925B9810E94F52411F4EA2F3AC516
:1008B0002EC5AA81B9810E945A25E881E370E09390
:1008C0000F6DBB810E94F52499F7A093106DB3952D
:1008D0000E94F52469F7A093116DB3950E94F52449
:1008E00039F7A093126DB3950E94F52409F7A093F0
:1008F000136DCFE0DDE618C50AC5E89402C0689420
:1009000000C081F40E94F325E53060F0A881A37057
:100910000E945925B981AA810E94F92421F42160FD
:10092000EA2F00C5FCC4F3C4B9F50E94F325E131F8
:1009300098F1B981AA810E945A25EFE0FDE6A881CD
:10094000A370A083AC81A183BD81B283BE81B38338
:10095000BF81B483BB810E94FA24F9F4A093106D87
:10096000B395A091116D0E94FA24B9F4A093116D72
:10097000B395A091126D0E94FA2479F4A093126DA0
:10098000B395A091136D0E94FA2439F4A093136DCE
:100990002160CFE0DDE6C8C4C2C4B9C40E9400260D
:1009A00078F0A0E00E945925BCE10E94F52449F4AA
:1009B000E881E0FBA5F90E94FA2419F42160C9C47A
:1009C000AEC4A5C4EFE7E093F76CEDE2FDE6C0E44A
:1009D000D2E77EDDE3E3FDE6C0E6D2E779CD8091A4
:1009E00052680895F894E091626A2092626A78945D
:1009F000E03009F40895EE3208F0E3CCC091606A6B
:100A0000DAE6E95FF0E0FA4E09950C943515D9CC99
:100A1000F4C01DC121C1D5CCD4CCD3CCD2CCD1CC47
:100A200046C15AC178C186C199C1ACC1BFC1D2C14A
:100A3000E5C1F8C1C0C0C5CCC4CCC3CCC2CCC1CC0C
:100A4000C0CCBFCCBECCBDCCBCCCBBCCBACCC3C064
:100A5000B8CCB7CCB6CCB5CCBDC002C201C200C2C6
:100A6000FFC1FEC1FDC118C2FCC1A895F8946091F8
:100A70001E6D70911F6D78944BDEEB01CF5DD04001
:100A8000EFEFFCE60C2E5ADD6894E0911D6AF091C0
:100A90003070EF27E0FDE894D091146DC091156D92
:100AA000C7FF05C0C095D195CF4FC7FDCFE7DD0F7C
:100AB000CC1FD4E8CD9F000C111CC12DEDE2FDE64A
:100AC00016DD16F0B093236D16F4B093246DD0911B
:100AD000166DC091176DC7FF05C0C095D195CF4F5A
:100AE000C7FDCFE7DD0FCC1FD4E8CD9F000C111C54
:100AF000C12DE3E3FDE6FBDC16F4B093236D16F0A5
:100B0000B093246DA091236DAB0FA795A093206A9D
:100B1000A25308F4A0E0A093046DA091236DB091BE
:100B2000246DAB1BA058E7EFFCE60A2E07DDC09151
:100B3000196DCE5D08F4C0E0DAE0CD9FC02DC4365B
:100B400008F0C4E6C695EBEFFCE60C2EF7DCE0916E
:100B5000886AF0918A6AEF1708F4EF2FE0938B6AA6
:100B6000E0938C6A80E0A0913470A093A306B0EC6F
:100B7000AB9FB091FB6CB11508F08160A09135700E
:100B8000B091FF6CB25308F4B0E0BA1708F084607B
:100B9000A0913670B091206ABA1708F088600E9460
:100BA000F92109F082608093F16C90911A70982B72
:100BB00090931A70089520925168E2E5F8E6219228
:100BC000219221922192219221922192219221928D
:100BD000F1DC3CC10895E091636AE33019F099813A
:100BE0008A8103C090E089818F77EFB7F894809372
:100BF0004C6A90934D6AEFBF0895E881E4FBEE0FD5
:100C0000E0F9E6FBEF71E43010F4E6950DC0E45036
:100C1000F0E08091197084FDE35C84FDFF4884FF5F
:100C2000EE5C84FFF345E081E7F993D1EF13C2DC7A
:100C30000FC103070C1015191E22272B3034393D24
:100C400042464B4F54585D61666A6F73787EE98106
:100C500080D1EF13AFDCFCC0E9817BD1FE27F0E04F
:100C60008A8190915268809352688927F82BE0918D
:100C7000636AE530C8F08B81909153688093536824
:100C80008927F82BE63080F08C819091546880930E
:100C900054688927F82BE73038F08D81909155689A
:100CA000809355688927F82BF21184DCCFC0FF2789
:100CB000E0914E6A80914F6A8695EE1FE095EF7144
:100CC000888184FB880F80F9909152683BD1809392
:100CD0005268F2116FDCBEC0FF2788818295880FB1
:100CE00090915268E0914E6AEE0FE095E07E2AD135
:100CF000809352688881880F829590915368E09123
:100D00004E6AEE0FEE1FE095E1701CD180935368A0
:100D1000F21150DC9FC0FF278881880F90915368A3
:100D2000E0914F6AE095EE710DD180935368F21116
:100D300041DC90C0FF27E0914F6AE5FD089589816D
:100D400090915368F6D0809353688981909154684C
:100D5000F4D080935468F2112DDC7CC0FF27E09121
:100D60004F6AE5FD0895898190915468E2D080939F
:100D70005468898190915568E0D080935568F2114C
:100D800019DC68C0FF27E0914F6AE6FD089589816C
:100D900090915568CED0809355688981909156681E
:100DA000CCD080935668F21105DC54C0FF27E09147
:100DB0004F6AE6FD0895898190915668BAD0809374
:100DC0005668898190915768B8D080935768F2111E
:100DD000F1DB40C0FF27E0914F6AE6FD089589816D
:100DE00090915768A6D080935768898190915868F0
:100DF000A4D080935868F211DDDB2CC0FF27E0916E
:100E00004F6AE6FD089589819091586892D0809349
:100E1000586889819091596890D080935968F211EF
:100E2000C9DB18C0FF27E0914F6AE6FD089589816C
:100E3000909159687ED080935968898190915A68C1
:100E40007CD080935A68F211B5DB04C001D002C097
:100E50009FDA15C2809152688091536899DA0FC267
:100E60000895ADDAC1F430D031F482E0CEEFD5E1AF
:100E70000E943126D7CA8091636A853038F0219666
:100E8000E0E2F8E683E0F7DA31F0CCCAF981E091EC
:100E90002268FE13C7CA0895E881E93008F0089572
:100EA000F0E0EC5AF84E099408C008C008C008C029
:100EB000089508950895089508950895B1CAB0CA8F
:100EC000E1E0E093506876CBF0914C68E0914D689A
:100ED000EF2B0895E23060F10090057010900170E2
:100EE0000118039400928E680090047010900570B1
:100EF0000118039400928F68FE2FE03408F0FFE39E
:100F000000908E680F9E000C111CF0910170F695F8
:100F1000F10DE03438F0EF5300908F680E9E000C16
:100F2000111CF10DEF2FE7FDEFE7E23008F4E2E0EE
:100F300008958295880FE0EE05C086958695869582
:100F4000EFE100C08E23E095E9238E2B9827F92B43
:100F50000895FE2F8091506A82110895F0910F70CC
:100F6000F078EC99EF2780911970F0E880FDEF2779
:100F700080912268F0911D6AF07887FDEF27E7FBEA
:100F8000EF77A8DFE7F9F0915168E0935168089591
:100F9000B19B05C0E0EAF3ED75CBB199FBCFE8EB6F
:100FA000F3ED70CB8F93E1E5FAE6A091636A8A2FA7
:100FB0008C0FB081A193BA17A081B991BA07B193F0
:100FC0008C13FACFC091606A8F910895E2E013C04C
:100FD000E3E011C0E4E00FC0E5E00DC0E6E00BC0C7
:100FE000EAE009C0E3E0F4E007C0E4E0F7E004C0B1
:100FF000E6E0F9E001C0FE2FAE1718F0FA1708F08E
:101000000895E0918C68F0918D683196E0938C683A
:10101000F0938D68E0918468E395E0938468EF91A4
:10102000EF9100C0E0E0A7C03ED1E4E2A4C0CEDF73
:10103000EEE1A1C0CBDF8DD1E1E09DC0C9DF89D158
:10104000E5E299C0C5DF85D1E2E095C0CEDF81D170
:10105000E3E091C0BFDF60D1E4E08DC0C3DF59D1D0
:10106000E0E289C0B3DF55D1E1E285C0AFDF54D102
:10107000E2E281C0B3DFE5E07EC0ACDFE6E07BC04A
:10108000A7DF4AD1E7E077C0A5DF46D1E8E073C02B
:101090009DDF5FD1E9E06FC099DF5BD1EAE06BC013
:1010A00095DF57D1EBE067C093DF53D1ECE063C02D
:1010B0008FDF4FD1EDE05FC08BDF4BD1EEE05BC047
:1010C00087DF47D1EFE057C083DF43D1E0E153C072
:1010D0007FDF3FD1E1E14FC07BDF3BD1E2E14BC09D
:1010E00075DFE091656AE395E211E093656AE3E1FB
:1010F00044C06CDF11D1E4E13EC074DF0DD1E5E105
:101100003AC0A43011F098F425C0E881E3FD05C091
:10111000E2FF1DC0C3DBE6E12EC0E2FF04C042DFF8
:10112000ECDBE7E128C03EDFEADBE8E124C0E88150
:10113000FE2FE370F3FD06C0F2FF09C04DDFB9DBFF
:10114000E9E119C055DF2EDFEFDBEAE114C0E4D09E
:10115000ECE111C0E1D0E3E20EC0EFE10CC042DFF0
:10116000E091666AE395E211E093666AE23009F481
:101170005DDBEBE104C02092656A2092666AE09331
:10118000626AE0910C6AE093616A20620895EDE280
:10119000F2CFE091636AE350EB30F8F4E093636AD6
:1011A000F0E0E051F74E0995D1F4E091636AA6EFC3
:1011B000B1EBAE0FB21DBC91CB0FAE2FAB1BA0930A
:1011C000636AC093606ADAE6E881E93040F4F0E0EF
:1011D000EF5FF64E0995ECE2CECF13DF23CF24CF9D
:1011E0001FC01CC01DC02DC019C025C02AC026C0EC
:1011F00022C016C023C00000000200040206040042
:10120000060008C007C006C005C006C005C004C06F
:1012100003C002C098D0089582D00895189408950C
:1012200098940895E8E4F8E621C0ECE4F8E61EC0DE
:10123000EEE4F8E61BC0E0E4F8E610C0E4E4F8E60B
:1012400005C0F3DFD1F0EEDFC1F0F2CFA581BD81A3
:10125000AB1799F4A481BC81AB1779F4A381BB814E
:10126000AB1759F4A281BA81AB1739F4A181B981C6
:10127000AB1719F4A081B881AB1708950895E091D8
:101280009068E3FDEA95E83008F4E0E0E0939068C8
:101290000895E0919068E3FFE395E73009F4EFE00B
:1012A000E09390680895E091256DE395E33008F0B0
:1012B000E0E0E093256DF0E0E15AF64E099402C0BB
:1012C0000CC015C0E0911970E5FF05C0E0910D70EC
:1012D000EF73E068BFC0E0E0BDC0E0911970E5FFCA
:1012E00003C0E0910E70BBC0E0910070B3C0E0910C
:1012F0001870E3FFD8CFF0918E6AE0E0F2FDE16074
:10130000F3FDE260F1FDE460F5FDE860ADC09DD065
:10131000CACF9BD0AED0C7CF98D0AFD0C4CF95D0D6
:10132000AED0C1CFB0D0BFCFE991DE0181D0E85FB0
:10133000E883ED91E983ED91EA83ED91EB83ED9103
:10134000EC83A6D0B0CFE0E0F0E0A0E0B0E0B5D014
:10135000BCC07BD0E091266DE395EA3008F0E0E078
:10136000E093266DF0E0E854F64E62D009959BCFED
:1013700090C008C009C00AC00BC00CC00DC00EC090
:101380000FC010C011D014C03FD042C045D04CC0D7
:1013900047D02EC011D014C017D01AC01DD020C005
:1013A00023D026C029D02CC0E0910B6DF0E080C086
:1013B000E0918768F7E07CC0E091FB6CF8E078C0D2
:1013C000E0910468F9E074C0E091036BFAE070C04A
:1013D000E091FF6AFBE06CC0E0910D6DFCE068C03D
:1013E000E0910E6DFDE064C0E091F76CFEE060C03E
:1013F000E091086BFFE05CC0E0918E6AF0E158C0BC
:10140000E0911B6DF1E154C0E091076DF8E150C02F
:10141000E091086DF9E14CC0E091FF6CFAE148C041
:10142000E091036DFBE144C0E091046DFEE240C039
:10143000CAE2DAE60895A2E2BAE60895A4E2BAE6BC
:101440000895A091216ABAE60895F8DFA093216A71
:1014500008953BC0EDDFF1E0F883E9833DC0E8DFAC
:10146000F2E0F883E98338C0E3DFF3E0F883E9834F
:1014700033C0CFE035C0C0EF33C0CCE331C0CFE0E4
:101480002FD0CCE32DC0D4DFE0DF2882E9832EC04B
:1014900036C0C2E3DAE6E4E0E883A0E8B8E6ED911E
:1014A000EC83ED91EB83ED91EA83ED91E98327C025
:1014B000E983FA83F7E0F8831EC0BADFE883F98393
:1014C000AA83BB83E0E1EC831FC0F091376AFF0F72
:1014D00028F1FF0F18F12BC0AEDFE3E021D09AC94D
:1014E000B0DFE1E01DD0CD93B1CFABDFE3E018D0AA
:1014F00091D9ACCFA6DFE7E013D08AD9A7CF9EDF82
:10150000FFE315D081D9A2CF99DFFFE310D07ED9B8
:101510009DCF91DFFFEF0BD075D998CFF0E007C0DA
:10152000F091376A02C0FF1FC8F3E695E0F3F0932D
:10153000376A0895E0E0E093066A2092376A0895DA
:1016000026C04DC04FC054C059C060C067C080C123
:10161000A5C1D9C1E7C109C210C21EC226C22EC2CD
:1016200036C241C267C081C0BEC010C125C144C11D
:1016300045C146C147C148C149C14AC14BC14CC15E
:101640004DC14EC14FC150C151C152C153C1E2E061
:10165000E093110B332423C0E0918868F0918968EE
:101660003196E0938868F09389680AC0E0918A68AF
:10167000F0918B683196E0938A68F0938B6800C094
:10168000E0918468E395E093846800C0332403C04C
:10169000E3E03E2E00C0E998ED98E1E033C20E94FD
:1016A000402400C0ED99F2CF8EF73394E3E02AC2D4
:1016B000ED99ECCF5EF73394E4E024C2ED99E6CFE8
:1016C0002EF733940E94C817E5E01CC2ED99DECFD7
:1016D000EEF633940E94CD17E6E014C2ED99D6CF12
:1016E0002EF4339409F43A94E6E00CC2E32DE4318D
:1016F00008F4CCCF30920C6AE091046AF091056A4C
:10170000F695E795F695E795F695E795E21DE001E4
:10171000FBEAEF9F10923A6A0E01EEE0FAE6CFE0A4
:101720002192CA95E9F7E3E1EDC10EF0ED99AECF54
:10173000E091046AF091056AF695E795F695E795CC
:10174000F695E795E21DE001FBEAEF9F10923B6AF8
:101750000E01EE27B19BEFEFF0911D6AE0931D6A39
:10176000FE13EE9AE998EA98EF98EB98EC9820929D
:101770000D6A20920B6AE0918568E395E43650F09B
:10178000E0918468F0918668E0938668EF1BE093AF
:101790008768E0E0E0938568E0911F6AE395E09355
:1017A0001F6AE7E1AFC1ED9957CFE0910D6AEF30C5
:1017B00008F05CCFFEE0EF0FFAE6F21D3192EE503A
:1017C000E0930D6AE0910B6AE325E0930B6A5EF506
:1017D00009F04CCFE3E0E093110BE0918068F091C9
:1017E00081683196E0938068F0938168E091826827
:1017F000F0918368E21DF21DE0938268F0938368A4
:10180000E091046AF091056AF695E795F695E795FB
:10181000F695E795E21DE001FBEAEF9F10923E6A24
:101820000E01E6E16FC1E091046AF091056AF69558
:10183000E795F695E795F695E795E21DE001FBEA59
:10184000EF9F10923C6A0E01E5E15CC1ED9B0EF446
:1018500003CFE091046AF091056AF695E795F69555
:10186000E795F695E795E21DE001FBEAEF9F109200
:101870003D6A0E01E7E146C1E2E0E093110B2092E0
:10188000026A2092036AED9B0EF0E6CEE091046AB4
:10189000F091056AF695E795F695E795F695E79543
:1018A000E21DE001FBEAEF9F10923F6A0E012092D9
:1018B000F26C34D1E7E026C1E8E11EC0E9E121C0C5
:1018C000EAE11AC0EBE11DC0ECE116C0EDE119C080
:1018D000EEE112C0EFE115C0E0E20EC0E1E211C09E
:1018E000E2E20AC0E3E20DC0E4E206C0E5E209C0BC
:1018F000E6E202C0E4E105C0ED99AECE330C30F86B
:1019000001C11EF030FCA8CEFDC030FEA5CEFAC04D
:10191000E0EDF3ED0E9450130EF0B8CEC091376A9F
:10192000D0911970EB99D860D3FFC070D091187026
:10193000EB99D260E0919068E3FDDB7FD2FDDE7F22
:10194000EA99D0FFCC7FEC9BD1FFC370EF99CFEF2A
:10195000C093376AB19B76999BCE00C0E99AD0912B
:101960002A70C0910A0BCD23D0912970CD0FCF7072
:10197000C093386AC15BDCE0F001CD9F00921C0B84
:1019800010921D0B0F01E091046AF091056AF69523
:10199000E795F695E795F695E795E21DE001FBEAF8
:1019A000EF9F1092406A0E01E0E0E093110BE0918E
:1019B000376AE0FF06C0C090226AE89AEDE0E09343
:1019C0001301E9E09FC0F091376AE091236AF1FDCD
:1019D000E0932208E8E6F1E0E0931C0BF0931D0B86
:1019E000EAE090C0D0912C70C0910A0BCD23D09129
:1019F0002B70CD0FCF70C093396ACE5AD091386A10
:101A0000CD1BDCE0F001CD9F00921C0B10921D0B52
:101A10000F01E091376AE2FF06C0C090246AE89A9D
:101A2000EDE0E0931301EBE06DC0E0EFF0E0E09358
:101A30001C0BF0931D0BECE065C0F091376AE09150
:101A4000256AF3FDE0932208E0EEF1E0E0931C0B41
:101A5000F0931D0BEDE056C0F091376AE091266AD5
:101A6000F4FDE0932208EEE04DC0F091376AE0917A
:101A7000276AF5FDE0932208EFE044C0F091376A51
:101A8000E091286AF6FDE0932208E0E13BC0F09186
:101A9000376AE091296AF7FDE0932208E2E0E093DB
:101AA000110BE1E12FC0E001E091026AF091036ABD
:101AB000F695E795F695E795F695E795E21DFBEA2D
:101AC000EF9FE12DEC51F091396AEF0FE093416AFD
:101AD0000E01F091376AFC7F91F0EAE3FAE6C191DA
:101AE000C783C191C783C191C783C191C783C19186
:101AF000C783C191C783C191C783C191C783209216
:101B0000376AC4CDE093066AAF91BF91CF91DF9160
:101B1000EF91EFBFEF91FF9118950895CEE0DAE6CF
:101B2000A0910D6A2092626AE881E756F0E0F24ED9
:101B30000994FFC014C113C112C111C110C10FC15A
:101B40000EC10DC10CC10BC10AC109C108C107C139
:101B500006C105C104C103C102C101C100C1FFC06A
:101B6000FEC0FDC0FCC0FBC0FAC0F9C0F8C0F7C0A1
:101B7000F6C0F5C0F4C0F3C0F2C0F1C0F0C0EFC0D1
:101B8000EEC0EDC0ECC0EBC0EAC0E9C0E8C0E7C001
:101B9000E6C0E5C0E4C0E3C0E2C0E1C0E0C0DFC031
:101BA000DEC0DDC0DCC0DBC0DAC0D9C0D8C0D7C061
:101BB000D6C0D5C0D4C0D3C0D2C0D1C0D0C0CFC091
:101BC000CEC0CDC0CCC0CBC0CAC0C9C0C8C0C7C0C1
:101BD000C6C0C5C0C4C0C3C0C2C0C1C0C0C0BFC0F1
:101BE000BEC0BDC0BCC0BBC0BAC0B9C0B8C0B7C021
:101BF000B6C0B5C0B4C0B3C0B2C0B1C0B0C0AFC051
:101C0000AEC0ADC0ACC0ABC0AAC0A9C0A8C0A7C080
:101C1000A6C0A0C09FC09EC09DC09CC09BC09AC0D3
:101C200099C098C097C096C095C094C093C092C008
:101C300091C0B0C0AFC0AEC0ADC0ACC0ABC0AAC058
:101C4000A9C0A8C0A7C0A6C0A5C0A4C0A3C0A2C068
:101C5000A1C0A0C09FC09EC09DC09CC09BC09AC098
:101C600099C098C097C096C095C094C093C092C0C8
:101C700091C090C08FC08EC08DC08CC08BC08AC0F8
:101C800089C088C087C086C085C084C083C082C028
:101C900081C080C07FC07EC07DC07CC07BC07AC058
:101CA00079C078C077C076C075C074C073C072C088
:101CB00071C071C070C06FC06EC06DC06CC06BC0B1
:101CC0006AC069C068C067C066C065C064C063C0E0
:101CD00062C061C060C05FC05EC05DC05CC05BC010
:101CE0005AC059C058C057C056C055C054C053C040
:101CF00052C051C050C04FC04EC04DC04CC04BC070
:101D00004AC01AC019C018C017C016C015C014C0E8
:101D100013C012C011C010C00FC00EC00DC00CC047
:101D20000BC00AC009C008C007C006C00DC009C06A
:101D30000EC0A150219670C0A093636AC093606AE0
:101D400009CAA150219625C1A150219623C1A150B5
:101D5000219617C1E091656AE33008F000CAEA9A5B
:101D6000E991A1506894F0914C6AFE13E894B09107
:101D70004D6AB211E894BF2BF0914A6AFE1739F40C
:101D8000F0914B6AF7FD03C0B21128C045C00EF0B8
:101D90004BC932C0DFC9EA9AE981F881A250229684
:101DA000E33021F4F03C11F4EB9A57C0B0914B6A48
:101DB000BF17B0914A6ABE0741F4E0914C6AF091B6
:101DC0004D6AEF2BE2110AC027C0B0914D6ABF17D0
:101DD000B0914C6ABE0709F027C90EC0E09111709E
:101DE000EC67E0934E6AE0911270E160E0934F6A15
:101DF000E1E0E093506A16C0EC9AE0911170E09532
:101E0000E378E0934E6AE0911270E095EE7FE09304
:101E10004F6A2092506A06C020924E6A20924F6A02
:101E20002092506AA093636AC093606AE881E29549
:101E3000EF70E35EF0E0F04E09942BC040C055C057
:101E400054C0F8C8F7C8F6C8F5C822C921C928C9BE
:101E500023C971C070C055C950C9A093636AC093AB
:101E6000606AEA98E881E295EF70E75CF0E0F04E96
:101E70000994D8C8D7C8D6C8D5C8D4C8D3C8D2C87A
:101E8000D1C8D0C8CFC8CEC8CDC8CCC8CBC839C936
:101E900034C9E991EF70E15BF0E0F04E099420C99C
:101EA00028C95BC95AC953C952C951C950C94FC978
:101EB0004EC9DCC8DBC84BC94AC949C9D3C8E99176
:101EC000EF70EB59F0E0F04E099441C940C9C6C823
:101ED000C5C83DC93CC93BC93AC939C938C937C960
:101EE00036C935C934C933C932C9E991EF71E558EA
:101EF000F0E0F04E09942BC92AC929C928C927C97D
:101F000026C925C924C923C922C921C920C91FC975
:101F10001EC91DC91CC91BC91AC919C918C917C9A5
:101F200016C915C914C913C912C911C910C98EC857
:101F300091C884C887C8E991EF71EF55F0E0F04E81
:101F40000994A2C897C899C802C901C900C9FFC8A5
:101F5000FEC8FDC8FCC8FBC8FAC8F9C8F8C8F7C86D
:101F6000F6C8F5C8F4C8F3C8F2C8F1C8F0C8EFC89D
:101F7000EEC8A2C8A5C8A8C8ABC8AEC881C894C8D6
:101F800097C8A093636AC093606AE881E2114AC867
:101F90004EC848C8A093636AC093606AE991E03F65
:101FA00008F440C8EF70E952F0E0F04E0994EFC831
:101FB00039C838C837C836C835C834C8EAC832C87E
:101FC00031C830C82FC82EC82DC82CC82BC8E1E294
:101FD000FBE6A6E4B6ECD0E0C1E0D583C083B183D4
:101FE000A28326822782208624823A96D395DA32EB
:101FF000A1F7DDC113D0ED91FD91FC83FD91F88730
:10200000FD91F987B6D1EFB7E0FBDDD2E885E0318D
:1020100008F0E0E0E25FF0E0FD4D0994AD81AA0F29
:10202000AA0FB0E0A03218F4AC57BF480895A052F0
:10203000BF480895C5ECDCE6CF93DF930E94E62805
:10204000DF91CF912A97D6DF8E819F8196FB9827CB
:10205000907409F0BDD08881815041F008F08883E8
:102060008D81882349F76AD17AD1A1C1F981EA81AA
:1020700081918C3008F080E090E08B5B9F4D8F93D6
:102080009F930895F983EA83EBCF0BC00DC011C075
:102090002CC036C03FC042C048C055C05DC063C000
:1020A00069C00B807CD0DCCF019079D01190188270
:1020B000E9CF0E9409219F938F938191982F929548
:1020C0008F709F70092E081A03941F90109C180E91
:1020D00065D08191982F92958F709F70092E081A64
:1020E0001F90109C180E1882CDCF0E9409210190DC
:1020F0009191091A0394182E109C190E4FD0B8CF45
:102100000E94092101909191091A182E109C190E14
:102110001882B8CF91918191FC01AACF91918191C0
:102120000F01FC018D810995A3CF0E940921019027
:102130009191981708F4A6CF0394102C100C100C52
:10214000E119F20995CFE89410800B80101460F02B
:1021500021F43196319696CF689411900B8001143A
:10216000C8F7039415C0689411900B80101490F771
:102170000A940EC00E94092101909191091A0394BA
:10218000182E109C190E0B80101408F407D070CF75
:1021900006D0119018820EF475CF62CF012C0B82FD
:1021A000A5ECBCE61D80A10DB21D0C920895F7ECC4
:1021B000E0EA03C0F7ECEAEC00C08C81853108F05E
:1021C00080E0880FE80FF21D91918191FC01089544
:1021D0008E8186F98E8396EC88E416F496EC8CE476
:1021E00099838A8391E09883089513D08F77089517
:1021F00010C00FD009F4917008950BD009F49370BA
:10220000089507D009F49770089503D009F49F70DA
:10221000089580911A0B90910A0B89270895E5EC97
:10222000FCE6D091FE6ADF70D395D4FDDA95C091BB
:102230008D6AC211D06131963196319631963196C0
:10224000319631963196D091BD6AD21170C0D0913D
:10225000FE6ADF70DF3009F4DEE0B096C291DC1771
:10226000881FC291DC17881FC291DC17881FC2919A
:10227000DC17881FC291DC17881FC291DC17881FEA
:10228000C291DC17881FC291DC17881F0E945F264D
:10229000C291DC17881FC291DC17881FC291DC171E
:1022A000881FC291DC17881FC291DC17881FC2915A
:1022B000DC17881FC291DC17881FC291DC17881FAA
:1022C0000E945F26C291DC17881FC291DC17881F0D
:1022D000C291DC17881FC291DC17881FC291DC17DE
:1022E000881FC291DC17881FC291DC17881FC2911A
:1022F000DC17881F0E945F26C291DC17881FC291DD
:10230000DC17881FC291DC17881FC291DC17881F59
:10231000C291DC17881FC291DC17881FC291DC179D
:10232000881FC291DC17881F0E945F26D2C4EF016C
:10233000D9D4DAD4DBD4DCD4FE01CBC4ACE6B0E72C
:1023400008D08093916A05D0E091906A8093906A5A
:10235000089581E0EE910DD0881FE0F70895ACE676
:10236000B0E780E8ED9105D08795E0F78093926A19
:102370000895E7FBEF77E53410F0EE2712C0EF7712
:102380001E2EE770F0E0EA55FC4300801694169488
:102390001694E2E5F8E6E10DF21DE0810EF4E02589
:1023A000E021E19508950102040810204080ECE747
:1023B000F0E7AAE9B3EDDAE08191CD91C21188830B
:1023C000E238D1F708951FB6F095F89400908E6A20
:1023D0000F220E2A00928E6A1FBE08951FB6F09536
:1023E000F89400908F6A0F220E2A00928F6A1FBE07
:1023F0000895E0918D6AEE230895E0913A70E0939C
:102400008506FFB7F894E0918D6AE211EA95E093B2
:102410008D6AFFBFE1E0E093860608950FC00FC00C
:1024200018C020C028C030C038C03EC046C04EC012
:1024300072C073C07DC05BC064C050C002C1ECC03C
:1024400036F483FDFEC082FDE7C080FF90FFF9C037
:10245000E3C036F483FDF5C082FDDEC080FF90FF4F
:10246000F0C0DAC036F483FDECC082FDD5C081FF38
:1024700090FDE7C0D1C036F483FDCEC082FF80FD61
:10248000E0C090FDDEC0C8C036F483FDC5C082FF49
:1024900081FDD7C090FFD5C0BFC0EEF783FF91FD8F
:1024A000C1C082FFBFC0AFC036F483FF91FDBAC088
:1024B00082FFB8C090FFC5C0A6C0EEF783FF91FDB4
:1024C000B1C082FFAFC090FDBCC09DC0EEF783FFDE
:1024D00082FFA8C091FD089596D0AAC0AEF782FDF4
:1024E0000895B3E0B823B21183FDABC095C066F781
:1024F00082FD0895B3E0B823B21183FDA2C089D054
:102500009DC016F782FD0895B3E0B823B21183FD94
:1025100098C076D08DC001D00BC06894E0E1B4FDC6
:1025200012C0B6FD15C081FD089580FF11C00BC01B
:10253000E894E0E2B5FD07C0B7FD11C080FD089545
:1025400081FF0DC000C06091B5707091B67013C06E
:10255000E0E4B6FD0BC080FF90FF089507C0E0E8FF
:10256000B7FD04C081FF90FD089500C06091B37075
:102570007091B47000C0B0FD0BC0B3FF089583FF2D
:1025800091FD0895FE2F0E94F4220E94C81127C0D9
:10259000B1FD0FC00E94C61109F491FD08953CD011
:1025A00062957295EFB7E894E6FF68940E94C811AF
:1025B00016C00E94C61111F491FFB3FD089541D0D9
:1025C0000E94C81109C08091906A90918E6AA98575
:1025D000B091936AB3F90895E0E0FFE305C0E0919C
:1025E000936A0894EE1FF3E0EF23B091936AF0959D
:1025F000BF23BE2BE093936A0895F7DD69F0089539
:10260000F7DD51F00895F5DD39F00895F6DD21F09C
:102610000895F7DD09F00895E0E4EF830895E5DD1E
:1026200081F00895E5DD69F00895E3DD51F0089546
:10263000E4DD39F00895E5DD21F00895E6DD09F0E7
:1026400008952F82089500000620DA000620D700A2
:1026500001000000010F0100010000000102010162
:102660000401080F0100010401080001000002003C
:102670008102108102FF210703A002FE810701FFF2
:1026800000000200F10210F102FF210703A0000088
:102690000101140211F102FF21070280000008016C
:1026A00001043010010F0100080101043010010481
:1026B00008080F01000001000000090F010450206C
:1026C0000702FF00010000000804010008000100EB
:1026D0000108010253110801010406010704C004A6
:1026E000C040090F010702FF0000010F01010101B5
:1026F000045020046010090F010702FF00000B03C3
:10270000010480400A00010702FF000008040101E3
:102710000F030104010801010101080705FF000082
:1027200008000100010F0A01000A0702FF00020071
:10273000F102FFB90200B90702FF00000100010029
:10274000010F010100130702FF00010F0101000149
:10275000010F010100110704FF00010F0101000139
:10276000010F01010001010F0101000F0706FF0029
:1027700001000100010001080F010801010702FF2B
:102780000000010011080F010801010702FF00000D
:1027900008000100010F140100000000010000000A
:1027A000C650C654C65CC66EC682C690C69EC6A833
:1027B000C6BAC6C8C6D0C6EAC70CC724C72EC7400B
:1027C000C74AC75AC774C782C794C650C658C66698
:1027D000C6B6C6B6C6B6C6B6C6B6C6C4C6CCC6FEAD
:1027E000C6FEC720C73CC73CC770C770C770C7903C
:1027F000C790C79CA1D092D00BD00E94AA13E0939F
:10280000856AF093866A20927F6A2092806A089592
:1028100082E010904E6800904F68F0914C68E09113
:102820004D68EF01CD2BD9F4E0911070F4E6EF9FE5
:10283000F0E0E211F0ECE0910F70EF770E0E121C59
:102840001F2A81E0E0910070EF77F0E0C0911970ED
:10285000C5FF05C0F0910D70E0910E70F06CE09333
:102860004A6AF0934B6A00924C6A10924D6A0128B2
:10287000E0E0F0E20210EF2FA6DDCEEFD5E1F1C1EE
:1028800022D1E0917F6AE23060F0E091806A20928C
:102890007F6A2092806AEE3020F4F0E0EE5AFB4D21
:1028A0000994089508950CC00DC00EC00FC010C04B
:1028B000089508950FC01EC029C010C013C016C0CF
:1028C0000C9410120C9412120C9416120C942012E8
:1028D0000C941B12F894BCD10C941012A0E0B3E439
:1028E0008CE15EC0A0E0B8E988E25AC0A2E0B0E0A6
:1028F00080E856C0F89481E0CEEFD5E1B2D1E4E0B3
:10290000F9EC3DC00001111213141D00E2E1F9ECD5
:1029100036C000020506090A37383900D4D004D081
:10292000D6D002D0D8D000C0B0E078D0B395A09176
:10293000836ABA17D1F70895E091FF15E03069F086
:10294000EF3F09F085D1BFD009D0C1D007D0C3D0A7
:1029500005D0CFEFD5E180E084D10895B0E0A8950F
:1029600006D0B395A091836ABA17D1F708953AD0EB
:1029700028F4D091816ACE2F8A2F6DC10895F894E2
:10298000A191EF93FF9395D0A895FF91EF91B1910D
:10299000B15010F40C941012EF93FF93E8DFF5CFD1
:1029A000F8948F93BF9385D0A895BF918F91B395DD
:1029B0008A9509F40C9410128F93BF93D8DFF5CF4A
:1029C000E091816AE431EEE0EB0751F0E0910B70A9
:1029D000F0910C70EF1721F0EF91EF91989408951A
:1029E000189408954AD033960994F0DF46D0319672
:1029F000099426F0E5DF41D032960994E1DFAF93E8
:102A0000F4DFEF91E3FB0E942212E095AE23E09504
:102A10000EF0EE27AE2B31D0329609942ED03096A0
:102A20000994A0E027C0EA81A98121C0EA81F09140
:102A3000816AA081F091826AA08319C0EA81F09135
:102A4000826AA08114C0EA81F091826AB091816AA1
:102A5000DFD00DC0E981FA81A08109C0E981FA8146
:102A6000A08305C00F92C895A02D0F9000C01894A8
:102A700008940895189488940895CB2FD091836A70
:102A8000CD1778F4D0E0CC0FDD1FCC0FDD1FF09117
:102A9000846ADF0FE881E43149F0F0E0E85EF54D4B
:102AA0000895C0E0DAEDE8E1FAE20895E981FA81FB
:102AB0000895B0E0B03099F4A03029F0A13039F099
:102AC000A23049F00CC0A4EDB6EDF0E00BC0ADE7CC
:102AD000BAEDF0E007C0A4E8BCEDF1E003C0A0E06F
:102AE000B6EDF0E0A093836AB093846AFC5EF09345
:102AF000816AF45AF093826A089503C007C009C03E
:102B000012C0A0910014A0930070B1CFA0910070EA
:102B1000AECFAA2339F032F0E0E0F0E7B091816A5D
:102B200077D0A5CF7ECFE0E0A3E0A1CF7ACF02C0DF
:102B300003C077CFADE09BCF0E94DF1161F4E0913D
:102B40007F6AF091806AFA13E0E0E395E0937F6A90
:102B5000A093806A8CCF65CF03C007C009C015C0A1
:102B6000A0910B14A0930B7082CFA0910B707FCF1C
:102B7000AF3F11F4A0910C70A03F30F4EBE0F0E710
:102B8000B091816A45D073CF4CCFEBE0A1E06FCF1D
:102B900003C007C009C011C0A0910C14A0930C7011
:102BA00066CFA0910C7063CFA03F30F4ECE0F0E76B
:102BB000B091816A2DD05BCF34CFECE0A1E057CF4C
:102BC00030CF06C02ECF2DCF2CCF05C02ACF29CF96
:102BD000E1E0F1E947CFE0E0F1E944CF2092946AE7
:102BE0002092956A089504D0FE2FE0E2EF1B08952D
:102BF000E091956AF091946AEF1B08F4E1950895CD
:102C0000E091956AF091946A8894EF13089408957E
:102C1000C091956ACA56D0E0D549B993E993F99322
:102C2000A993C659C03208F0CC27C093956A08957D
:102C3000C091946ACA56D0E0D549B991E991F99109
:102C4000A991C659C03208F0CC27C093946A089560
:102C500090E3889410C0A881A823A81711F492E1EA
:102C600006C0A881A823A817B1F393E100C0A881EA
:102C7000A817A9F00894A0910210A1FDFCCFA0FD17
:102C8000FACFADE9A4BF9093001008F48993A4BFD4
:102C9000A1E0A0930010A0910210A1FDFCCF089527
:102CA0001CD005C00BD00AD009D008D012C004D067
:102CB00003D002D001D00DC080E001C08FEF80951D
:102CC000809344098091430987FFFCCF8091440998
:102CD00008950B9801D00B9A089580914309809133
:102CE00044090895F9E106C0F1E104C0F9E002C029
:102CF000F1E000C080E0E091BD6AEF1BE83018F41D
:102D00000E9422128E2FDBCF07D002C04B9A08956B
:102D10004B9808956B9A08956B980895E091916A85
:102D2000F091F26CF7FDEF7BE6FDF0DFE6FFF0DF00
:102D3000E7FDF0DFE7FFF0DF08951FD023D025D0B7
:102D4000089580680BC08F7709C04F9880680CD0B9
:102D50000BD081939150E0F74F9A08954F9804D08B
:102D600002D04F9A0895892F809364098091630956
:102D700087FFFCCF80916409089580916309809159
:102D8000640908958FE093E0DECF80E190E0DBCF2F
:102D900086E197EFD8CF87E19FE7D5CF88E197E02D
:102DA000D2CF80E29AE0CFCF81E293E8CCCF83E22A
:102DB00091E0C9CF88E292E0C6CF89E294E1C3CF27
:102DC0008CE29AE1C0CF8DE291E4BDCF8EE298E033
:102DD000BACF8FE291E1B7CF86E390E2B4CF86E33A
:102DE00090E4B1CF86E390E6AECFE5E1FBE682E08A
:102DF0009AE0ABCFE5E4FDE645C2D7ED3CC23DD25B
:102E0000ECD13BD2E0910210E1FDFACFF9DEC0F740
:102E10000FDFC081CA17B1F3A083FB2FCDE9D3E147
:102E2000C4BFD0930010A083D1E0C4BFD0930010E2
:102E3000D1E0D0930410D0930310E2CF82E390E06E
:102E40000E942529FBCF82E390E00E9425290E9461
:102E50001A20F9CFA895E091F26CE3FD06C0E39546
:102E6000E093F26C439A809A02C04398809856DFB0
:102E700084E690E00E942529EDCFFFD10E94F21454
:102E80000E94C811AAD1F9CF429A4A98E5E4FDE61A
:102E9000FED14A9A86E090E00E9425294A98F6CF12
:102EA00088EE93E00E94252944D20E94FE12FCCFB6
:102EB0000C940F21E0911B6DF0918071F07FEF1762
:102EC00008F0EF2FF0918071F295F07FEF1708F482
:102ED000EF2FF091BC6AFE1719F008F0F250F3954D
:102EE000F093BC6AF69509F4F0E1E0E8E0930C0B8E
:102EF000F0930D0B0C94EF14E0911F6A20921F6A5F
:102F0000E0931E6A0C944919F3EDE8E8DAE6C0ECA8
:102F100082E10E94361214D037D03FD047D04FD034
:102F200057D05FD067D06FD011272227D9E0C9E9E9
:102F3000C093FC6AD093FD6A089578940C94A727F7
:102F4000E0ECFAE6E093F96AF093FA6A08950E94D9
:102F5000FD262092006B2092016B2092026B1D7F58
:102F6000E091006BF091016BC091026B3196C21D34
:102F700011FDEFCF2223D1F3E093006BF093016BAF
:102F8000C093026B2AD1ECCFEBECF7E2E0933F6900
:102F9000F0933E6908950C94FF26E4EDF7E2E09388
:102FA0005F69F0935E6908950C941E27EDEDF7E2DA
:102FB000E0937F69F0937E6908950C942327E6EEF1
:102FC000F7E2E0938169F09380690895A3E924C052
:102FD000EFEEF7E2E093A169F093A06908950C94F5
:102FE0002A27E8EFF7E2E093C169F093C0690895FA
:102FF0000C943D27E1E0F8E2E093E169F093E069A9
:1030000008950C944427EAE0F8E2E093016AF09313
:10301000006A08950C9450270C94DC1310FD79C0BD
:10302000F0930B6BFFB7F0930A6B1160E0930C6B9E
:10303000D0930D6BC0930E6BB0930F6BA093106B7E
:103040009093116B8093126B1092136B0092146B20
:10305000C091FE6AC395C093FE6A09F41860CF70F0
:1030600009F41460C0FD14C01061C091FC6AD091D5
:10307000FD6AC15015F41062C97F10F41064C9795B
:10308000D04010F41068D970C093FC6AD093FD6AE8
:1030900017FD4FD070D00E94582713FD0E945A2769
:1030A00017FD0E947C2714FF1BC0DAE6C6EDA1E0E5
:1030B000E881F981319788F071F42A2BE883F9834C
:1030C000EA81FB81FE2B49F0FB810180A0950A2259
:1030D000A095018202C0E883F9832496AA0F41F7E4
:1030E0000090146B1090136B8091126B9091116B88
:1030F000A091106BB0910F6BC0910E6BD0910D6BC6
:10310000E0910C6B1270F0910A6BFFBFF0910B6BAA
:103110000895F894E1E0F1E00E94E511FFEF3197A6
:10312000F1F7E0E0F1E00E94E511F0E43197F1F70A
:10313000F0CFE091016BF091026BEE0FFF1FEBE817
:10314000FE9F000C111CE4E6E119E093FF6A126097
:10315000C091046BD091056BC093066BD093076B45
:10316000D695C795D695C795C093036B2092056BEE
:103170002092046B0895E091FE6AEF70E093FB6A81
:10318000EE0FF0E0EA53F74D099408950C94CD1139
:103190000C94D4110C94D8110C94C5280C94C52807
:1031A0000C94C5280C94C5280C94C5280C94C528EB
:1031B0000C94C5280C94C5280C94C5280C94C528DB
:1031C0000C94C5280C94C5280C94C528F091F66A77
:1031D000FF0F11F02F1708F40895E091046BF091A0
:1031E000056B3196E093046BF093056BC091F96A1F
:1031F000D091FA6AEDB7FEB7E993F883E0E2F22FD7
:10320000C0E8FF0F30F019F0C695E450D1F7CC2795
:10321000EE27C093F66AE093F86AE695E093F76AC2
:10322000DAE6C0ECCE0FD21DC093F96AD093FA6AE9
:10323000E991F881CFB7F894EDBFFEBFCFBF0895F5
:1032400091E0899FC00101C09927C2EDDAE6B091F3
:10325000F86ACB0FD21DBFB7F89488839983D091B9
:10326000F66AD0952D23BFBFB8CF07D0B6CF03D015
:10327000B4CFD091F66A2D2B0895D091F66AD095EF
:103280002D230895208221820895689401C0E89436
:10329000D091F66ABFB7F894C081CC2321F0CE7FDD
:1032A000C083BFBF0895C181CD2BC183BFBF0EF0C6
:1032B000DCCFCBCFBFB7F894C191D081DD2321F40F
:1032C000C160C293BFBF089520822292BFBF0DC0CC
:1032D000BFB7F894D081D260D193D081DD2311F4AF
:1032E000BFBF08952082BFBF00C0E2EDFAE6CD2F38
:1032F0003496CC0F41F0E0F7F8942192219221927C
:103300002192BFBFF6CFB7CF20820895BFB7F89400
:10331000A081AE7FA083BFBF0895F8DFB8CFE1E002
:10332000F1E00E94E5110895E0E0F1E00E94E5116E
:103330000895C7E4DDE6E4E7F3ED0C2E9FEFA191DD
:10334000B191BF3F81F011968FEF83951D901120B1
:10335000E1F3821183958993981788F38211982F4E
:1033600082110C2EECCF9093086B0894C009C09387
:10337000096B089500692069406960698069826904
:10338000A269C269E269FFFF1F693D695D697D69E4
:103390007F699F69BF69DF69FF6900000000000065
:1033A00031030000010A07310080146D0001004064
:1033B00040310080000000023103000001070A31A3
:1033C0000080166D000100404031008000000002C6
:1033D000110B00000142401100811E6D00010040F0
:1033E0004011008000000002110B00000104401198
:1033F00000801A6D000100404011008000000002B2
:10340000110300000105401100801C6D0001004007
:103410004011008000000002110300000102401171
:103420000085186D0001004040110080000000027E
:10343000F8CAF7CAF6CAF5CAF4CAF5CAF2CAF1CA96
:10344000F5CAFCCA00CBEFCAECCA04CBEACAE9CA87
:10345000E8CA00CB03CBE5CAE4CAE3CAE2CAE1CAC0
:10360000147D257F0801017F080802FF080803FFD9
:1036100008FF04FF088005FF04130000149625002E
:1036200008000603086407FF081008FF04040000F0
:103630000800090008000A0014AC25FF14C825FF83
:1036400008C30DFF08E80EFF08000FFF080010FF79
:10365000080011FF080012FF080013000800140002
:103660000000000000000000080017FF089E18116D
:10367000080A1911101A7000040000FF04FF00FF6F
:10368000000000000000000000000000000000003A
:10369000000000000000000000000000000000002A
:1036A000000000000000000000000000000000001A
:1036B00000000000000000000804290F08002A0F85
:1036C00008042B0F08002C0F000000000000000071
:1036D00000000000080030070800310F088032FFAA
:1036E00000000000086434FF084135FF08B436FFCD
:1036F000088037FF088038FF088039FF08283AFF24
:1037000008023B0008A03CFF08033D7F08073E7FFE
:10371000080C3F7F0810407F0815417F0819427F41
:10372000081E437F0822447F0827457F082B467FD9
:103730000830477F0834487F0839497F083D4A7F71
:1037400008424B7F08464C7F084B4D7F084F4E7F09
:1037500008544F7F0858507F085D517F0861527FA1
:103760000866537F086A547F086F557F0873567F39
:103770000878577F087E587F00000000040600008C
:103780000C4068000C4168000C4268000C43680063
:103790000C4468000C4568000C4668000C47680043
:1037A00008005AFF08005BFF040100000409000044
:1037B0000C01A1000C0091000C0191000C00910083
:1037C0000C1180000C10800014E025FF14E425FF8C
:1037D0000C1717000CFF15000CFE150008015CFF0C
:1037E00008025DFF08035EFF08045FFF080560FF35
:1037F000080661FF080762FF08FF63FF08FF64FF18
:1038000008FF65FF08FF66FF08FF67FF08FF68FF06
:1038100008FF69FF08086AFF08096BFF083D6CFF95
:10382000083E6DFF083F6EFF08406FFF084170FFC4
:10383000084271FF084372FF084473FF08FF74FFDA
:1038400008FF75FF08FF76FF08FF77FF08FF78FF86
:1038500008FF79FF08FF7AFF08FF7BFF08FF7CFF66
:1038600008FF7DFF08FF7EFF08FF7FFF08FF80FF46
:1038700008FF81FF000082000000830008FF84FF32
:10388000080185FF080186FF08FF87FF08FF88FF02
:10389000080189FF08018AFF08FF8BFF08FF8CFFE2
:1038A00008018DFF08018EFF08FF8FFF08FF90FFC2
:1038B000080191FF080192FF08FF93FF08FF94FFA2
:1038C000080195FF080196FF08FF97FF08FF98FF82
:1038D000080199FF08019AFF08FF9BFF08009CFF61
:1038E00008019DFF08019EFF08FF9FFF0800A0FF41
:1038F0000801A1FF0801A2FF08FFA3FF08FFA4FF22
:103900000800A5FF0800A6FF08FFA7FF08FFA8FF03
:103910000800A9FF0800AAFF08FFABFF0887ACFF5B
:103920000803ADFF0800AEFF0820AFFF08E0B0FFBE
:103930000880B1FF0880B2FF0825B3FF083FB4FF3D
:103940000853B5FF0833B6FF100D6D000455000095
:103A000004090000040100000000000000000000A4
:103A10000C4368000C4268000C4168000C406800D0
:103A20000C4768000C4668000C4568000C446800B0
:103A30000C0873000C0973000C0A73000C0B730064
:103A40000C0C73000C0D73000C0E73000C0F730044
:103A50000C1073000C1173000C1273000C13730024
:103A60000C1473000C1573000C1673000C17730004
:103A70000C1873000C1973000C1A73000C1B7300E4
:103A80000C1C73000C1D73000C1E73000C1F7300C4
:103A90000C2073000C2173000C2273000C237300A4
:103AA0000C2473000C2573000C2673000C27730084
:103AB0000C2873000C2973000C2A73000C2B730064
:103AC0000C2C73000C2D73000C2E73000C2F730044
:103AD0000C3073000C3173000C3273000C33730024
:103AE0000C3473000C3573000C3673000C39730002
:103AF0000C3A73000C1A73000C1B73000C0073005B
:103B00000C00730000000000000000000000000036
:103B10000000000000000000000000000C056D0027
:103B20000C066D000C076D000C086D000C0D6D008F
:103B30000C0E6D000C8068000C8168000C8268001F
:103B40000C8368000C8868000C8968000C8A680087
:103B50000C8B68000C8C68000C8D68000C426A00AD
:103B60000C436A000C446A000C456A000C466A006B
:103B70000C476A000C486A000C496A000C0C6A0089
:103B80000C1D6A000C1E6A000C236D000C246D00D5
:103B90000CF76C000C0268000C0368000C04680051
:103BA0000C0568000C0068000C0168000CFD150095
:103BB0000C476D000C486D000C496D000C4A6D00FF
:103BC0000C4B6D000C4C6D000C4D6D000C4E6D00DF
:103BD0000C4F6D000C2168000C2068000C2268005E
:103BE0000C4A6A000C4B6A000C4C6A000C4D6A00CF
:103BF00004550000FFFFFFFFFFFFFFFFFFFFFFFF78
:103C0000080000FF080401FF080102FF08FF03FF8E
:103C100008FF04FF080005FF080006FF08FF07FF74
:103C2000080008FF080409FF080E0AFF08FF0BFF41
:103C300008000CFF08040DFF080E0EFF08FF0FFF21
:103C4000080010FF080211FF080C12FF08FF13FF05
:103C5000080014FF080215FF080C16FF08FF17FFE5
:103C6000080018FF080419FF080D1AFF08FF1BFFC2
:103C700008FF1CFF08001DFF08001EFF08FF1FFFB4
:103C8000080020FF080421FF080E22FF08FF23FF81
:103C9000080024FF080425FF080E26FF08FF27FF61
:103CA000080028FF080429FF080E2AFF08FF2BFF41
:103CB00008002CFF08022DFF080C2EFF08FF2FFF25
:103CC000080030FF080231FF080C32FF08FF33FF05
:103CD000080034FF080235FF080C36FF08FF37FFE5
:103CE000080038FF080239FF080C3AFF08FF3BFFC5
:103CF00008003CFF08023DFF080C3EFF08FF3FFFA5
:103D0000080040FF080441FF080E42FF08FF43FF80
:103D1000080044FF080445FF080E46FF08FF47FF60
:103D2000080048FF080449FF080E4AFF08FF4BFF40
:103D300008004CFF08044DFF080E4EFF08FF4FFF20
:103D4000080050FF080451FF080E52FF08FF53FF00
:103D5000080054FF080255FF080C56FF08FF57FFE4
:103D6000080058FF080259FF080C5AFF08FF5BFFC4
:103D700008005CFF08025DFF080C5EFF08FF5FFFA4
:103D800008FF60FF080461FF080062FF08FF63FF8F
:103D9000080064FF080465FF080E66FF08FF67FF60
:103DA00008FF68FF080069FF08006AFF08FF6BFF53
:103DB00008FF6CFF08046DFF08006EFF08FF6FFF2F
:103DC000080070FF080471FF080172FF08FF73FF0D
:103DD00008FF74FF080075FF080076FF08FF77FFF3
:103DE000080078FF080479FF080D7AFF08FF7BFFC1
:103DF00008007CFF08027DFF080C7EFF08FF7FFFA4
:103E000008FF80FF10BD6AFF045500000455000044
:00000001FF
; 
; *** EOF 
