@ba13 ; Affinity 
@bb01 ; MemBank 
@bc03 ; Command 
:020000020C00F0
:1000000012C1089581E084C082E082C083E080C094
:10001000CBD0CEC085E07CC086E07AC087E078C0D7
:1000200088E076C089E074C08AE072C08BE070C05E
:100030008CE06EC070C000008EE06AC08FE068C0C7
:1000400080E166C081E164C082E162C083E160C09A
:1000500084E15EC085E15CC086E15AC087E158C09A
:10006000A9C0000089E154C08AE152C08BE150C0B0
:100070008CE14EC08DE14CC08EE14AC08FE148C09A
:1000800080E246C081E244C082E242C0C6C00000B5
:1000900084E23EC085E23CC086E23AC087E238C0D6
:1000A00088E236C089E234C08AE232C08BE230C0D6
:1000B0008CE22EC08DE22CC08EE22AC08FE228C0D6
:1000C00080E326C081E324C082E322C083E320C012
:1000D00084E31EC085E31CC086E31AC087E318C012
:1000E00088E316C089E314C08AE312C08BE310C012
:1000F0008CE30EC08DE30CC08EE30AC08FE308C012
:1001000001003FD10201000086E1D767F8A58950C0
:10011000E82F0C942D12E89B06C0E898209213015A
:10012000C092220818950091160B0093160BFF93AE
:10013000EF93EFB7EF93DF93CF93BF93AF93E0913C
:100140001C0BF0911D0BA091026AB091036AE09321
:10015000026AF093036AEA1BE093046AFB0BF093D4
:10016000056A6894B2E0E037FB0708F4ED9AB3E063
:10017000EC30FB0730F0E894B4E0E833FB0708F418
:10018000ED9AF091140BE0E1A0911D6AEE9BFE2721
:10019000EE98E6E0A211E4E0E0934102F093140B44
:1001A000E091066AFAE1099401E000935301189581
:1001B0000C943F263F01E091B76AF091B86A009134
:1001C00010060193009111060083E091B96AF09145
:1001D000BA6A019100930C060191009308060191FF
:1001E0000093090601910093000601910093010616
:1001F00001910093A00001910093B76A01910093CF
:10020000B86A019100930B06019100930A06E093EE
:10021000B96AF093BA6AF30118950FB720920310E8
:1002200021600FBF1895A895F89422242DBAE8ED07
:10023000E0933400E5E8E0930110EFE1F9E6EDBF6B
:10024000FEBFE0E0F9E6C8ECDBE021922197E9F798
:1002500020920508A9E4A0931502AEE4A09313022E
:10026000A6E0A09341022092720462984B98439AB0
:100270006B98639A2092000AA0E8A09312040A984F
:10028000029AE0E0FBE02082A7E1A1832582A0E8BA
:10029000A487A0E0A587A3E0A083E0E1FBE02082A3
:1002A000A2E0A183A1E4A483A1E0A683A583A3E0A7
:1002B000A083A0915101A0FDFCCFA9E1A093500122
:1002C000A1E0A0935301A0935201E0E0F6E0A1E188
:1002D000A083A0E0A183ABE0A283A0E0A383A0E081
:1002E000A483A2E0A0930506A2E4A087A2E4A187CC
:1002F000A8E0A09315040B98039A0E98069A0C9800
:10030000049A0598A4E0A0934109A1E3A0934009B1
:10031000A8E0A09355044F9A479A4E9A469A4C9A51
:10032000449A4598A7E0A0936109A1E2A0936009CF
:1003300053D0E8EDE4BFE9E0E0930001E1E0E093B1
:1003400050000E945F240E9493240E94AC240E94CB
:10035000771C0E94D81963D062D00E94FD230E94AE
:100360008C2298D2E8D63FD50E9409250E94B52557
:100370000E94D11E54D0E1E0E0935068E7D0EFEF47
:10038000E093160BE0935301E09304100C94CE25F8
:100390000895EDE2FDE60C948B27E7E0E093010B76
:1003A000E2E6F0ED0C94D012EAE4F0ED0C94D012F9
:1003B000E7E1E093010BEAE7F0ED0C94D012EE27B1
:1003C00008950895E2E0F2E000C0EF23F095009078
:1003D000D86C0F22E02906C0E0E004C0EFEF02C0B5
:1003E000EBE000C0E093D86C00C0E091D86C0C94B6
:1003F0003E13EF23F0950090D96C0F22E02908C03E
:10040000E0E006C0E5E504C0EFEF02C0E0E000C0B8
:10041000E093D96C00C0E091D96C0C943C13089522
:10042000F8948CD0F8949CD00C947E13F8947CD0E3
:100430008DD00C947E130E94F011F894A895FFCFF4
:100440000C948013E770F0E0E05BFB45E0810895D9
:100450000102040810204080ECE3F894AFE1B9E613
:10046000ADBFBEBF0E940812A895FECF01900992B1
:100470008A95E1F7089501901990011411F48A9575
:10048000D1F7089529928A95E9F70895E0E0FFE809
:100490000990E025E0818A95D9F7EE230895799FA8
:1004A000E001689FD001699FB00DC11DD21D789FEA
:1004B000B00DC11DD21D089580E406C080E204C0C5
:1004C00080E102C088E000C0C083D18382832382A0
:1004D00024822582D7CF11D00BC00FD007C00DD0FA
:1004E00003C00BD0AA0FBB1FAA0FBB1FAA0FBB1FB5
:1004F000AA0FBB1FAA0FBB1F0895B381A081AB0F2A
:10050000B181B21DDC91CC93A481B581AD1BB20940
:10051000AC0FB21DA483B583C281D381D395DC1700
:1005200008F0DD27D3830895C0E0D8E6AAE1B0E063
:100530001FC0C0E0D8E6AEE1B0E027C0C0E0D8E61A
:1005400080E4A0DFEFEFE0931F680895C0E4D8E6F1
:10055000AAE3B0E00DC0C0E4D8E6AEE3B0E015C059
:10056000C0E4D8E680E88EDFEFEFE0937F6808957F
:100570000E944013F001A095B095C095D095A0833E
:10058000B183C283D383248208950E944013F00173
:1005900080830895E091B76AF091B86AEF2B0895CF
:1005A000CF93C091B76AC21106C0C091B86AC21198
:1005B00002C0CF9103C0CF9188940895CF93C2E039
:1005C000C0930A06C1E0C0930D06C191C093000616
:1005D000C191C0930206C191C0930306C191C0931B
:1005E0000406C191C0930C06C191C0930806C19145
:1005F000C0930906C191C0930006C191C093010642
:10060000C191C093A000C191C093B76AC191C0933A
:10061000B86AC191C0930B06C191C0930A06E093DA
:10062000B96AF093BA6ACF91089408957695679560
:10063000769567957695679576956795809106117D
:1006400090910711861B970B609104117091051111
:1006500026DFC695B795C695B795C695B795C69545
:10066000B7957C2F6B2F08950C9410000C941100FB
:100670000C9412000C9413000C9414000C941500AC
:100680000C9416000C9417000C9418000C9419008C
:100690000C941A000C941B000C941C000C941D006C
:1006A0000C941E000C941F000C9420000C9421004C
:1006B0000C9422000C9423000C9424000C9425002C
:1006C0000C9426000C9427000C9428000C9429000C
:1006D0000C942A000C942B000C942C000C942D00EC
:1006E0000C942E000C942F000C9430000C943100CC
:1006F0000C9432000C9433000C9434000C943500AC
:100700000C9436000C9437000C9438000C9439008B
:100710000C943A000C943B000C943C000C943D006B
:100720000C943E000C943F000C9440000C9441004B
:100730000C9442000C9443000C9444000C9445002B
:100740000C9446000C944700A881A3700E94882353
:10075000B981CF93DF930E943923DF91CF9158F570
:10076000F881EA81FC7039F0F43031F0FC3039F076
:10077000E4FF18C00AC01FC0AE17E1F01CC0AE2FC6
:100780000E943C23C0F4216015C0E3FB0E942212AA
:10079000E095AE23E0950EF4AE2B0E943C2358F476
:1007A000216008C0E3FB4EDEAE230EF0EE27EA2701
:1007B00009F001C0EECD0895A881A3700E9488239E
:1007C000B9810E943923EA2FEFC4AA81B9810E941E
:1007D0008923E881E370E093EA6CBB810E943923AE
:1007E000A093EB6CB3950E943923A093EC6CB39566
:1007F0000E943923A093ED6CB3950E943923A093F6
:10080000EE6CCAEEDCE6D2C479F40E940224E53034
:1008100058F0A881A3700E948823B981AA810E9400
:100820003C232160EA2FC0C4D6C4BBC4E9F70E94B0
:100830000224E131C8F3B981AA810E948923EAEE3A
:10084000FCE6A881A370A083AC81A183BD81B283A3
:10085000BE81B383BF81B483BB810E943C23A0933C
:10086000EB6CB395A091EC6C0E943C23A093EC6CD4
:10087000B395A091ED6C0E943C23A093ED6CB395D1
:10088000A091EE6C0E943C23A093EE6C2160CAEE16
:10089000DCE68CC4EBE1FDE6C0E0D4E70FDEEFE080
:1008A000FDE6C0E6D4E70ADEE5E1FDE6C0E8D4E710
:1008B00005DEE3E0FDE6C0EAD4E700CE80915268B1
:1008C0000895F894E091626A2092626A7894E03028
:1008D00009F40895ED3208F074CDC091606ADAE64B
:1008E000EA58F0E0FB4E09950C94A4146ACDF3C0CD
:1008F0001DC122C166CD65CD64CD63CD62CD96C1EB
:10090000AAC1C6C1D4C1E7C1FAC10DC220C233C257
:1009100046C2BEC056CD55CD54CD53CD52CD51CD8E
:1009200050CD4FCD4ECD4DCD4CCDC3C04ACD49CD90
:1009300048CD47CDBCC062C261C260C25FC25EC268
:100940005DC278C25CC20895A895F8946091F96C74
:100950007091FA6C78946ADEEB01CF5DD040EBE1E8
:10096000FDE6BBDDB093DD6C6894E0911D6AE0FDAF
:10097000E894D091EF6CC091F06CC7FF05C0C095B2
:10098000D195CF4FC7FDCFE7DD0FCC1FD4E8CD9F6A
:10099000000C111CC12DEFE0FDE69FDD16F0B093B9
:1009A000FE6C16F4B093FF6CD091F16CC091F26CB8
:1009B000C7FF05C0C095D195CF4FC7FDCFE7DD0F6D
:1009C000CC1FD4E8CD9F000C111CC12DE5E1FDE644
:1009D00084DD16F4B093FE6C16F0B093FF6CA0911A
:1009E000FE6CAB0FA795A093206AA25308F4A0E079
:1009F000A093DF6CA091FE6CB091FF6CAB1BA05874
:100A0000A093006DC091F46CCE5D08F4C0E0DAE014
:100A1000CD9FC02DC43608F0C4E6C695E3E0FDE6E0
:100A20005CDDB093E46CE091886AF0918A6AEF171C
:100A300008F4EF2FE0938B6AE0938C6A80911A7030
:100A4000A0913470B091E46CBA1708F08160A09165
:100A50003570B091DD6CBA1708F08460A0913670E3
:100A6000B091DF6CBA1708F088600E94EA2009F0A4
:100A700082600E94EE2080931A700895B19B05C099
:100A8000E2E0F0ED8DCDB199FBCFEAE1F0ED88CD5C
:100A900020925168E2E5F8E621922192219221927A
:100AA0002192219221922192219250DD9CC170DCF1
:100AB0000895E091636AE33019F099818A8103C057
:100AC00090E089818F77EFB7F89480934C6A909388
:100AD0004D6AEFBF08955CDCE881E4FBEE0FE0F9BE
:100AE000E6FBEF71E43010F4E6950DC0E450F0E061
:100AF0008091197084FDE35C84FDFF4884FFE05F12
:100B000084FFF445E081E7F943D0EF131FDD6DC1A9
:100B100003070C1015191E22272B3034393D42468D
:100B20004B4F54585D61666A6F73787E31DCE981A2
:100B30002FD0EF130BDD59C12BDCE98129D0FE2723
:100B4000F0E08A8190915268809352688927F82B4F
:100B5000E091636AE530C8F08B819091536880938F
:100B600053688927F82BE63080F08C819091546887
:100B7000809354688927F82BE73038F08D81909165
:100B80005568809355688927F82BF211DFDC2BC15B
:100B9000FE2F8091506A82110895F0910F70F078C5
:100BA000EC99EF2780911970F0E880FDEF27809194
:100BB0002268F0911D6AF07887FDEF27E7FBEF7759
:100BC00006D0E7F9F0915168E09351680895E2305A
:100BD00060F100900570109001700118039400926C
:100BE0008E680090047010900570011803940092B4
:100BF0008F68FE2FE03408F0FFE300908E680F9EB0
:100C0000000C111CF0910170F695F10DE03438F0F4
:100C1000EF5300908F680E9E000C111CF10DEF2F0A
:100C2000E7FDEFE7E23008F4E2E00895FF27E09106
:100C30004E6A80914F6A8695EE1FE095EF7188812C
:100C400084FB880F80F990915268C6D080935268D7
:100C5000F2117CDCCEC0FF27E0914E6AEE0FE095EA
:100C6000E07E888190915268B7D0809352688881E5
:100C7000880F829590915368E0914E6AEE0FEE1FB7
:100C8000E095E170A9D080935368F2115FDCB1C0A8
:100C9000FF278881880F90915368E0914F6AE09513
:100CA000EE719AD080935368F21150DCA2C0FF27F6
:100CB000E0914F6AE5FD089589819091536883D052
:100CC0008093536889819091546881D0809354684F
:100CD000F2113CDC8EC0FF27E0914F6AE5FD0895DC
:100CE0008981909154686FD08093546889819091E4
:100CF00055686DD080935568F21128DC7AC0FF27C3
:100D0000E0914F6AE6FD08958981909155685BD026
:100D10008093556889819091566859D08093566820
:100D2000F21114DC66C0FF27E0914F6AE6FD0895DA
:100D300089819091566847D08093566889819091B7
:100D4000576845D080935768F21100DC52C0FF27E6
:100D5000E0914F6AE6FD089589819091576833D0FC
:100D60008093576889819091586831D080935868F2
:100D7000F211ECDB3EC0FF27E0914F6AE6FD0895DB
:100D80008981909158681FD080935868898190918B
:100D900059681DD080935968F211D8DB2AC0FF270B
:100DA000E0914F6AE6FD08958981909159680BD0D2
:100DB00080935968898190915A6809D080935A68C4
:100DC000F211C4DB16C08295880FE0EE05C086954F
:100DD00086958695EFE100C08E23E095E9238E2B62
:100DE0009827F92B089501D004C0E09151680C9424
:100DF000C811809152688091536808950895DFDA90
:100E0000C1F430D031F482E0CEEFD5E10E9440242D
:100E100009CB8091636A853038F02196E0E2F8E6EC
:100E200083E029DB31F0FECAF981E0912268FE13EC
:100E3000F9CA0895E881E93008F00895F0E0EE5D20
:100E4000F84E099408C008C008C008C00895089565
:100E50000895089508950895E3CAE2CAE1E0E09391
:100E6000506874CBF0914C68E0914D68EF2B089579
:100E70008F93E1E5FAE6A091636A8A2F8C0FB08127
:100E8000A193BA17A081B991BA07B1938C13FACF85
:100E9000C091606A8F910895E2E013C0E3E011C051
:100EA000E4E00FC0E5E00DC0E6E00BC0EAE009C0F9
:100EB000E3E0F4E007C0E4E0F7E004C0E6E0F9E0D6
:100EC00001C0FE2FAE1718F0FA1708F00895E09150
:100ED0008C68F0918D683196E0938C68F0938D6802
:100EE000E0918468E395E0938468EF91EF9100C00E
:100EF000E0E09EC021D1E3E29BC0CEDFEDE198C0EF
:100F0000CBDF69D1E1E094C0C9DF65D1E4E290C0F4
:100F1000C5DF61D1E2E08CC0CEDF5DD1E3E088C007
:100F2000BDDF3FD1E4E084C0C3DF38D1EFE180C052
:100F3000B3DF34D1E0E27CC0AFDF33D1E1E278C08F
:100F4000B3DFE5E075C0ACDFE6E072C0A7DF29D112
:100F5000E7E06EC0A5DF25D1E8E06AC09DDF3BD1A8
:100F6000E9E066C099DF37D1EAE062C095DF33D1AE
:100F7000EBE05EC093DF2FD1ECE05AC08FDF2BD1C6
:100F8000EDE056C08BDF27D1EEE052C087DF23D1E2
:100F9000EFE04EC083DF1FD1E0E14AC07FDF1BD10D
:100FA000E1E146C07BDF17D1E2E142C075DFF9D055
:100FB000E091656AE395E211E093656AE3E13AC086
:100FC0006BDFEFD0E4E134C073DFEBD0E5E130C09C
:100FD000A43011F058F41CC0E881E3FD03C0ECDB41
:100FE000E6E126C045DF10DCE7E122C0E881FE2F04
:100FF000E370F3FD06C0F2FF09C054DFE6DBE8E171
:1010000017C05CDF35DF12DCE9E112C0EBE110C094
:10101000E2E20EC0EEE10CC04BDFE091666AE395C0
:10102000E211E093666AE23009F48EDBEAE104C083
:101030002092656A2092666AE093626AE0910C6A87
:10104000E093616A20620895ECE2F2CFE091636A76
:10105000E350EB30F8F4E093636AF0E0E35BF74EC3
:101060000995D1F4E091636AA0EBB0EBAE0FB21D2D
:10107000BC91CB0FAE2FAB1BA093636AC093606A89
:10108000DAE6E881E93040F4F0E0E25AF74E0995FB
:10109000EBE2CECF1CDF2CCF2DCF1FC01CC01DC05C
:1010A0002DC019C025C02AC026C022C016C023C02A
:1010B00000000002000402060400060008C007C089
:1010C00006C005C006C005C004C003C002C07DD074
:1010D000089567D008951894089598940895E8E4C1
:1010E000F8E621C0ECE4F8E61EC0EEE4F8E61BC02A
:1010F000E0E4F8E610C0E4E4F8E605C0F3DFD1F080
:10110000EEDFC1F0F2CFA581BD81AB1799F4A481C8
:10111000BC81AB1779F4A381BB81AB1759F4A281D1
:10112000BA81AB1739F4A181B981AB1719F4A08149
:10113000B881AB1708950895E091016DE395E33010
:1011400008F0E0E0E093016DF0E0E855F74E099417
:1011500002C00CC015C0E0911970E5FF05C0E09118
:101160000D70EF73E068B8C0E0E0B6C0E0911970B0
:10117000E5FF03C0E0910E70B4C0E0910070ACC018
:10118000E0911870E3FFD8CFF0918E6AE0E0F2FDB5
:10119000E160F3FDE260F1FDE460A8C098D0ABD05F
:1011A000CBCF95D0ACD0C8CFACD0C6CFE991DE01C3
:1011B00081D0E85FE883ED91E983ED91EA83ED91D9
:1011C000EB83ED91EC83A2D0B7CFE0E0F0E0A0E0BC
:1011D000B0E0B1D0B8C07BD0E091026DE395EA30C9
:1011E00008F0E0E0E093026DF0E0E650F74E62D0E8
:1011F0000995A2CF8CC008C009C00AC00BC00CC0A2
:101200000DC00EC00FC010C011D014C03FD042C0DE
:1012100045D04CC047D02EC011D014C017D01AC032
:101220001DD020C023D026C029D02CC0E091E76C6F
:10123000F0E07CC0E0918768F7E078C0E091E46C72
:10124000F8E074C0E0910468F9E070C0E091026BCE
:10125000FAE06CC0E091FE6AFBE068C0E091E86CE7
:10126000FCE064C0E091E96CFDE060C0E091006DDD
:10127000FEE05CC0E091076BFFE058C0E0918E6A31
:10128000F0E154C0E091F66CF1E150C0E091E26C05
:10129000F8E14CC0E091E36CF9E148C0E091DD6C0D
:1012A000FAE144C0E091DE6CFBE140C0E091DF6C0C
:1012B000FEE23CC0CAE2DAE60895A2E2BAE6089588
:1012C000A4E2BAE60895A091216ABAE60895F8DF8B
:1012D000A093216A089537C0EDDFF1E0F883E98338
:1012E00039C0E8DFF2E0F883E98334C0E3DFF3E0FC
:1012F000F883E9832FC0CFE031C0C0EF2FC0CCE32B
:101300002DC0D8DFE4DF2882E9832EC036C0C2E3D7
:10131000DAE6E4E0E883A0E8B8E6ED91EC83ED914D
:10132000EB83ED91EA83ED91E98327C0E983FA83AA
:10133000F7E0F8831EC0BEDFE883F983AA83BB838E
:10134000E0E1EC831FC0F091376AFF0F28F1FF0F37
:1013500018F12BC0B2DFE3E021D0EAC9B4DFE1E04D
:101360001DD0CD93B5CFAFDFE3E018D0E1D9B0CF3A
:10137000AADFE7E013D0DAD9ABCFA2DFFFE315D0C5
:10138000D1D9A6CF9DDFFFE310D0CED9A1CF95DF75
:10139000FFEF0BD0C5D99CCFF0E007C0F091376AC2
:1013A00002C0FF1FC8F3E695E0F3F093376A089593
:1013B000E0E0E093066A2092376A0895FFFFFFFF9E
:1014000024C04BC04DC052C057C072C191C1C5C1AC
:10141000D3C1F5C1FCC10AC212C21AC222C22DC276
:1014200057C072C0B0C002C117C136C137C138C180
:1014300039C13AC13BC13CC13DC13EC13FC140C1C0
:1014400041C142C143C144C145C1E2E0E093110B37
:10145000332423C0E0918868F09189683196E09345
:101460008868F09389680AC0E0918A68F0918B6877
:101470003196E0938A68F0938B6800C0E0918468AD
:10148000E395E093846800C0332403C0E3E03E2E7C
:1014900000C0E998ED98E1E01FC20E94CC2200C094
:1014A000ED99F2CF8EF73394E3E016C2ED99ECCFCD
:1014B0005EF73394E4E010C2ED99E6CF2EF4339456
:1014C00009F43A94E4E008C2E32DE43108F4DCCFF7
:1014D00030920C6AE091046AF091056AF695E795FE
:1014E000F695E795F695E795E21DE001FBEAEF9F9B
:1014F00010923A6A0E01C2DAEEE0FAE6CFE02192EB
:10150000CA95E9F7E1E1E8C10EF0ED99BDCFE091B0
:10151000046AF091056AF695E795F695E795F695D4
:10152000E795E21DE001FBEAEF9F10923B6A0E0196
:10153000AADAEE27B19BEFEFF0911D6AE0931D6AE6
:10154000FE13EE9AE998EA98EF98EB98EC982092BF
:101550000D6A20920B6AE0918568E395E43650F0BD
:10156000E0918468F0918668E0938668EF1BE093D1
:101570008768E0E0E0938568E0911F6AE395E09377
:101580001F6AE5E1A9C1ED9965CFE0910D6AEF30E1
:1015900008F06ACFFEE0EF0FFAE6F21D3192EE504E
:1015A000E0930D6AE0910B6AE325E0930B6A5EF528
:1015B00009F05ACFE3E0E093110BE0918068F091DD
:1015C00081683196E0938068F0938168E091826849
:1015D000F0918368E21DF21DE0938268F0938368C6
:1015E000E091046AF091056AF695E795F695E7951E
:1015F000F695E795E21DE001FBEAEF9F10923E6A47
:101600000E01E4E169C1E091046AF091056AF69582
:10161000E795F695E795F695E795E21DE001FBEA7B
:10162000EF9F10923C6A0E01E3E156C1ED9B0EF470
:1016300011CFE091046AF091056AF695E795F69569
:10164000E795F695E795E21DE001FBEAEF9F109222
:101650003D6A0E01E5E140C1E2E0E093110B20920A
:10166000026A2092036AED9B0EF0F4CEE091046AC8
:10167000F091056AF695E795F695E795F695E79565
:10168000E21DE001FBEAEF9F10923F6A0E012092FB
:10169000DA6C2ED1E5E020C1E6E11EC0E7E121C011
:1016A000E8E11AC0E9E11DC0EAE116C0EBE119C0AA
:1016B000ECE112C0EDE115C0EEE10EC0EFE111C0AA
:1016C000E0E20AC0E1E20DC0E2E206C0E3E209C0E6
:1016D000E4E202C0E2E105C0ED99BCCE330C30F883
:1016E000FBC01EF030FCB6CEF7C030FEB3CEF4C067
:1016F000E2E3F0ED0E94DE120EF0C6CEC091376A32
:10170000D0911970EB99D860D3FFC070D091187048
:10171000EB99D260EA99D0FFCC7FEC9BD1FFC370EC
:10172000EF99CFEFC093376AB19B7699AFCE00C0E7
:10173000E99AD0912A70C0910A0BCD23D0912970DB
:10174000CD0FCF70C093386AC15BDCE0F001CD9F54
:1017500000921C0B10921D0B0F01E091046AF09196
:10176000056AF695E795F695E795F695E795E21DF6
:10177000E001FBEAEF9F1092406A0E01E0E0E09387
:10178000110BE091376AE0FF06C0C090226AE89A28
:10179000EDE0E0931301E7E09FC0F091376AE0913C
:1017A000236AF1FDE0932208E8E6F1E0E0931C0BE8
:1017B000F0931D0BE8E090C0D0912C70C0910A0B03
:1017C000CD23D0912B70CD0FCF70C093396ACE5AF4
:1017D000D091386ACD1BDCE0F001CD9F00921C0B4C
:1017E00010921D0B0F01E091376AE2FF06C0C09016
:1017F000246AE89AEDE0E0931301E9E06DC0E0EFC0
:10180000F0E0E0931C0BF0931D0BEAE065C0F09153
:10181000376AE091256AF3FDE0932208E0EEF1E0FB
:10182000E0931C0BF0931D0BEBE056C0F091376A70
:10183000E091266AF4FDE0932208ECE04DC0F091BF
:10184000376AE091276AF5FDE0932208EDE044C095
:10185000F091376AE091286AF6FDE0932208EEE005
:101860003BC0F091376AE091296AF7FDE0932208C6
:10187000E2E0E093110BEFE02FC0E001E091026A9B
:10188000F091036AF695E795F695E795F695E79555
:10189000E21DFBEAEF9FE12DEC51F091396AEF0F69
:1018A000E093416A0E01F091376AFC7F91F0EAE320
:1018B000FAE6C191C783C191C783C191C783C19122
:1018C000C783C191C783C191C783C191C783C191A8
:1018D000C7832092376AD8CDE093066AAF91BF9153
:1018E000CF91DF91EF91EFBFEF91FF9118950895A0
:1018F000CEE0DAE6A0910D6A2092626AE881ED57A7
:10190000F0E0F34E0994FFC014C113C112C111C11C
:1019100010C10FC10EC10DC10CC10BC10AC109C15B
:1019200008C107C106C105C104C103C102C101C18B
:1019300000C1FFC0FEC0FDC0FCC0FBC0FAC0F9C0C2
:10194000F8C0F7C0F6C0F5C0F4C0F3C0F2C0F1C0F3
:10195000F0C0EFC0EEC0EDC0ECC0EBC0EAC0E9C023
:10196000E8C0E7C0E6C0E5C0E4C0E3C0E2C0E1C053
:10197000E0C0DFC0DEC0DDC0DCC0DBC0DAC0D9C083
:10198000D8C0D7C0D6C0D5C0D4C0D3C0D2C0D1C0B3
:10199000D0C0CFC0CEC0CDC0CCC0CBC0CAC0C9C0E3
:1019A000C8C0C7C0C6C0C5C0C4C0C3C0C2C0C1C013
:1019B000C0C0BFC0BEC0BDC0BCC0BBC0BAC0B9C043
:1019C000B8C0B7C0B6C0B5C0B4C0B3C0B2C0B1C073
:1019D000B0C0AFC0AEC0ADC0ACC0ABC0AAC0A9C0A3
:1019E000A8C0A7C0A6C0A0C09FC09EC09DC09CC0EC
:1019F0009BC09AC099C098C097C096C095C094C02B
:101A000093C092C091C0B0C0AFC0AEC0ADC0ACC0BA
:101A1000ABC0AAC0A9C0A8C0A7C0A6C0A5C0A4C08A
:101A2000A3C0A2C0A1C0A0C09FC09EC09DC09CC0BA
:101A30009BC09AC099C098C097C096C095C094C0EA
:101A400093C092C091C090C08FC08EC08DC08CC01A
:101A50008BC08AC089C088C087C086C085C084C04A
:101A600083C082C081C080C07FC07EC07DC07CC07A
:101A70007BC07AC079C078C077C076C075C074C0AA
:101A800073C072C071C071C070C06FC06EC06DC0D5
:101A90006CC06BC06AC069C068C067C066C065C002
:101AA00064C063C062C061C060C05FC05EC05DC032
:101AB0005CC05BC05AC059C058C057C056C055C062
:101AC00054C053C052C051C050C04FC04EC04DC092
:101AD0004CC04BC04AC01AC019C018C017C016C0AD
:101AE00015C014C013C012C011C010C00FC00EC06A
:101AF0000DC00CC00BC00AC009C008C007C006C09A
:101B00000DC009C00EC0A150219670C0A093636A99
:101B1000C093606A7DCAA150219625C1A15021962B
:101B200023C1A150219617C1E091656AE33008F006
:101B300073CAEA9AE991A1506894F0914C6AFE1335
:101B4000E894B0914D6AB211E894BF2BF0914A6AC3
:101B5000FE1739F4F0914B6AF7FD03C0B21128C0AB
:101B600045C00EF0C7C932C053CAEA9AE981F8816C
:101B7000A2502296E33021F4F03C11F4EB9A57C0C6
:101B8000B0914B6ABF17B0914A6ABE0741F4E09129
:101B90004C6AF0914D6AEF2BE2110AC027C0B09158
:101BA0004D6ABF17B0914C6ABE0709F0A3C90EC0B9
:101BB000E0911170EC67E0934E6AE0911270E16081
:101BC000E0934F6AE1E0E093506A16C0EC9AE0912E
:101BD0001170E095E378E0934E6AE0911270E09521
:101BE000EE7FE0934F6A2092506A06C020924E6AC0
:101BF00020924F6A2092506AA093636AC093606AF1
:101C0000E881E295EF70E95FF0E0F14E09942BC0B6
:101C100040C055C054C074C973C972C971C99EC946
:101C20009DC9A4C99FC971C070C0D2C9CDC9A093B4
:101C3000636AC093606AEA98E881E295EF70ED5DAF
:101C4000F0E0F14E0994E2C9E1C9E0C9DFC9DEC99B
:101C5000DDC9DCC9DBC9DAC9D9C9D8C9D7C9D6C970
:101C6000D5C9B6C9B1C9E991EF70E75CF0E0F14EB2
:101C700009949CC9A5C9CEC9CDC9C8C9C7C9C6C917
:101C8000C5C9C4C9C3C958C957C9C0C9BFC9BEC9D4
:101C90004FC9E991EF70E15BF0E0F14E0994B6C9EC
:101CA000B5C942C941C9B2C9B1C9B0C9AFC9AEC944
:101CB000ADC9ACC9ABC9AAC9A9C9A8C9A7C9E99185
:101CC000EF71EB59F0E0F14E0994A0C99FC99EC98C
:101CD0009DC99CC99BC99AC999C998C997C996C9F0
:101CE00095C994C993C992C991C990C98FC98EC920
:101CF0008DC98CC98BC98AC989C988C987C986C950
:101D000085C90AC90DC900C903C9E991EF71E55731
:101D1000F0E0F14E09941EC913C915C977C976C9F7
:101D200075C974C973C972C971C970C96FC96EC9DF
:101D30006DC96CC96BC96AC969C968C967C966C90F
:101D400065C964C963C91EC921C924C927C92AC96B
:101D5000FDC810C913C9A093636AC093606AE88183
:101D6000E21154C9CAC852C9A093636AC093606A99
:101D7000E991E03F08F44AC9EF70EF53F0E0F14E0B
:101D8000099462C943C942C941C940C93FC93EC952
:101D90005DC93CC93BC93AC939C938C937C936C90F
:101DA00035C9E0E2FBE6AAE7B3ECD0E0C1E0D583B9
:101DB000C083B183A28326822782208624823A961A
:101DC000D395D832A1F7E4C112D0ED91FD91FC83F7
:101DD000FD91F887FD91F987BED141F0E885EF309C
:101DE00008F0E0E0EE5FF0E0FE4D0994C4C2AD8182
:101DF000AA0FAA0FB0E0A03218F4AC57BF4808955C
:101E0000A052BF480895C0EBDCE6CF93DF930E9459
:101E10001727DF91CF912A97D7DF8E819F8190FB83
:101E20009827917009F0BCD08881815041F008F06A
:101E300088838D81882349F761D183D1A9C1F98134
:101E4000EA8181918C3008F080E090E0825D904ED4
:101E50008F939F930895F983EA83EBCF0BC00DC056
:101E600011C02CC036C03FC042C047C054C05CC087
:101E700062C068C00B807BD0DCCF019078D011901D
:101E80001882E9CF0E94F11F9F938F938191982F21
:101E900092958F709F70092E081A03941F90109CC2
:101EA000180E64D08191982F92958F709F70092E93
:101EB000081A1F90109C180E1882CDCF0E94F11F97
:101EC00001909191091A0394182E109C190E4ED06E
:101ED000B8CF0E94F11F01909191091A182E109C01
:101EE000190E1882B8CF91918191FC01AACF9191DE
:101EF0008191FC018D810995A4CF0E94F11F019071
:101F00009191981708F4A7CF0394102C100C100C83
:101F1000E119F20996CFE89410800B80101460F05C
:101F200021F43196319697CF689411900B8001146B
:101F3000C8F7039415C0689411900B80101490F7A3
:101F40000A940EC00E94F11F01909191091A039406
:101F5000182E109C190E0B80101408F407D071CFA6
:101F600006D0119018820EF476CF63CF012C0B822D
:101F7000A0EBBCE61D80A10DB21D0C920895F4ECFF
:101F8000E8EC03C0F4ECE0EF00C08C81843108F091
:101F900080E0880FE80FF21D91918191FC01089576
:101FA0008E8180F98E8393EC8CE716F493EC80E8B5
:101FB00099838A8391E09883089513D08F77089549
:101FC00010C00FD009F4917008950BD009F49370EC
:101FD000089507D009F49770089503D009F49F700D
:101FE000089580911A0B90910A0B89270895E0EBD0
:101FF000FCE6D091FD6ADF70D395D4FDDA95319679
:102000003196319631963196319631963196D091FE
:10201000BC6AD2116CC0D091FD6ADF70DF3009F468
:10202000DEE0B096C291DC17881FC291DC17881FD2
:10203000C291DC17881FC291DC17881FC291DC1780
:10204000881FC291DC17881FC291DC17881FC291BC
:10205000DC17881F43D4C291DC17881FC291DC179C
:10206000881FC291DC17881FC291DC17881FC2919C
:10207000DC17881FC291DC17881FC291DC17881FEC
:10208000C291DC17881F2AD4C291DC17881FC29125
:10209000DC17881FC291DC17881FC291DC17881FCC
:1020A000C291DC17881FC291DC17881FC291DC1710
:1020B000881FC291DC17881F11D4C291DC17881FBA
:1020C000C291DC17881FC291DC17881FC291DC17F0
:1020D000881FC291DC17881FC291DC17881FC2912C
:1020E000DC17881FC291DC17881FF8D301C4EF01E9
:1020F00008D409D40AD40BD4FE01FAC3ACE6B0E785
:102100001AD08093916A17D0E091906A8093906A78
:10211000E827E2FF0FC0E091DC6CE7FBEF7782FD80
:10212000EE0FE7FDEEE782FFE695E093DB6CE7F963
:10213000E093DC6C089581E0EE910DD0881FE0F70C
:102140000895ACE6B0E780E8ED9105D08795E0F71B
:102150008093926A0895E53410F0EE2713C0E7FBF0
:10216000EF771E2EE770F0E0E857FE4300801694EC
:1021700016941694E2E5F8E6E10DF21DE0810EF406
:10218000E025E021E1950895010204081020408037
:10219000ECE7F0E7ACEFBFECDAE08191CD91C21152
:1021A0008883E238D1F708951FB6F095F89400902F
:1021B0008E6A0F220E2A00928E6A1FBE08951FB6E5
:1021C000F095F89400908F6A0F220E2A00928F6A81
:1021D0001FBE0895E0918D6AEE230895E0913A7054
:1021E000EE3108F0EEE1E0938506FFB7F894E09158
:1021F0008D6AE15010F0E0938D6AFFBFE1E0E0935B
:1022000086060895B8C0A2C016C01FC028C031C03D
:102210003AC040C048C050C057C05EC06EC077C012
:1022200063C07FD083FDA7C082FD90C080FDA3C0A6
:1022300090FFA1C08BC075D083FD9DC082FD86C07C
:1022400080FD99C090FF97C081C06BD083FD93C083
:1022500082FD7CC081FD8FC090FD8DC077C061D0B4
:1022600083FD74C082FD87C080FD85C090FD83C062
:102270006DC057D083FD6AC082FD7DC081FD7BC0EB
:1022800090FF79C063C04DD083FF91FD65C082FF90
:1022900063C053C046D083FF91FD5EC082FF5CC027
:1022A00090FF69C04AC03DD083FF91FD55C082FFB9
:1022B00053C090FD60C041C034D083FF82FF4CC04A
:1022C00091FD08953AD04EC02CD083FF82FF53C0B9
:1022D00091FD90FD50C03AC024D083FF82FF4BC0D7
:1022E00091FD90FF48C032C01CD082FD0895B3E03C
:1022F000B823B21183FD3FC029C013D082FD0895D9
:10230000B3E0B823B21183FD36C01DD031C009D06F
:1023100082FD0895B3E0B823B21183FD2CC00AD02A
:1023200021C08091906A90918E6AA985089545DEBA
:1023300069F0089545DE51F0089543DE39F00895BF
:1023400044DE21F0089545DE09F00895E1E0EF83D1
:10235000089533DE81F0089533DE69F0089531DEAB
:1023600051F0089532DE39F0089533DE21F00895FA
:1023700034DE09F008952F8208950000061FC20080
:10238000061FBF0001000000010F01000100000056
:10239000010201010401080F01000106010800010A
:1023A000000002008102108102FF210703A002FE4B
:1023B000810701FF00000200F10210F102FF210776
:1023C00003A000000101140211F102FF21070280A5
:1023D0000000080101043010010F01000801010490
:1023E0003010010408080F01000001000000090F6F
:1023F000010450200702FF00010000000804010052
:10240000080001000108010253110801010406013E
:102410000704C004C040090F010702FF0000010FBC
:1024200001010101045020046010090F010702FF9F
:1024300000000B03010480400A00010702FF0000B6
:10244000080401010F03010401080101010108074B
:1024500005FF000008000100010F0A01000A070241
:10246000FF000200F102FFB90200B90702FF0000FD
:1024700001000100010F010100130702FF00010F1D
:1024800001010001010F010100110704FF00010F0C
:1024900001010001010F01010001010F0101000F05
:1024A0000706FF0001000100010001080F010801FB
:1024B000010702FF0000010011080F0108010107D8
:1024C00002FF000008000100C384C388C390C3A2B8
:1024D000C3B6C3C4C3D2C3DCC3EEC3FCC404C41EAE
:1024E000C440C458C462C474C47EC48EC4A8C4B6F4
:1024F000C384C38CC39AC3EAC3EAC3EAC3EAC3EA88
:10250000C3F8C400C432C432C454C470C470C4A478
:10251000C4A4C4A4C4C4C4C477D068D00BD00E94DF
:102520003813E093856AF093866A20927F6A20923E
:10253000806A089582E010904E6800904F68F09194
:102540004C68E0914D68EF01CD2BD9F4E09110700B
:10255000FAE0EF9FF0E0E211F0ECE0910F70EF771E
:102560000E0E121C1F2A81E0E0910070EF77F0E060
:10257000C0911970C5FF05C0F0910D70E0910E700B
:10258000F06CE0934A6AF0934B6A00924C6A1092A6
:102590004D6ACEEFD5E174C1E0917F6AE23060F020
:1025A000E091806A20927F6A2092806AE93020F46C
:1025B000F0E0E352FD4D0994089508C008C009C039
:1025C0000AC00BC00CC00DC00CC00CC040C00C94A5
:1025D00010120C9412120C9416120C9420120C94DB
:1025E0001B120895F89443D10C9410129BD004D080
:1025F0009DD002D09FD000C0B0E041D0B395A09153
:10260000836ABA17D1F70895E091FF15E03069F0B9
:10261000EF3F09F02CD186D009D088D007D08AD0DE
:1026200005D0CFEFD5E180E02BD10895B0E0A8959B
:1026300006D0B395A091836ABA17D1F7089516D042
:1026400028F4D091816ACE2F8A2F14D10895F8945E
:1026500081E0CEEFD5E114D165D0B0E0F0DFB0E19C
:10266000EEDFB395B431E1F70C94101235D0339608
:10267000099432D0319609942FD0329609942CD0F7
:1026800030960994A0E026C0EA81A98121C0EA81A0
:10269000F091816AA081F091826AA08319C0EA81D9
:1026A000F091826AA08114C0EA81F091826AB091AF
:1026B000816ABDD00DC0E981FA81A08109C0E9819C
:1026C000FA81A08305C00F92C895A02D0F9000C07D
:1026D0000894089588940895CB2FD091836ACD17DC
:1026E00078F4D0E0CC0FDD1FCC0FDD1FF091846AB1
:1026F000DF0FE881E43149F0F0E0E75BF74D089542
:10270000C0E0D6EDE9E4F8E20895E981FA810895A0
:10271000B0E0B03099F4A03029F0A13039F0A23007
:1027200049F00CC0A3ECB2EDF0E00BC0ADE7B6EDA4
:10273000F0E007C0A3E8B8EDF1E003C0A0E0B2ED1F
:10274000F0E0A093836AB093846AFC5EF093816AA0
:10275000F45AF093826A089503C007C009C010C0FC
:10276000A0910014A0930070B3CFA0910070B0CFDF
:10277000AA2329F022F0E0E0F0E759D0A9CF82CFD8
:10278000E0E0A3E0A5CF7ECF02C003C07BCFADE0E9
:102790009FCF0E94DF1161F4E0917F6AF091806A1F
:1027A000FA13E0E0E395E0937F6AA093806A90CF0C
:1027B00069CF03C007C009C00FC0A0912F14A09318
:1027C0002F7086CFA0912F7083CFEA2F0E94C8115F
:1027D000EFE2F0E72CD07CCFEFE2A0E079CF52CF50
:1027E00006C050CF4FCF4ECF05C04CCF4BCFE1E00E
:1027F000F1E969CFE0E0F1E966CF2092936A209297
:10280000946A089504D0FE2FE0E2EF1B0895E09152
:10281000946AF091936AEF1B08F4E1950895E091B2
:10282000946AF091936A8894EF1308940895C09184
:10283000946ACB56D0E0D549B993E993F993A9931B
:10284000C559C03208F0CC27C093946A0895C0914E
:10285000936ACB56D0E0D549B991E991F991A99104
:10286000C559C03208F0CC27C093936A089590E30D
:10287000889410C0A881A823A81711F492E106C07B
:10288000A881A823A817B1F393E100C0A881A817D5
:10289000A9F00894A0910210A1FDFCCFA0FDFACFF1
:1028A000ADE9A4BF9093001008F48993A4BFA1E000
:1028B000A0930010A0910210A1FDFCCF08951CD0A0
:1028C00005C00BD00AD009D008D012C004D003D064
:1028D00002D001D00DC080E001C08FEF80958093C1
:1028E00044098091430987FFFCCF809144090895F2
:1028F0000B9801D00B9A0895809143098091440967
:102900000895F9E106C0F1E104C0F9E002C0F1E088
:1029100000C080E0E091BC6AEF1BE83018F40E9430
:1029200022128E2FDBCF07D002C04B9A08954B980E
:1029300008956B9A08956B980895E091916AF091CB
:10294000DA6CF7FDEF7BE6FDF0DFE6FFF0DFE7FD99
:10295000F0DFE7FFF0DF08951FD023D025D00895E2
:1029600080680BC08F7709C04F9880680CD00BD05F
:1029700081939150E0F74F9A08954F9804D002D078
:102980004F9A0895892F809364098091630987FF86
:10299000FCCF809164090895809163098091640956
:1029A00008958FE093E0DECF80E190E0DBCF86E119
:1029B00097EFD8CF87E19FE7D5CF88E197E0D2CFD7
:1029C00080E29AE0CFCF81E293E8CCCF83E291E03E
:1029D000C9CF88E292E0C6CF89E294E1C3CF8CE20E
:1029E0009AE1C0CF8DE291E4BDCF8EE298E0BACFFC
:1029F0008FE291E1B7CF86E390E2B4CF86E390E433
:102A0000B1CF86E390E6AECFE4E1FBE682E09AE068
:102A1000ABCFEDE2FDE667C2D7ED5EC25FD20ED26C
:102A20005DD2E0910210E1FDFACFF9DEC0F70FDFD1
:102A3000C081CA17B1F3A083FB2FCDE9D3E1C4BF96
:102A4000D0930010A083D1E0C4BFD0930010D1E098
:102A5000D0930410D0930310E2CF82E390E00E9461
:102A60005627FBCF82E390E00E9456270E94031F67
:102A7000F9CFA895E091DA6CE3FD06C0E395E09309
:102A8000DA6C439A809A02C04398809856DF84E6B5
:102A900090E00E945627EDCF21D20E9461140E943F
:102AA000C811CCD1F9CF429A4A98EDE2FDE620D286
:102AB0004A9A86E090E00E9456274A98F6CF88EE20
:102AC00093E00E94562766D2F0914C68E0914D68E1
:102AD000EF2BA9F055D282E390E00E94562755D201
:102AE00088EC90E00E9456274BD282E390E00E944F
:102AF00056274BD288EE93E00E945627E4CF40D26F
:102B000082E390E00E94562740D282EE94E00E9439
:102B10005627D9CF0C94F71FE091F66CF091807195
:102B2000F07FEF1708F0EF2FF0918071F295F07FB2
:102B3000EF1708F4EF2FF091BB6AFE1719F008F0B9
:102B4000F250F395F093BB6AF69509F4F0E1E0E8F2
:102B5000E0930C0BF0930D0B0C945E14E0911F6A44
:102B600020921F6AE0931E6A0895FFECEAEEDAE60F
:102B7000CFEB82E10E94361214D037D03FD047D03D
:102B80004FD057D05FD067D06FD011272227D9E020
:102B9000C9E9C093FB6AD093FC6A089578940C94B9
:102BA000D825EFEBFAE6E093F86AF093F96A089516
:102BB0000E940C252092FF6A2092006B2092016BEC
:102BC0001D7FE091FF6AF091006BC091016B31961F
:102BD000C21D11FDEFCF2223D1F3E093FF6AF093E2
:102BE000006BC093016B2AD1ECCFECEFF5E2E093E0
:102BF0003F69F0933E6908950C940E25E5E0F6E2F6
:102C0000E0935F69F0935E6908950C942D25EEE0E2
:102C1000F6E2E0937F69F0937E6908950C94322583
:102C2000E7E1F6E2E0938169F09380690895A3E912
:102C300024C0E0E2F6E2E093A169F093A069089570
:102C40000C943925E9E2F6E2E093C169F093C0699A
:102C500008950C944C25E2E3F6E2E093E169F093E9
:102C6000E06908950C945325EBE3F6E2E093016AE2
:102C7000F093006A08950C945F250C946A1310FD7C
:102C800079C0F0930A6BFFB7F093096B1160E09382
:102C90000B6BD0930C6BC0930D6BB0930E6BA0932A
:102CA0000F6B9093106B8093116B1092126B0092CC
:102CB000136BC091FD6AC395C093FD6A09F4186057
:102CC000CF7009F41460C0FD14C01061C091FB6A9C
:102CD000D091FC6AC15015F41062C97F10F41064E1
:102CE000C979D04010F41068D970C093FB6AD093B2
:102CF000FC6A17FD4FD070D00E948A2513FD0E94F8
:102D00008C2517FD0E94AE2514FF1BC0DAE6C5ED29
:102D1000A1E0E881F981319788F071F42A2BE883EA
:102D2000F983EA81FB81FE2B49F0FB810180A095AC
:102D30000A22A095018202C0E883F9832496AA0F93
:102D400041F70090136B1090126B8091116B909172
:102D5000106BA0910F6BB0910E6BC0910D6BD09169
:102D60000C6BE0910B6B1270F091096BFFBFF0914F
:102D70000A6B0895F894E1E0F1E00E94E511FFEF9D
:102D80003197F1F7E0E0F1E00E94E511F0E43197CE
:102D9000F1F7F0CFE091006BF091016BEE0FFF1FA8
:102DA000EBE8FE9F000C111CE4E6E119E093FE6ADB
:102DB0001260C091036BD091046BC093056BD093EC
:102DC000066BD695C795D695C795C093026B209292
:102DD000046B2092036B0895E091FD6AEF70E0931D
:102DE000FA6AEE0FF0E0E950F94D099408950C9459
:102DF000CD110C94D4110C94D8110C94F6260C948B
:102E0000F6260C94F6260C94F6260C94F6260C94D2
:102E1000F6260C94F6260C94F6260C94F6260C94C2
:102E2000F6260C94F6260C94F6260C94F626F091D1
:102E3000F56AFF0F11F02F1708F40895E091036B66
:102E4000F091046B3196E093036BF093046BC091A7
:102E5000F86AD091F96AEDB7FEB7E993F883E0E23A
:102E6000F22FC0E8FF0F30F019F0C695E450D1F70B
:102E7000CC27EE27C093F56AE093F76AE695E093D6
:102E8000F66ADAE6CFEBCE0FD21DC093F86AD09384
:102E9000F96AE991F881CFB7F894EDBFFEBFCFBFD3
:102EA000089591E0899FC00101C09927C1EDDAE63C
:102EB000B091F76ACB0FD21DBFB7F894888399837E
:102EC000D091F56AD0952D23BFBFB8CF07D0B6CF2C
:102ED00003D0B4CFD091F56A2D2B0895D091F56A27
:102EE000D0952D230895208221820895689401C0F1
:102EF000E894D091F56ABFB7F894C081CC2321F053
:102F0000CE7FC083BFBF0895C181CD2BC183BFBF1A
:102F10000EF0DCCFCBCFBFB7F894C191D081DD23C9
:102F200021F4C160C293BFBF089520822292BFBF27
:102F30000DC0BFB7F894D081D260D193D081DD238A
:102F400011F4BFBF08952082BFBF00C0E1EDFAE6D3
:102F5000CD2F3496CC0F41F0E0F7F89421922192D6
:102F600021922192BFBFF6CFB7CF20820895BFB77D
:102F7000F894A081AE7FA083BFBF0895F8DFB8CFDB
:102F8000E1E0F1E00E94E5110895E0E0F1E00E9447
:102F9000E5110895CFE2DDE6E6EDFFEC0C2E9FEFA4
:102FA000A191B191BF3F81F011968FEF83951D9054
:102FB0001120E1F3821183958993981788F3821188
:102FC000982F82110C2EECCF9093076B0894C009B8
:102FD000C093086B08950069206940696069806941
:102FE0008269A269C269E269FFFF1F693D695D6983
:102FF0007D697F699F69BF69DF69FF690000000023
:10300000000031030000010A07310080EF6C00016D
:103010000040403100800000000231030000010741
:103020000A310080F16C0001004040310080000056
:103030000002110B0000014240110081F96C0001F7
:1030400000404011008000000002110B000001044C
:1030500040110080F56C000100404011008000002C
:10306000000211030000010540110080F76C00010F
:103070000040401100800000000211030000010226
:1030800040110085F36C00010040401100800000F9
:103090000002F8CAF7CAF6CAF5CAF4CAF5CAF2CAF3
:1030A000F1CAF5CAFCCA00CBEFCAECCA04CBEACA23
:1030B000E9CAE8CA00CB03CBE5CAE4CAE3CAE2CA5C
:1030C000E1CAFFFFFFFFFFFFFFFFFFFFFFFFFFFF63
:1032000014AC237F080101FF081002FF081003FF20
:1032100008FF04FF088005FF0413000014C3230007
:1032200008010603083207FF081008FF0404000025
:103230000800090008000A0008010BFF08010CFF44
:1032400008C30DFF08E80EFF08000FFF080010FF7D
:10325000080011FF080012FF080013000800140006
:103260000000000000000000080017FF0896181179
:10327000080A1911101A7000040000FF04FF00FF73
:10328000000000000000000000000000000000003E
:10329000000000000000000000000000000000002E
:1032A000000000000000000000000000000000001E
:1032B00000000000000000000804290F08002A0F89
:1032C00008042B0F08002C0F08802DFF08032EFF89
:1032D00014D923FF080330FF0800313F0803320FE1
:1032E000080033FF08FA34FF086435FF086436FF2E
:1032F000088037FF088038FF08A039FF081E3AFF12
:10330000000000000000000008033DFF08073EFF2A
:10331000080C3FFF081040FF081541FF081942FF45
:10332000081E43FF082244FF082745FF082B46FFDD
:10333000083047FF083448FF083949FF083D4AFF75
:1033400008424BFF08464CFF084B4DFF084F4EFF0D
:1033500008544FFF085850FF085D51FF086152FFA5
:10336000086653FF086A54FF086F55FF087356FF3D
:10337000087857FF087E58FF000000000406000090
:103380000C4068000C4168000C4268000C43680067
:103390000C4468000C4568000C4668000C47680047
:1033A00008005AFF08005BFF040100000409000048
:1033B0000C01A1000C0091000C0191000C00910087
:1033C0000C1180000C10800014EF23FF14F323FF76
:1033D0000C1717000CFF15000CFE150008015CFF10
:1033E00008025DFF08035EFF08045FFF080560FF39
:1033F000080661FF080762FF08FF63FF08FF64FF1C
:1034000008FF65FF08FF66FF08FF67FF08FF68FF0A
:1034100008FF69FF08086AFF08096BFF083D6CFF99
:10342000083E6DFF083F6EFF08406FFF084170FFC8
:10343000084271FF084372FF084473FF08FF74FFDE
:1034400008FF75FF08FF76FF08FF77FF08FF78FF8A
:1034500008FF79FF08FF7AFF08FF7BFF08FF7CFF6A
:1034600008FF7DFF08FF7EFF08FF7FFF08FF80FF4A
:1034700008FF81FF000082000000830008FF84FF36
:10348000080185FF080186FF08FF87FF08FF88FF06
:10349000080189FF08018AFF08FF8BFF08FF8CFFE6
:1034A00008018DFF08018EFF08FF8FFF08FF90FFC6
:1034B000080191FF080192FF08FF93FF08FF94FFA6
:1034C000080195FF080196FF08FF97FF08FF98FF86
:1034D000080199FF08019AFF08FF9BFF08009CFF65
:1034E00008019DFF08019EFF08FF9FFF0800A0FF45
:1034F0000801A1FF0801A2FF08FFA3FF0887A4FF9E
:103500000803A5FF0800A6FF04550000FFFFFFFF0A
:1036000004090000040100000000000000000000A8
:103610000C4368000C4268000C4168000C406800D4
:103620000C4768000C4668000C4568000C446800B4
:103630000C0875000C0975000C0A75000C0B750060
:103640000C0C75000C0D75000C0E75000C0F750040
:103650000C1075000C1175000C1275000C13750020
:103660000C1475000C1575000C1675000C17750000
:103670000C1875000C1975000C1A75000C1B7500E0
:103680000C1C75000C1D75000C1E75000C1F7500C0
:103690000C2075000C2175000C2275000C237500A0
:1036A0000C2475000C2575000C2675000C27750080
:1036B0000C2875000C2975000C2A75000C2B750060
:1036C0000C2C75000C2D75000C2E75000C2F750040
:1036D0000C3075000C3175000C3275000C33750020
:1036E0000C3475000C3575000C3675000C397500FE
:1036F0000C3A75000C1A75000C1B75000C00750057
:103700000C00750000000000000000000000000038
:103710000000000000000000000000000CE06C0051
:103720000CE16C000CE26C000CE36C000CE86C002B
:103730000CE96C000C8068000C8168000C82680049
:103740000C8368000C8868000C8968000C8A68008B
:103750000C8B68000C8C68000C8D68000C426A00B1
:103760000C436A000C446A000C456A000C466A006F
:103770000C476A000C486A000C496A000C0C6A008D
:103780000C1D6A000C1E6A000CFE6C000CFF6C0025
:103790000C006D000C0268000C0368000C0468004B
:1037A0000C0568000C0068000C0168000CFD150099
:1037B0000C2F6D000C306D000C316D000C326D0063
:1037C0000C336D000C346D000C356D000C366D0043
:1037D0000C376D000C2168000C2068000C2268007A
:1037E0000C4A6A000C4B6A000C4C6A000C4D6A00D3
:1037F00004550000FFFFFFFFFFFFFFFFFFFFFFFF7C
:10380000080000FF080401FF080102FF08FF03FF92
:1038100008FF04FF080005FF080006FF08FF07FF78
:10382000080008FF080409FF080E0AFF08FF0BFF45
:1038300008000CFF08040DFF080E0EFF08FF0FFF25
:10384000080010FF080211FF080C12FF08FF13FF09
:10385000080014FF080215FF080C16FF08FF17FFE9
:10386000080018FF080419FF080D1AFF08FF1BFFC6
:1038700008FF1CFF08001DFF08001EFF08FF1FFFB8
:10388000080020FF080421FF080E22FF08FF23FF85
:10389000080024FF080425FF080E26FF08FF27FF65
:1038A000080028FF080429FF080E2AFF08FF2BFF45
:1038B00008002CFF08022DFF080C2EFF08FF2FFF29
:1038C000080030FF080231FF080C32FF08FF33FF09
:1038D000080034FF080235FF080C36FF08FF37FFE9
:1038E000080038FF080239FF080C3AFF08FF3BFFC9
:1038F00008003CFF08023DFF080C3EFF08FF3FFFA9
:10390000080040FF080441FF080E42FF08FF43FF84
:10391000080044FF080445FF080E46FF08FF47FF64
:10392000080048FF080449FF080E4AFF08FF4BFF44
:1039300008004CFF08044DFF080E4EFF08FF4FFF24
:10394000080050FF080451FF080E52FF08FF53FF04
:10395000080054FF080255FF080C56FF08FF57FFE8
:10396000080058FF080259FF080C5AFF08FF5BFFC8
:1039700008005CFF08025DFF080C5EFF08FF5FFFA8
:1039800008FF60FF080461FF080062FF08FF63FF93
:10399000080064FF080465FF080E66FF08FF67FF64
:1039A00008FF68FF080069FF08006AFF08FF6BFF57
:1039B00008FF6CFF08046DFF08006EFF08FF6FFF33
:1039C000080070FF080471FF080172FF08FF73FF11
:1039D00008FF74FF080075FF080076FF08FF77FFF7
:1039E000080078FF080479FF080D7AFF08FF7BFFC5
:1039F00008007CFF08027DFF080C7EFF08FF7FFFA8
:103A000008FF80FF10BC6AFF045F0000FFFFFFFF9C
:00000001FF
; 
; *** EOF 
