:020000020000FC
:100000000C9446000C940F020C940F020C94A50162
:10001000C9C1CBC1CDC1CFC1F5C0E2C0BAC5BBC556
:10002000CFC1CCC1D4C182C387C30CC40FC498C391
:10003000A2C3A9C33CC415C423C48CC381C385C354
:10004000B5C4E3C1D7C1DCC125C32AC335C336C398
:100050003EC34AC361C365C370C4D5C0DBC067C4B7
:100060009AC3A4C380C3C0C4C9C4DEC4E9C6ECC675
:10007000EEC6F0C6F5C603C713C791C1010030D163
:1000800000000000BDAC1E66D3902365F8942224C6
:10009000E7E2F9E6EDBFFEBFE0910101E0FDFCCF34
:1000A000E8EDF7E0E4BFF0930001A895E8EDF4E295
:1000B000E4BFF0936800E0914000E0934000EFBBA4
:1000C000E8EDE4BF209201102BBEE8EDF0E6E4BFBE
:1000D000F0931001E0914101E211FCCF2092480120
:1000E00020924901E1E0E0934001E0EFE093E20576
:1000F000E3E0E093E305E4E0E093E405E8E0E09387
:10010000B504E093B604E0931104E0931004E0E03A
:10011000F8E02682A0ECB0E0A087B187A0E8A58334
:10012000A3E0A783A2ECA683A6980198AD9A089AAB
:10013000A59A009A8898259A839A50D062D0F89B05
:1001400006C0E0E0F0E6AFEFA193F836E8F3E0E0B8
:10015000F9E6FB9BF899E0E0FB9BF899F8E6219221
:10016000F038E8F3E0914801F0914901F230D0F322
:10017000E2E036D042D0B69B0FC08BD2C2E006D5AB
:10018000E0910090EF3F11F0AED419F04CD4ABD415
:1001900009F458C1E1E039C1E0E0FAE020822182AF
:1001A00022822382AFE0A083E0E0FBE02082218274
:1001B000AEE6B1E0A487B587A1E0A583A5E0A08362
:1001C000B2D2B7D2789408D018D0C2E6D6D48FB3C2
:1001D0009927E0E0DFD13BC0E0E002C0EFEF00C0D4
:1001E000E0FF2D9AE0FD2D98E1FF8B9AE1FD8B98C1
:1001F000E3FF809AE3FD80980895E0E003C0E5E521
:1002000001C0EFEF0895E8EDF1E0E0933400F093E2
:100210004100FFCFA895E8EDE4BFE1E0E0930001E5
:10022000FFCFCDD316D39681C1D30C92BED3CCC30E
:10023000C6D3BBD39781BAD30CD309901C900110BD
:100240000C9211960197C9F7B0D3BED30895E7E297
:10025000F9E6EDBFFEBF222734E0EAE29BD1C09170
:10026000006994D43CD1203491F324FD10C026FFC2
:10027000F9CFEEE0F3E0059000160590159019F423
:10028000F0010995E4CFEA34B1F720FFEBCF003459
:1002900049F7622F6370613029F720620DD17A3BF4
:1002A00021F46331A1F62061DDCF24FFD0CF7B3B69
:1002B00039F4693060F6C62F69D4246031E0D2CFBA
:1002C0007C3B21F422FFC3CF98D1CCCF7F3B51F6AA
:1002D000603011F40AD0BBCF613009F40AD0B7CF37
:1002E00068E08BC1C02F49D4B2CF87D3E0EE52D1A2
:1002F000AECF99D3EEEE4ED1AACF0053E1E00A95EE
:1003000012F0EE0FFCCFFEB3FE27FEBB0895307D4A
:1003100001317D01327D01337D01347D01357D0167
:10032000367D01377D0153180252FF01647001616F
:100330007201627201637201657201667201737209
:10034000017572016C7201002701EFB64F01E09157
:100350000408E7FF13C0E72DE619E03C23FF08F08F
:10036000AD9AE0910108E2FD82C0F0E7E72D7090C0
:10037000000871927E2EF401EFBE1895E091060BF5
:10038000E093060B761411F442104A943A9422F446
:10039000332EE0E2E0932704F401EFBE1895E0E08D
:1003A000F0E00895EDE0F0E00895E0E3F1ED089568
:1003B000E1E0F0E00895E0E3F1ED089503D0EBC350
:1003C00001D0E7C3AFE0B0E0C0E1D1E10895F8DFCC
:1003D000A193B193C193D193F1DFA193B193C19351
:1003E000D1930895DFEF672C94D06710FBCF21974E
:1003F000D9F7089517D048F00895EBE001C0EAE07E
:1004000001DF2092480120924901A895F894AD9807
:10041000F0E208D0E8F7F6DEF0E404D0E8F7DCDE3E
:10042000ECDEF1CE0090480100904901F0150895EE
:10043000C0910069ABD357D3C9F4CF3311F0CB339C
:10044000A9F4D0DF209205082092000A2092000B28
:100450002092050B209248012092490193D1FE0180
:10046000E050F048F695E795F8940994FBCEF8949F
:1004700020920608AD98E8E0B3DEE5E5C3DEEFEFD5
:10048000A89500C000C000C0E211EA95119BF8CF0A
:10049000E211F5CFC4CF8E2F9927B4DEE8E0A0DEBD
:1004A000E6EA78D0F0910500E2E0F5FDEAE098DEBA
:1004B00032E0672C2ED0F6CF04D0702F02D0602F00
:1004C000089507D002950F9304D00F900029F00EE5
:1004D000089505D00F7D075308F4095D089519D0DC
:1004E000421002C025FDB3CE7614C9F3F0E7E62D25
:1004F00000816394206442102F7B26FD2F7EFBE059
:100500004F2E21FF23950A3011F00D3009F42C7F76
:1005100000C00F01A89523FD06C0E72DE619E032C3
:1005200018F4AD9801C0AD9AF0010895019101D081
:1005300003C00F93029501C00F930F70005D0A3343
:1005400008F0095F1BD00F910895092FF0DF082FE5
:10055000EECF0AE013D00DE011C0E0E0F1E1E6DFFC
:10056000E5DFE4DF0EE20AD029DFCE01EEDFCD01C8
:10057000ECDF26DFCE01E9DFCD01E7CFD8E1C9DF2F
:100580000090040805FEFBCF2197B699C1F70093B0
:1005900002080895E0930169FDE0E0910169059189
:1005A0000DBBE0930169002391F012F0E7DFF4CF77
:1005B000E9990ED0EA9911D0EB991AD0EC99CDDFD8
:1005C000EE9913D0ED99B2D2E899C3DFE5CF089543
:1005D000C591E0930169DAD290C200900069109051
:1005E00031690AE210100895C9CF09E0C7DF87C258
:1005F000EC9BABCFEC980EB39ACF6CBBE099BAD220
:10060000E19907D0E3999AD2E6991CCFE799F5CE04
:10061000089517D1B7D0C0930269D09303695FDF03
:1006200020FFFDCF0A33D9F74CDF502EF02E44DFE8
:10063000C0910269D0910369C60FD71F42DF003015
:1006400031F00130F1F0023069F0E4E024CFFDD068
:1006500008945208A0F02AD1E5E0C8F032DF802FDC
:100660000ED1F6CF29DF660F771F660F771F660F53
:10067000771F660F771F609302697093036903D039
:10068000CECF5AD100C01DDFF21411F0E6E003CF47
:100690000895BBD0CEE4D3E049D04EC0A8950895CC
:1006A000C487D5870895C93008F0C9E0DCE0CD9F44
:1006B000E001C259D5470895F6DFADC0C083D183AC
:1006C000C48BD58BCA0FDB1FC283D3830895A68F3B
:1006D000A895C28FD38FD5D020F0C28DD38D21970E
:1006E000B9F70895AA27BB27C48FD58FEC8FFD8F4C
:1006F000A895A28FB38FC48DD58DFE01B2D048F0DE
:10070000C48DD58DFE01BCD020F0A28DB38D119784
:1007100079F708958FEF79D0868FA895B2D0E8F752
:100720000CC1FADFFFCF71D0C9EED4E0C68BD78BF6
:1007300008956BD0C2EFD4E0C08FD18F089565D0FB
:1007400081D00ED018D025C260D07CD009D013D073
:1007500022C25BD0F5DF02841384C015D105089551
:10076000C489D5890895C489D58900801180C019AC
:10077000D10908954AD0A281B38104881588A019AF
:10078000B109089542D0C081D18108953ED0C2817F
:10079000D38108953AD000801180C281D381C019DD
:1007A000D10909F021960024021C08957CDFFE0186
:1007B00000801180C281D381F2CF0C2ECAE7DAE823
:1007C0001884101419F02C96CA3DD1F70895DCE076
:1007D000CD9FE001C259D5470895CE01CAE7DAE8B6
:1007E000088019808015910530F00A801B808015E3
:1007F000910531F028F02C96CA3D91F708940895A0
:1008000088940895A0E0B1E70895E8E2F9E6089534
:10081000FCDFA487B5878CE0099001928A95E1F707
:100820003C97C481D5812197C095D095C28BD38B3D
:10083000C081D181C687D787C08BD18B278E02D04C
:100840007EC0E3DFC081D18101C0DFDFC48BD58BE7
:10085000089584819581A685B785C485D585089539
:10086000D4DF25D038F0C489D58950D020F08991C3
:10087000C48BD58B089521968FEF0894F9CFC5DFEF
:10088000868F15D090F053D0C481D5812197A4894B
:10089000B589CA23DB231196A48BB58BA485B585B6
:1008A000CA0FDB1F868D888388940895AEDF048885
:1008B0001080011405881180010440F00488128022
:1008C000011405881380010419F010F008940895AC
:1008D000889408959ADFC489D589A685B785CA17F3
:1008E000DB0730F0A089B189CA17DB0719F010F0D7
:1008F000089408958894089588DFC685D78506D022
:10090000A78DAE7F08F4A160A78F0895C034B0E131
:10091000DB0748F0D63148F0D03628F0D03828F040
:10092000D03908F002C00894089588940895D3DF60
:1009300010F403D004D0089568DF2BD026C0C489FA
:10094000D58902881388C021D121C687D7878481A1
:100950009581C80FD91F2197C08BD18BCEDF40F076
:10096000A685B785C485D5850D9009920197E1F7D5
:100970000895078C00FC07C06CDF09901D900114DE
:1009800019F40197D1F718940895F3DF09F050CCCA
:100990000895078C00FC08955CDF09901D901020DD
:1009A00001103FCC0197C9F7089590E080910210A3
:1009B0008370E1F78DE984BF909300100895068855
:1009C0000F9207880F920895008C0F92018C0F925E
:1009D00008952860AD9AFF93F4E69BDDFA95E9F758
:1009E000FF910895277F95CDC2E066DE80E1809378
:1009F0000110B0DE20920110089507DFEF01DFDF64
:100A00002BD069F09BE0D2DFE895CFDF92E0CEDF1C
:100A100000801180E8953296F03AD1F7C6DFFE01EA
:100A2000D3CF02D0F7CBF1DEFF93EF93C8DFDCDF4B
:100A300081F412D071F094919F3F59F09BE0B6DFA2
:100A40000082B3DF92E0B2DF04900192F03AE1F766
:100A5000ACDFEF91FF91B8CFE0E0F0E994918191A4
:100A6000891711F4F03AD1F7E0E0F0E908950000B9
:100A7000FFFF010000002D00000000A0FFFF0002AA
:100A8000080266013FD10090FF9F00020802620247
:100A90003BD10014FF150100181265033ED18010F0
:100AA0009F102000080263043CD100111F110100B7
:100AB000000073050000501058100100000075067A
:100AC00000000060FF670002000061073AD140109B
:100AD0004F10010000006C0800000011001101001F
:100AE00000002D09000035DEA0930469B09305696C
:100AF000C0930669D09307690895F5DF06C0E0E169
:100B0000E0930110F0DF20920110E0ED09F4E6ED32
:100B10000ED0909107698091066917DD9091056963
:100B20008091046912DD02C0E0ED01C0ECEDFDE052
:100B30000591002311F022DDFBCF08950ADD81DE4F
:100B4000F3DF63DE8489958900E1080F090FF02E39
:100B5000E2E920DD85DE38F0082FF00EE8DC55DE16
:100B600004890F70B9F7E0DFF1940F2DE0DC9EDE11
:100B700040F7089566DECEDDDFCE05D00091316905
:100B800000930069089519DE3DDE42CE20DE3ADE94
:100B90003FCEE89404C06894CA0FDB1F00C0EF93F7
:100BA000FF936FEF7FEFCB01FF27A8950EF0199011
:100BB0000EF41A9008941794062E0F1E969587959A
:100BC0007795679500FE08C0EDEE9E27E8EB8E272F
:100BD000E3E87E27E0E26E27169471F7119728F775
:100BE00090958095709560950E01DB01EC01862350
:100BF000872389238095FF91EF910895FFFFFFFFE1
:100D0000A1811B5B34316D2E2E2E5B524553455411
:100D10002D885DA11B5B34346D2E2E2E5B524F4D02
:100D20002E4431332E6C65645D00A1814944205B03
:100D3000905D814C3A208708523A201B5B33326D1C
:100D40004431335230303031A1533A208705553A7F
:100D500020870681413A208707423A20C702433A5A
:100D6000208704453A208703463A20870181524F65
:100D70004D205B987C527C537C645D202D205B6110
:100D80007C627C637C657C667C6C7C737C755D3E80
:100D90002000813A31301B5B39346DA81B5B393040
:100DA0006D3030A0000081811B5B34356D2E2E2EFE
:100DB0005B4572726F722023885DA0202D203C62FB
:100DC0007265616B3E20746F20726573756D65008E
:100DD0001B5B39306D001B5B33326D001B5B6D009C
:100DE000A1811B5B34346D5B532D3E5D0000A181FE
:100DF0001B5B34346D5B3C2D525D0000FFFFFFFF39
:100E0000ACAAA9A5A3A69C9A999593968E8D8BB111
:100E1000B2B4B874726C6A696563665C5A595553AA
:100E2000564E4D4B4771E8E4E2D1C9C5D8D4D2CA79
:100E3000C6CC78171B1D1E2E363A272B2D3539337D
:100E40001ED00ED01CD00CC00BD019D009C017D0AA
:100E500007D015C005D0E991EF73E081ED930895B7
:100E6000E991EF70F881FF0FEE1FFF0FEE1FFEE814
:100E7000E081ED93E991EF73E081ED930895FEE851
:100E8000E881E695E695E081ED93E991E370E295DE
:100E9000F881F07FF295EF2BFEE8E081ED93089565
:100EA000FEE8E881E081ED930895FFFFFFFFFFFF7B
:100F0000005EBCE2613FDD83C29C7E20A3FD1F41E9
:100F10009DC3217FFCA2401E5F01E3BD3E6082DCD9
:100F2000237D9FC1421CFEA0E1BF5D0380DE3C62C9
:100F3000BEE0025CDF81633D7C22C09E1D43A1FFB9
:100F40004618FAA427799BC584DA3866E5BB5907A9
:100F5000DB856739BAE406581947A5FB7826C49A99
:100F6000653BD987045AB8E6A7F91B45C6987A2489
:100F7000F8A6441A99C7257B3A6486D85B05E7B979
:100F80008CD2306EEDB3510F4E10F2AC2F7193CD69
:100F9000114FADF3702ECC92D38D6F31B2EC0E5059
:100FA000AFF1134DCE90722C6D33D18F0C52B0EE49
:100FB000326C8ED0530DEFB1F0AE4C1291CF2D7339
:100FC000CA947628ABF517490856B4EA6937D58B29
:100FD0005709EBB536688AD495CB2977F4AA481619
:100FE000E9B7550B88D6346A2B7597C94A14F6A809
:100FF000742AC896154BA9F7B6E80A54D7896B35F9
:1010000087C0FFCFFFC7FFCFFFC7FFCFFFC7FFCF0F
:10101000FFC7FFCFFFC7FFCFFFC7FFCFFFC7FFCF80
:10102000FFC7FFCFFFC7FFCFFFC7FFCFFFC7FFCF70
:10103000FFC7FFCFFFC7FFCFFFC7FFCFFFC7FFCF60
:10104000FFC7FFCFFFC7FFCFFFC7FFCFFFC7FFCF50
:10105000FFC7FFCFFFC7FFCFFFC7FFCFFFC7FFCF40
:10106000FFC7FFCFFFC7FFCFFFC7FFCFFFC7FFCF30
:10107000FFC7FFCFFFC7FFCFFFC7FFCFFFC7FFCF20
:10108000FFC7FFCFFFC7FFCFFFC7FFCFFFC7FFCF10
:10109000FFC7FFCFFFC7FFCFFFC7FFCFFFC7FFCF00
:1010A000FFC7FFCFFFC7FFCFFFC7FFCFFFC7FFCFF0
:1010B000FFC7FFCFFFC7FFCFFFC7FFCFFFC7FFCFE0
:1010C000FFC7FFCFFFC7FFCFFFC7FFCFFFC7FFCFD0
:1010D000FFC7FFCFFFC7FFCFFFC7FFCFFFC7FFCFC0
:1010E000FFC7FFCFFFC7FFCFFFC7FFCFFFC7FFCFB0
:1010F000FFC7FFCFFFC7FFCFFFC7FFCFFFC7FFCFA0
:1011000001003BD101000000BDAC1E661934BEA336
:10111000A895F8942224EFB3E0932068E8EDE4BFAB
:1011200020921001E8EDF1E0E4BFF0936200EFE1FE
:10113000F9E6EDBFFEBFAC98A49A489A409AE0E267
:10114000F8E02682A0E8B1E0A087B1872582A3E07D
:10115000A783A0E4A683A9E0A093000A2092200A16
:101160002092210AA1E0A093000B2092010BAFEF87
:10117000A0930C0BA0930D0B2092B1042092760447
:10118000A1986698E5D3A895E8EDE4BFE7E0E09381
:10119000000104D406D49AD36ED4B3D380911F68CF
:1011A0008211B4D3EFB3E0932068E0911F68E2119D
:1011B00005C0E0911168E2113EC200C0C0E0D8E66F
:1011C00010D3F993E9930FD3F993E9931AD3E4E099
:1011D000F8E6D193C193B193A19320924E69AF7772
:1011E000A160A0934F69A6D2A0910091B091019106
:1011F000B883A983A09100A1B09101A1BA83AB8368
:101200002C829BD2A0910091B0910191B883A983C7
:101210002A822B822C8221E066C180E50DD48D814B
:101220004DD123E067C2D6D184E406D48E81809369
:101230000A688F8180930B68888580930868898508
:10124000809309688A853AD127E058C2C8D180E7DF
:10125000F3D327E05BC2C3D181E4EED388858093CA
:101260000C68898580930D688A8582FDEAD1837038
:101270008093116828E04DD2809111688211D4D1F9
:1012800032C190913469953011F0983011F4EA81AF
:1012900016C0973011F09A3019F4A6D1EC810FC026
:1012A000993011F09C3019F495D1EE8108C09B3033
:1012B00011F09E3019F493D1E88501C00FC1E930D7
:1012C00068F4F0E0EB59F64F0994E0C0E0C0E1C0EB
:1012D000E1C0E0C0DFC0E1C0E2C0E7C004C184D12A
:1012E00082E4AAD38C8180939D6B388549858230B6
:1012F00011F430FDF8C028E1E19A30FD0DD230FF45
:101300000ED2C7E0EDE7FBE6A8D2C0919D6BCCD131
:10131000A4D2D1D08E819F81C0D1EDEEDE2EE8EB3C
:10132000CE2EE3E8BE2EE0E2AE2EEFEF9E2E8E2E06
:101330007E2E6E2E9FD1D7C057D183E47DD30C80F3
:1013400009140D8008040E8007040F80060428E2AB
:1013500011F428E48FD1BCC147D182E56DD328E7D1
:1013600094D1BDC141D184E567D328E5B8C13CD152
:1013700085E462D328E03E7F4427AAC135D186E4C4
:101380005BD392D190913469963019F08C8130FD05
:101390006CD230FD6ED2A7C030FD9AC090913469F6
:1013A000933009F405C0953011F41ED101C096C0E8
:1013B00082E742D379D13BD28093466911D037D2AC
:1013C000809347690DD033D28093486909D02FD2DA
:1013D0008093496905D09295909590934A69BAC1D6
:1013E000991F90FD08950894879561D18695E9F736
:1013F000089530FF6DC090913469933009F422C094
:10140000953011F4F1D01EC09B3011F4229606C025
:101410009D3019F4E9D0249601C060C087E70CD351
:1014200078E069910894679542D16695E9F77A95D5
:10143000C1F7A8E0B0E02897EDE7FBE610D2A8E0FE
:10144000B0E01BC0A8D081F478F0A0E0B2E760E87B
:10145000A2D011F4E8F748F08FB729D18FBF679574
:10146000B8F76D93A13898F33EC0A050B247C0E0E2
:10147000D2E7EDE7FBE6F3D100C0CDE7DBE614D120
:1014800030FDF1D130FDFBD12EC02DC03CC13AD191
:10149000F4C139C137D1C8D026C034D124C09E3060
:1014A00009F021C02FD1F7D11EC09E3009F01BC01A
:1014B00029D1EFD118C0C4E2D9E6089590910A0B62
:1014C0008923821110C0089584E40CC082E50AC00B
:1014D0008DE408C083E406C085E404C08CE402C047
:1014E00084E500C0A9D2EFE1F9E6EDBFFEBF4FD21F
:1014F00089D2AED02CBA6AE04ED01130A1F76A95ED
:10150000D9F749D081F7E8F3913808F43094D3DF64
:101510007727EE2761E03FD019F7661FE0F7699360
:101520007627C233D8F637D0D9F620F0E627FFE881
:10153000E081F0CF8EE280D27211CECFE093356998
:101540003D7FE2113260C452C0933469C091236977
:10155000C395C093236909F49ECFADDFE881ED3FC9
:1015600011F6209223696981603F08F4BCCF6F7047
:10157000ECE9F7E9660F660FE60FF21D0190022213
:1015800009F4A6CF019000FE02C031FDA3CF019067
:101590001080F0010994A895112706B2032401FEDA
:1015A000FCCF9091200A2092200A2092210A06B2B4
:1015B000032401FCFCCF8091200A2092200A209273
:1015C000210A8D31111F813810FD8F30111F012E1E
:1015D00006940895E0E0F8E684E01DD00CC0E4E055
:1015E000F8E686E018D007C00FD029F00AD019F02D
:1015F00005D009F00CD0821176CF0895EAE0F8E624
:1016000009C0E8E0F8E606C0ECE0F8E603C0EEE06A
:10161000F8E600C082E0DE01129601901D900114F0
:1016200011F48A95D1F70895C1E060D1CF3311F458
:10163000D13D09F00895E6D1E09105A1E0FD01D08A
:10164000DFC4E8EDE0933400E5E8E093011008958D
:10165000E091060BE0FF0895E093060BE09122690C
:10166000E395E0932269E6FF01C002C071D182C117
:1016700071D184C117D00E011EDF6A8A7B8A8C8AE1
:101680009D8A0F8A188E298E089515DF6A887B88B7
:101690008C889D888F89988D00C006D0C4D0C80FD3
:1016A000D91FBBC001D0F1C0EDE5FBE6089530F0D5
:1016B000969487947794679430F009C096948794B1
:1016C0007794679420F09D248C247B246A240895C9
:1016D00037D0988289827A826B822C823CC0E2DF8A
:1016E000DE0180919D6B2CD088832982BA83AB83E5
:1016F0002C8231C0E0E0F8E690E028C0E4E0F8E6B3
:1017000090E024C0E19AC8E5D9E625C0CEE4D9E648
:1017100022C0E19A0FD01FC0CCEDD7E91CC0C09108
:101720009D6BB1D0DE010CD00882B983AA832B82D5
:101730002C8211C0C3E5D9E60895C8E5D9E608951D
:10174000C6E4D9E60895AEE3B9E60895F9DF84E08A
:10175000B4D09883F5DFF7DFA4D000C097E712D0AC
:101760009AEA10D0F0DF86E09091240895FFFCCF34
:101770009D91909322088A95B9F78AE25DD1E19B09
:10178000B2CE08950090200A0916E0F32092200AB4
:101790002092210AB19B769999CE089501010D09F5
:1017A000020113090401260904012B090000450A5E
:1017B0000000450A0000450AFF01410908016F09C0
:1017C00070019C092001AC094001B2091001B70960
:1017D0001001BE091000CC091000F90902003214F2
:1017E000FFFF0C9408000C9409000C940A000C9460
:1017F0000B000C940C000C940D000C940E000C9437
:101800000F000C9410000C9411000C9412000C9416
:1018100013000C9414000C9415000C9416000C94F6
:1018200017000C9418000C9419000C941A000C94D6
:101830001B000C941C000C941D000C941E000C94B6
:101840001F000C9420000C9421000C9422000C9496
:1018500023000C9424000C9425000C9426000C9476
:1018600027000C9428000C9429000C942A000C9456
:101870002B000C942C000C942D000C942E000C9436
:101880002F000C9430000C9431000C9432000C9416
:1018900033000C9434000C9435000C9436000C94F6
:1018A00037000C9438000C9439000C943A000C94D6
:1018B0003B000C943C000C943D00019009928A95E9
:1018C000E1F7089529928A95E9F70895EDE7FBE697
:1018D0000E94290CCDE5D9E60E942B0CEDE5FBE634
:1018E0000E94290CCDE5D9E60C942B0CEDE7FBE624
:1018F0000E942D0C0C941D0CC0E0D8E6AAE1B0E0CB
:101900000EC0C0E0D8E6AEE1B0E014C0C0E0D8E65A
:1019100080E0D8DF00C0EFEFE0931F6808956DDF2F
:10192000F001A095B095C095D095A083B183C283F6
:10193000D383089562DFF00180830895E2E0F2E04E
:1019400000C0EF23F095009020690F22E02904C029
:10195000E0E002C0EFEF00C0E093206900C0E0913A
:1019600020690C94FB0BEF23F095009021690F2266
:10197000E02906C0E0E004C0E5E502C0EFEF00C0EA
:10198000E093216900C0E09121690C94F90BB699AC
:1019900004C0E5E5119B0C94270C07C04424552492
:1019A0000895AD980895AD9A0895E0910408E7FF71
:1019B0000895E0910008E0930070089502D08CE251
:1019C0003BC001D003C08F93829501C08F938F706D
:1019D000805D8A3308F0895F2FD08F9108958AE067
:1019E0002BD08DE029C00F01451451F0F09104086F
:1019F000F5FF06C0F1E7E52DF081F093020853945E
:101A0000F0010895451459F0F0910408F5FFFACF5C
:101A1000F1E7E52DF081F09302085394F3CF089598
:101A2000C42DD1E70190002029F00882C395C5118B
:101A3000F9CFCA954C2ED8CF0F01F201FA95EF17C6
:101A400019F0F1E780834394CFCF8F938E2FF2016B
:101A5000FA95EF1719F0F1E7808343948F91089579
:101A60008991ACDF9A95E1F70895899182118813E5
:101A70000895E2DFFACFCAE8DAE9F7DF809120685B
:101A8000A0DFCAE9DAE9F1DFBDCF0A0D1B5B343410
:101A90006D2E2E2E5B424C442D005D1B5B6D0A0D9E
:101AA0000000CAEADAE9E1DFADCF0A0D1B5B34338F
:101AB0006D2E2E2E5B5550445D1B5B6D0A0D000094
:101AC000C2EDDAE9D2DFC0E0D8E690E1C9DF87DF16
:101AD00099CF0A0D1B5B34326D2E2E2E5B41505078
:101AE0005D1B5B6D202D2000FFFFFFFFFFFFFFFF51
:102000001CC1FFCF81E084C082E082C083E080C039
:10201000D5D0D8C085E07CC086E07AC087E078C0A3
:1020200088E076C089E074C08AE072C08BE070C03E
:102030008CE06EC070D082C08EE06AC08FE068C055
:1020400080E166C081E164C082E162C083E160C07A
:1020500084E15EC085E15CC086E15AC087E158C07A
:10206000B3C0000089E154C08AE152C08BE150C086
:102070008CE14EC08DE14CC08EE14AC08FE148C07A
:1020800080E246C081E244C082E242C0D0C000008B
:1020900084E23EC085E23CC086E23AC087E238C0B6
:1020A00088E236C089E234C08AE232C08BE230C0B6
:1020B0008CE22EC08DE22CC08EE22AC08FE228C0B6
:1020C00080E326C081E324C082E322C083E320C0F2
:1020D00084E31EC085E31CC086E31AC087E318C0F2
:1020E00088E316C089E314C08AE312C08BE310C0F2
:1020F0008CE30EC08DE30CC08EE30AC08FE308C0F2
:1021000001003FD102010000BDAC1E6644B54ED0B7
:10211000E82F0C941C13E89B08C0E8982092130148
:10212000C0922208CF90CF90189520925201009132
:10213000160B0093160B2092150B1895FF93EF9337
:10214000EFB7EF93DF93CF93BF93AF93F894E09102
:102150001C0BF0911D0B7894A091E469B091E56996
:10216000E093E469F093E569EA1BE093E669FB0B11
:10217000F093E7696894B2E0E037FB0708F4ED9A62
:10218000B2E0E43FFB0730F0E894B4E0E833FB074B
:1021900008F4ED9AF1E4E091FF69E21104C0B1990D
:1021A000F061E6E003C07699F061E4E0E09341027B
:1021B000F093140BE091E869F8E1099401E00093D1
:1021C000530118950C94631F3F01E091556AF091FB
:1021D000566A009110060193009111060083E09168
:1021E000576AF091586A019100930C06019100938F
:1021F00008060191009309060191009300060191E0
:102200000093010601910093A00001910093556A8B
:1022100001910093566A019100930B06019100937E
:102220000A06E093576AF093586AF30118950FB7BE
:102230002092031021600FBF1895A895F8942224CE
:102240002DBAE8EDE0933400E5E8E0930110EFE10A
:10225000F9E6EDBFFEBFE0E0F9E6C0ECDAE021927E
:102260002197E9F720920508A9E4A0931502AEE4AE
:10227000A0931302A6E0A0934102209272046298F8
:102280004B98439A6B98639A2092000AA0E8A09317
:1022900012040A98029AE0E0FBE02082A7E1A18301
:1022A0002582A0E8A487A0E0A587A3E0A083E0E1C1
:1022B000FBE02082A2E0A183A1E4A483A1E0A683A5
:1022C000A583A3E0A083A0915101A0FDFCCFA9E1CB
:1022D000A0935001A1E0A0935301A0935201E0E02C
:1022E000F6E0A1E1A083A0E0A183ABE0A283A0E09F
:1022F000A383A0E0A483A2E0A0930506A2E4A087A4
:10230000A2E4A187A8E0A09315040B98039A0E9865
:10231000069A0C98049A0598A4E0A0934109A1E3B9
:10232000A0934009A8E0A09355044F9A479A4E9A6B
:10233000469A4C9A449A4598A7E0A0936109A1E275
:10234000A0936009A2D0E8EDE4BFE8E0E0930001CB
:102350000E94251D0E94E61D0E94FF1D0E94D01AAA
:10236000DFD5B9D0BBD00E94CB1C0E94FA190E94C5
:10237000F813AAD30E945C1E0E94D91E48D1E1E046
:10238000E0931168E0911068E395E0931068A4D1A0
:10239000E1E0E09350000C94F21E089508950C942F
:1023A00008000C9409000C940A000C940B000C9487
:1023B0000C000C940D000C940E000C940F000C9467
:1023C00010000C9411000C9412000C9413000C9447
:1023D00014000C9415000C9416000C9417000C9427
:1023E00018000C9419000C941A000C941B000C9407
:1023F0001C000C941D000C941E000C941F000C94E7
:1024000020000C9421000C9422000C9423000C94C6
:1024100024000C9425000C9426000C9427000C94A6
:1024200028000C9429000C942A000C942B000C9486
:102430002C000C942D000C942E000C942F000C9466
:1024400030000C9431000C9432000C9433000C9446
:1024500034000C9435000C9436000C9437000C9426
:1024600038000C9439000C943A000C943B000C9406
:102470003C000C943D00E2E0F2E000C0EF23F09558
:102480000090BE6A0F22E02904C0E0E002C0EFEF36
:1024900000C0E093BE6A00C0E091BE6A0C94D911FE
:1024A000EF23F0950090BF6A0F22E02906C0E0E01C
:1024B00004C0E5E502C0EFEF00C0E093BF6A00C0D2
:1024C000E091BF6A0C94D711B69904C0E5E5119B61
:1024D0000C94051207C0442455240895AD9808951E
:1024E000AD9A0895E0910408E7FF0895E09100088F
:1024F000E093007108958F93892F0AD08F9108C0BF
:102500008F93892F05D08F9100C002D08CE23BC001
:1025100001D003C08F93829501C08F938F70805D2F
:102520008A3308F0895F2FD08F9108958AE02BD0ED
:102530008DE029C00F01451451F0F0910408F5FF1A
:1025400006C0F2E7E52DF081F09302085394F00104
:102550000895451459F0F0910408F5FFFACFF2E719
:10256000E52DF081F09302085394F3CF0895C42D24
:10257000D2E70190002029F00882C395C511F9CF58
:10258000CA954C2ED8CF0F01F201FA95EF1719F02A
:10259000F2E780834394CFCF8F938E2FF201FA9589
:1025A000EF1719F0F2E7808343948F910895899192
:1025B000ACDF9A95E1F70895899182118813089507
:1025C000E2DFFACFC8EDD5EAF7DF80912068A0DF1F
:1025D000C8EED5EAF1DFBDCF0A0D1B5B34346D2E9A
:1025E0002E2E5B424C442D005D1B5B6D0A0D0000DE
:1025F000C8EFD5EAE1DFADCF0A0D1B5B34336D2E9A
:102600002E2E5B5550445D1B5B6D0A0D0000C0E231
:10261000D6EAD2DFC0E0D8E690E1C9DF87DF99CF04
:102620000A0D1B5B34326D2E2E2E5B4150505D1B0C
:102630005B6D202D2000ECE3F894AFE1B9E6ADBF6F
:10264000BEBF3BDFA895FECF019009928A95E1F7C6
:10265000089529928A95E9F70895799FE001689F86
:10266000D001699FB00DC11DD21D789FB00DC11D55
:10267000D21D089580E404C080E202C080E100C061
:10268000C083D1838283238224822582E2CF0DD02E
:1026900007C00BD003C009D0AA0FBB1FAA0FBB1FD6
:1026A000AA0FBB1FAA0FBB1F0895B381A081AB0F58
:1026B000B181B21DDC91CC93A481B581AD1BB2096F
:1026C000AC0FB21DA483B583C281D381D395DC172F
:1026D00008F0DD27D3830895C0E0D8E6AAE1B0E092
:1026E0000EC0C0E0D8E6AEE1B0E014C0C0E0D8E66D
:1026F00080E0AFDF00C0EFEFE0931F6808955BDE7E
:10270000F001A095B095C095D095A083B183C28308
:10271000D383089550DEF00180830895E091556AD7
:10272000F091566AEF2B0895CF93C091556AC2116C
:1027300006C0C091566AC21102C0CF9103C0CF91AA
:1027400088940895CF93C2E0C0930A06C1E0C09375
:102750000D06C191C0930006C191C0930206C191BC
:10276000C0930306C191C0930406C191C0930C06A7
:10277000C191C0930806C191C0930906C191C0934D
:102780000006C191C0930106C191C093A000C19100
:10279000C093556AC191C093566AC191C0930B060C
:1027A000C191C0930A06E093576AF093586ACF919B
:1027B00008940895769567957695679576956795CB
:1027C000769567958091061190910711861B970B5E
:1027D000609104117091051140DFC695B795C695BB
:1027E000B795C695B795C695B7957C2F6B2F08956D
:1027F000E5EFFAE6C0E0D3E73FDFE9EEFAE6C0E650
:10280000D3E73ADFEFEEFAE6C0E8D3E735DFE3EEF1
:10281000FAE6C0EAD3E730CF809113680895F894C0
:10282000E0912A6A20922A6A7894E03009F40895A7
:10283000EB3208F0B3CDC091286AD9E6EC5DF0E048
:10284000FB4E09950C945014A9CDA8CD8BC093C014
:10285000A5CDA4CDA3CDA2CDA1CDBBC0C8C0DAC0AB
:10286000E5C0F4C09BCD9ACD99CD98CD97CD96CDAE
:1028700095CD94CD93CD92CD91CD90CD8FCD8ECD64
:102880008DCD8CCD8BCD8ACD89CD88CD87CD86CD94
:1028900085CD84CD83CD82CD81CD80CDF7C0089507
:1028A000A895F8946091DA6A7091DB6A789482DF77
:1028B000EB01CF5DD040E5EFFAE6EBDEB093C16A05
:1028C000C091D26ACC0FC091D36ACC1F08F4CC2738
:1028D000E9EEFAE6DEDEB093DF6AC091D46ACC0F8F
:1028E000C091D56ACC1F08F4CC27EFEEFAE6D1DE12
:1028F000B093E06AA091DF6AAB0FA795A093006A3E
:10290000A25308F4A0E0A093C26AE3EEFAE6C1DEA7
:10291000B093C76A80911A70A0913470B091C76A61
:10292000BA1708F08160A0913570B091C16ABA17EA
:1029300008F08460A0913670B091C26ABA1708F0AE
:10294000886080931A700895E091FF69E03039F053
:10295000E2E3F2ECE9CEE091FF69E030C9F3EAE4AA
:10296000F2ECE2CE1ADD89819091126880931268B0
:102970008913B2DEABC011DD8981F09112688093BA
:102980001268F8278A8190911368809313688927C9
:10299000F82BE0912B6AE530C8F08B819091146898
:1029A000809314688927F82BE63080F08C81909111
:1029B0001568809315688927F82BE73038F08D81EA
:1029C00090911668809316688927F82BF21184DE9F
:1029D0007BC0FF27888184FB880F80F99091136862
:1029E000EFE14DD080931368F21176DE73C0FF27BC
:1029F0008881909113683AD0809313688881880FFA
:102A0000829590911468E1E03AD080931468F211B5
:102A100063DE60C0FF278881880F90911468EEE123
:102A20002ED080931468F21157DE54C0FF2789819D
:102A3000909114681BD080931468898190911568D7
:102A400019D080931568F21147DE44C0FF278981B1
:102A5000909115680BD080931568898190911668C4
:102A600009D080931668F21137DE34C08295880F42
:102A7000E0EE05C0869586958695EFE100C08E2331
:102A8000E095E9238E2B9827F92B0895E881E9300A
:102A900068F4F0E0E35BFA4E099409C00BC00BC088
:102AA0000AC009C008C0089508950895089580E5F2
:102AB0000C94C312C0CCEF54E09311680DDEE0918A
:102AC0001168E130B9F7089501D004C0E0911268AF
:102AD0000C94CD11809113688091146808958F93A0
:102AE000E9E1FAE6A0912B6A8A2F8C0FB081A193BD
:102AF000BA17A081B991BA07B1938C13FACFC091DC
:102B0000286A8F91089513D1E3E2AAC0EB99FBCF15
:102B1000E881E03011F0ECE1A3C0EB99F4CFEDE1F6
:102B20009FC0EB99F0CF29D1E1E09AC0EB99EBCFB0
:102B30003DD1E2E095C0EB99E6CF38D1E3E090C01B
:102B4000EB99E1CF1AD1E4E08BC0EB99DCCFEFE158
:102B500087C0EB99D8CF0ED1E0E282C0EB99D3CFFA
:102B60000CD1E1E27DC0EB99CECFE5E079C0EB99E5
:102B7000CACFE6E075C0EB99C6CFFFD0E7E070C0E2
:102B8000EB99C1CFFAD0E8E06BC0EB99BCCF0ED186
:102B9000E9E066C0EB99B7CF09D1EAE061C0EB99F3
:102BA000B2CF04D1EBE05CC0EB99ADCFE6D0ECE066
:102BB00057C0EB99A8CFFAD0EDE052C0EB99A3CF64
:102BC000F5D0EEE04DC0EB999ECFF0D0EFE048C0DD
:102BD000EB9999CFEBD0E0E143C0EB9994CFE6D0ED
:102BE000E1E13EC0EB998FCFE1D0E2E139C0EB9952
:102BF0008ACFC3D0E3E134C0EB9985CFBED0E4E106
:102C00002FC0BBD0E5E12CC0E0912B6AE43011F07D
:102C100058F41CC0E881E3FD03C06FD7E6E120C093
:102C20005EDF93D7E7E11CC0E881FE2FE370F3FD80
:102C300005C0F2FF07C06AD7E8E112C050DF96D79F
:102C4000E9E10EC0EB995FCFEBE10AC0EB995BCFF6
:102C5000E2E206C0EB9957CFEEE102C0EAE100C024
:102C6000E0932A6AE091EE69E093296A2062089570
:102C7000E0912B6AE350EB30C0F4E0932B6AF0E074
:102C8000EA5AF94E099589F4E0912B6AA2ECBCEA64
:102C9000AE0FB21DBC91CB0FAE2FAB1BA0932B6A16
:102CA000C093286A7ED0EAE2DBCF2DCF12C00FC0DE
:102CB00010C020C00CC018C01DC019C015C009C06C
:102CC00016C000000002000402060400060018946A
:102CD000089598940895E8E0F8E621C0ECE0F8E65D
:102CE0001EC0EEE0F8E61BC0E0E0F8E610C0E4E04D
:102CF000F8E605C0F3DFD1F0EEDFC1F0F2CFA58139
:102D0000BD81AB1799F4A481BC81AB1779F4A38181
:102D1000BB81AB1759F4A281BA81AB1739F4A181F9
:102D2000B981AB1719F4A081B881AB170895E09170
:102D3000E16AE395E23008F0E0E0E093E16AF0E078
:102D4000ED55F94E099401C00BC0E0911970E5FFF3
:102D500005C0E0910D70EF73E0688BC0E0E089C0C2
:102D6000E0911970E5FF03C0E0910E7087C0E0911B
:102D700000707FC079D087D0DACF76D088D0D7CF17
:102D800088D0D5CFE991DE0162D0E85FE883ED918C
:102D9000E983ED91EA83ED91EB83ED91EC837ED0B5
:102DA000C6CFE0910100F0E07FD085C05DD0E0911A
:102DB000E26AE395E63008F0E0E0E093E26AF0E0F2
:102DC000EB51F94E44D00995B2CF05C006C007C0FB
:102DD00008C009C00AC00BD00EC029D02CC02FD00B
:102DE00032C00DD010C013D016C019D01CC0E09155
:102DF000C96AF0E054C0E0912468F7E050C0E09167
:102E0000C76AF8E04CC0E0911068F9E048C0E09172
:102E1000A06AFAE044C0E0919C6AFBE040C0E09107
:102E2000CA6AFCE03CC0E091CB6AFDE038C0E091AA
:102E3000C56AF8E134C0E091C66AF9E130C0E091BA
:102E4000C16AFAE12CC0E091C26AFEE228C0CAE081
:102E5000DAE60895A2E0BAE60895A4E0BAE6089595
:102E6000A091016ABAE60895F8DFA093016A089577
:102E700022C0EDDFF1E0F883E98324C0E8DFF2E06F
:102E8000F883E9831FC0CFE021C0C0EF1FC0CCE3AF
:102E90001DC0DDDFE9DF2882E9831EC026C0E9838B
:102EA000FA83F7E0F8831DC0D2DFE883F9832A8232
:102EB0002B822C821FC0F091126AFF0F28F1FF0FA6
:102EC00018F12BC0C7DFE3E021D0CDCAC9DFE1E0B4
:102ED0001DD0CD93CACFC4DFE3E018D0C4DAC5CF8C
:102EE000BFDFE7E013D0BDDAC0CFB7DFFFE315D017
:102EF000B4DABBCFB2DFFFE310D0B1DAB6CFAADFCE
:102F0000FFEF0BD0A8DAB1CFF0E007C0F091126A62
:102F100002C0FF1FC8F3E695E0F3F093126A08952C
:102F2000E0E0E093E8692092126A0895FFFFFFFF56
:1030000026C03EC01CC137C16AC17AC19CC1A5C1DE
:10301000B5C1BDC1C5C1CDC1D8C13CC040C068C0EB
:10302000B4C0C6C0E2C0E3C0E4C0E5C0E6C0E7C0CB
:10303000E8C0E9C0EAC0EBC0ECC0EDC0EEC0EFC034
:10304000F0C0F1C0E0912168E395E0932168EC992C
:103050000C94131AE2E0E093110BF89420921A0BEF
:1030600020921B0B78942092E4692092E569332426
:1030700003C0E3E03E2E00C0E998ED98E1E0A9C16D
:10308000ED99E5CF1EF43394E1E0A3C1E32DE431E3
:1030900008F4EDCF3092EE6957DCEEE09AC1ED997D
:1030A000D6CF2EF358DCEE27B19BE395E093FF6972
:1030B000E998EA98EB982092EF692092ED69E0EFA9
:1030C000F9E6CFE02192CA95E9F7E0912268E3950D
:1030D000E43650F0E0912168F0912368E093236892
:1030E000EF1BE0932468E0E0E0932268E2E171C125
:1030F000ED99A8CFE091EF69EF3008F0A3CFF0EFA2
:10310000EF0FF9E6F21D3192E05FE093EF69E09195
:10311000ED69E325E093ED6946F509F093CFE3E02F
:10312000E093110BE0912568F09126683196E093C9
:103130002568F0932668E0912768F0912868E21DE1
:10314000F21DE0932768F0932868E091E669F0911A
:10315000E769F695E795F695E795F695E795F21107
:10316000EFEFE093166AE1E134C1E091E669F09196
:10317000E769F695E795F695E795F695E795F211E7
:10318000EFEFE093146AE0E124C1ED9B0EF45ACF17
:10319000E091E669F091E769F695E795F695E79590
:1031A000F695E795F211EFEFE093156AE2E111C1B0
:1031B000ED9B0EF047CFE2E0E093110B2092E46923
:1031C0002092E569E091E669F091E769F695E79567
:1031D000F695E795F695E795F211EFEFE093176A0C
:1031E0002092C06ADED1E2E0F4C0E3E11EC0E4E177
:1031F0001FC0E5E11AC0E6E11BC0E7E116C0E8E147
:1032000017C0E9E112C0EAE113C0EBE10EC0ECE146
:103210000FC0EDE10AC0EEE10BC0EFE106C0E0E255
:1032200007C0E1E202C0EFE003C0330C30F8D1C0C8
:103230001EF030FC07CFCDC030FE04CFCAC0E2E69E
:10324000F2EC80DA0EF003CFC091126AD0911970BF
:10325000EB99D860D3FFC070D0911870EB99D26011
:10326000EA99D0FFCC7FD1FFC370C093126AB19BA3
:103270007699FFCE00C0E99AD0912A70C0910A0BCE
:10328000CD23D0912970CD0FCF70C093136AC15B4D
:10329000DCE0F001CD9FF89400921C0B10921D0B06
:1032A00078940F01E091E669F091E769F695E7956A
:1032B000F695E795F695E795F211EFEFE093186A2A
:1032C000E0E0E093110BE091126AE0FF06C0C090CD
:1032D000026AE89AEDE0E0931301E4E07AC0F0912D
:1032E000126AE091036AF1FDE0932208E8E6F1E05A
:1032F000F894E0931C0BF0931D0B7894E5E069C003
:10330000D0912C70C0910A0BCD23D0912B70CD0F92
:10331000CF70CE5AD091136ACD1BDCE0F001CD9F67
:10332000F89400921C0B10921D0B78940F01E09101
:10333000126AE2FF06C0C090046AE89AEDE0E093EA
:103340001301E6E046C0E0EFF0E0F894E0931C0BD8
:10335000F0931D0B7894E7E03CC0F091126AE09185
:10336000056AF3FDE0932208E0EEF1E0F894E093C3
:103370001C0BF0931D0B7894E8E02BC0F091126ABF
:10338000E091066AF4FDE0932208E9E022C0F091A2
:10339000126AE091076AF5FDE0932208EAE019C09D
:1033A000F091126AE091086AF6FDE0932208EBE0E2
:1033B00010C0F091126AE091096AF7FDE0932208CB
:1033C000E2E0E093110BECE004C02092126AE0E02E
:1033D00000C0E093E869AF91BF91CF91DF91E1E048
:1033E000E093150BE1E0E0935201EF91EFBFEF9115
:1033F000FF91089526D01CD0F0910C68E0910D68E3
:10340000EF01CD2B49F0F0930D70E0930E70E09139
:103410001970E062E09319700E94D311E0932F6A53
:10342000F093306A0895F8940E94051D0C941B12C5
:1034300069D0B0E029D0B395A0912D6ABA17D1F721
:103440000895E091FF15E030A9F0EF3F09F0DDD2DB
:1034500059D0B0E0A8950FD020F4CE2FD4E18A2F18
:10346000D7D2B395A0912D6ABA17A9F7CFEFD5E1BE
:1034700080E0D0D208952AD03396099427D031968F
:10348000099424D03296099421D030960994A0E072
:103490001BC0EA81A98116C0EA81F4E1A081F0E7AE
:1034A000A08310C0EA81F0E7A0810CC0EA81F0E7B8
:1034B0008CD208C0E981FA81A08104C0E981FA8137
:1034C000A08300C00894089588940895CB2FD091CC
:1034D0002D6ACD1778F4D0E0CC0FDD1FCC0FDD1FA7
:1034E000F0912E6ADF0FE881E43149F0F0E0E95B0A
:1034F000FE4D0895C0E0D6ECE7E4F1E20895E981DD
:10350000FA810895A0E0B0E0B03059F4A03019F08D
:10351000A13021F006C0A2E7B4EC05C0A3E5B6ECEB
:1035200002C0A0E0B4ECA0932D6AB0932E6A089577
:1035300003C007C009C010C0A0910014A093007080
:10354000C1CFA0910070BECFAA2329F022F0E0E005
:10355000F0E73BD2B7CF9BCFE0E0A3E0B3CF97CF6C
:1035600002C003C094CFADE0ADCFA83011F4EC9A07
:10357000A9CF8DCF03C007C009C00FC0A0912F14E1
:10358000A0932F709FCFA0912F709CCFEA2F0E9405
:10359000CD11EFE2F0E719D295CFEFE2A0E092CFA4
:1035A0000895C0EFD9E6A091EF6920922A6AE881D8
:1035B000E452F0E0F54E0994FFC010C10FC10EC1F6
:1035C0000DC10CC10BC10AC109C108C107C106C1A7
:1035D00005C104C103C102C101C100C1FFC0FEC0D9
:1035E000FDC0FCC0FBC0FAC0F9C0F8C0F7C0F6C00F
:1035F000F5C0F4C0F3C0F2C0F1C0F0C0EFC0EEC03F
:10360000EDC0ECC0EBC0EAC0E9C0E8C0E7C0E6C06E
:10361000E5C0E4C0E3C0E2C0E1C0E0C0DFC0DEC09E
:10362000DDC0DCC0DBC0DAC0D9C0D8C0D7C0D6C0CE
:10363000D5C0D4C0D3C0D2C0D1C0D0C0CFC0CEC0FE
:10364000CDC0CCC0CBC0CAC0C9C0C8C0C7C0C6C02E
:10365000C5C0C4C0C3C0C2C0C1C0C0C0BFC0BEC05E
:10366000BDC0BCC0BBC0BAC0B9C0B8C0B7C0B6C08E
:10367000B5C0B4C0B3C0B2C0B1C0B0C0AFC0AEC0BE
:10368000ADC0ACC0ABC0AAC0A9C0A8C0A7C0A6C0EE
:10369000A5C0A4C0A3C0A2C0A0C09FC09EC09DC022
:1036A0009CC09BC09AC099C098C097C096C095C056
:1036B00094C093C092C091C09FC09EC09DC09CC04A
:1036C0009BC09AC099C098C097C096C095C094C03E
:1036D00093C092C091C090C08FC08EC08DC08CC06E
:1036E0008BC08AC089C088C087C086C085C084C09E
:1036F00083C082C081C080C07FC07EC07DC07CC0CE
:103700007BC07AC079C078C077C076C075C074C0FD
:1037100073C072C071C070C06FC06EC06DC06CC02D
:103720006BC06AC069C068C067C066C065C064C05D
:1037300063C062C061C060C060C05FC05EC05DC089
:103740005CC05BC05AC059C058C057C056C055C0B5
:1037500054C053C052C051C050C04FC04EC04DC0E5
:103760004CC04BC04AC049C048C047C046C045C015
:1037700044C043C042C041C040C03FC03EC03DC045
:103780003CC03BC03AC039C01AC019C018C017C0ED
:1037900016C015C014C013C012C011C010C00FC095
:1037A0000EC00DC00CC00BC00AC009C008C007C0C5
:1037B00006C00DC009C00EC0A150219636C0A0930E
:1037C0002B6AC093286A42CAA1502196C6C0A15054
:1037D0002196C4C0A1502196BBC000C0EA9AE881DE
:1037E000F0910070B0911970B5FFEF138CC9A15022
:1037F00021961BC0EB9AFBCF29CAEA9AE981E330F4
:10380000E88111F4E03C79F0F0910D70B0911970FD
:10381000B5FDEF1378C9E981F0910E70EF1373C90C
:10382000A250229602C0EB9AFBCFA0932B6AC093C2
:10383000286AE881E295EF70E05EF0E0F34E0994CB
:103840000FC024C039C038C06CC96BC96AC969C906
:103850009CC99BC9A4C99EC955C054C0D5C9D1C96A
:10386000E991EF70EA5CF0E0F34E0994C0C9C4C975
:10387000F1C9F0C9E7C9E6C9E5C9E4C9E3C9E2C9C4
:103880006DC96CC9DFC9DEC9DDC963C9E991EF70D3
:10389000E45BF0E0F34E0994D5C9D4C956C955C9C3
:1038A000D1C9D0C9CFC9CEC9CDC9CCC9CBC9CAC964
:1038B000C9C9C8C9C7C9C6C9E991EF71EE59F0E0D5
:1038C000F34E0994BFC9BEC9BDC9BCC9BBC9BAC9F9
:1038D000B9C9B8C9B7C9B6C9B5C9B4C9B3C9B2C9F4
:1038E000B1C9B0C9AFC9AEC9ADC9ACC9ABC9AAC924
:1038F000A9C9A8C9A7C9A6C9A5C9A4C91CC920C95D
:10390000A1C914C9E991EF71E857F0E0F34E0994A9
:1039100037C929C92CC996C995C994C993C992C9EF
:1039200091C990C98FC98EC98DC98CC98BC98AC9E3
:1039300089C988C987C986C985C984C983C982C913
:103940003DC941C945C949C94DC915C92DC931C963
:10395000A0932B6AC093286AD9C874C9A0932B6A14
:10396000C093286AE991E03F08F46CC9EF70E55410
:10397000F0E0F34E099466C965C964C963C962C9B8
:1039800061C960C975C95EC95DC95CC95BC95AC9ED
:1039900059C958C957C92092316A2092326A08958C
:1039A00004D0FE2FE0E2EF1B0895E091326AF0911F
:1039B000316AEF1B08F4E1950895E091326AF091C5
:1039C000316A8894EF1308940895C091326ACD5CEF
:1039D000D0E0D549B993E993F993A993C353C03281
:1039E00008F0CC27C093326A0895C091316ACD5C4B
:1039F000D0E0D549B991E991F991A991C353C03269
:103A000008F0CC27C093316A089590E3889408C0E9
:103A100092E102C093E100C0A881A817A9F0089420
:103A2000A0910210A1FDFCCFA0FDFACFADE9A4BF8B
:103A30009093001008F48993A4BFA1E0A093001014
:103A4000A0910210A1FDFCCF089552D000C0E091DA
:103A50001368E0FF13C0E1FD23D0E1FF2BD013D0AA
:103A600080E8909112689F7780930C0B90930D0BD8
:103A700008952FD02ED02DD02CD036C028D027D0CE
:103A800026D025D031C080911A6824D08091196841
:103A900021D0809118681ED0809117681BD024C057
:103AA0008FEF8093176880931868809319688093CC
:103AB0001A6808958DE08093176887E080931868EE
:103AC0008FE18093196881E180931A68089580E0FE
:103AD00001C08FEF8095809344098091430987FF4F
:103AE000FCCF8091440908950B9801D00B9A08955A
:103AF00080914309809144090895A881A3700E9490
:103B0000831AB9810E943E1AEA2F3AC9AA81B98163
:103B10000E94841AE881E370E093CD6ABB810E9421
:103B20003E1AA093CE6AB3950E943E1AA093CF6A24
:103B3000B3950E943E1AA093D06AB3950E943E1A94
:103B4000A093D16ACDECDAE61DC971F40E94D01CB5
:103B5000E53050F0A881A3700E94831AB981AA8130
:103B600090DC2160EA2F0CC921C907C9E9F70E943E
:103B7000D01CE131C8F3B981AA810E94841AEDEC0E
:103B8000FAE6A881A370A083AC81A183BD81B28332
:103B9000BE81B383BF81B483BB8173DCA093CE6A43
:103BA000B395A091CF6A6DDCA093CF6AB395A09135
:103BB000D06A67DCA093D06AB395A091D16A61DC2A
:103BC000A093D16A2160CDECDAE6DCC807D002C050
:103BD0004B9A08954B9808956B9A08956B980895A1
:103BE000E0911368F091C06AF7FDE77FE3FDF0DF35
:103BF000E3FFF0DFE4FDF0DFE4FFF0DF08951FD026
:103C000023D025D0089580680BC08F7709C04F98C6
:103C100080680CD00BD081939150E0F74F9A0895B3
:103C20004F9804D002D04F9A0895892F8093640949
:103C30008091630987FFFCCF80916409089580918A
:103C400063098091640908958FE093E0DECF80E1FD
:103C500090E0DBCF86E197EFD8CF87E19FE7D5CF24
:103C600088E197E0D2CF80E29AE0CFCF81E293E87B
:103C7000CCCF83E291E0C9CF88E292E0C6CF89E25F
:103C800094E1C3CF8CE29AE1C0CF8DE291E4BDCF45
:103C90008EE298E0BACF8FE291E1B7CF86E390E26F
:103CA000B4CF86E390E4B1CF86E390E6AECFE2EB0B
:103CB000FAE682E09AE0ABCFE7E0FBE62FC2D3EB77
:103CC00026C227D2DAD125D2E0910210E1FDFACF47
:103CD00074DEC0F78ADEC081CA17B1F3A083F4E1B5
:103CE000CDE9D3E1C4BFD0930010A083D1E0C4BF1D
:103CF000D0930010D1E0D0930410D0930310E2CF02
:103D000084E190E00E9471200E9464120E949A1245
:103D1000F7CFA895E091C06AE3FD06C0E395E09374
:103D2000C06A439A809A02C04398809890DE58DF18
:103D300084E690E00E947120ECCFEBD19ED1E9D1D6
:103D40000E940F14FBCFE7E0FBE6EDD185E090E0A9
:103D50000E9471208FE090E00E947120F4CF00005B
:103D600034D2F0910C68E0910D68EF2BA9F023D2CA
:103D700082E390E00E94712023D288EC90E00E94C0
:103D8000712019D282E390E00E94712019D288EE4E
:103D900093E00E947120E4CF0ED282E390E00E9473
:103DA00071200ED282EE94E00E947120D9CF0C9443
:103DB0000C14F2ECE0E2DAE6CDE582E10E94241395
:103DC00014D037D03FD047D04FD057D05FD067D036
:103DD0006FD011272227D9E0C9E9C093996AD093FF
:103DE0009A6A089578940C94FC1EEDE5FAE6E09347
:103DF000966AF093976A08950E945F1E20929D6ACA
:103E000020929E6A20929F6A1D7FE0919D6AF091A8
:103E10009E6AC0919F6A3196C21D11FDEFCF222389
:103E2000D1F3E0939D6AF0939E6AC0939F6A25D177
:103E3000ECCFE0E2FFE1E0933F69F0933E69089543
:103E40000C94611EE9E2FFE1E0935F69F0935E6923
:103E500008950C94801EE2E3FFE1E0936169F09322
:103E600060690895A2E92DC0EBE3FFE1E093636987
:103E7000F09362690895A3E924C0E4E4FFE1E093CC
:103E80008369F093826908950C94891EEDE4FFE143
:103E9000E093A369F093A26908950C949D1EE6E552
:103EA000FFE1E093C369F093C26908950C94A31EE7
:103EB000EFE5FFE1E093E369F093E26908950C9484
:103EC000AF1E0C94051210FD74C0F093A86AFFB7E2
:103ED000F093A76A1160E093A96AD093AA6AC0938D
:103EE000AB6AB093AC6AA093AD6A9093AE6A8093CC
:103EF000AF6A1092B06A0092B16AC0919B6AC39592
:103F0000C0939B6A09F41860CF7009F41460C0FD77
:103F100014C01061C091996AD0919A6AC15015F489
:103F20001062C97F10F41064C979D04010F4106891
:103F3000D970C093996AD0939A6A17FD4AD06BD012
:103F400013FD0E94D71E14FF1BC0DAE6C3E7A1E0F1
:103F5000E881F981319788F071F42A2BE883F9839D
:103F6000EA81FB81FE2B49F0FB810180A0950A22AA
:103F7000A095018202C0E883F9832496AA0F41F735
:103F80000090B16A1090B06A8091AF6A9091AE6A69
:103F9000A091AD6AB091AC6AC091AB6AD091AA6AA7
:103FA000E091A96A1270F091A76AFFBFF091A86A28
:103FB0000895F894E1E0F1E00E943E12FFEF31979E
:103FC000F1F7E0E0F1E00E943E12F0E43197F1F702
:103FD000F0CFE0919E6AF0919F6AEE0FFF1FEBE831
:103FE000FE9F000C111CE4E6E119E0939C6A12604C
:103FF000C091A16AD091A26AC093A36AD093A46A27
:10400000D695C795D695C795C093A06A2092A26A07
:104010002092A16A0895E0919B6AEF70E093986AFC
:10402000EE0FF0E0EA5EFF4D099408950C94152020
:104030000C9415200C9415200C9415200C9415202C
:104040000C9415200C9415200C9415200C9415201C
:104050000C9415200C9415200C9415200C9415200C
:104060000C9415200C9415200C941520F091936A53
:10407000FF0F11F02F1708F40895E091A16AF09155
:10408000A26A3196E093A16AF093A26AC091966AFF
:10409000D091976AEDB7FEB7E993F883E0E2F22F8B
:1040A000C0E8FF0F30F019F0C695E450D1F7CC27E7
:1040B000EE27C093936AE093956AE695E093946A3D
:1040C000DAE6CDE5CE0FD21DC093966AD093976AFB
:1040D000E991F881CFB7F894EDBFFEBFCFBF089547
:1040E0009927CFE6DAE6B091956ACB0FD21DBFB71C
:1040F000F89488839983D091936AD0952D23BFBF7C
:10410000BCCF07D0BACF03D0B8CFD091936A2D2BB4
:104110000895D091936AD0952D230895208221820D
:104120000895689401C0E894D091936ABFB7F89459
:10413000C081CC2321F0CE7FC083BFBF0895C18151
:10414000CD2BC183BFBF0EF0DCCFCBCFBFB7F89470
:10415000C191D081DD2321F4C160C293BFBF089516
:1041600020822292BFBF0DC0BFB7F894D081D26029
:10417000D193D081DD2311F4BFBF08952082BFBF4A
:1041800000C0EFE6FAE6CD2F3496CC0F41F0E0F711
:10419000F8942192219221922192BFBFF6CFB7CFFE
:1041A00020820895BFB7F894A081AE7FA083BFBFDF
:1041B0000895F8DFB8CFE1E0F1E00E943E120895E3
:1041C000E0E0F1E00E943E120895C9E0DBE6ECE099
:1041D000F2EC0C2E9FEFA191B191BF3F81F01196AF
:1041E0008FEF83951D901120E1F3821183958993C0
:1041F000981788F38211982F82110C2EECCF909390
:10420000A56A0894C009C093A66A08950069206948
:1042100040696069626964698469A469C469FFFF6F
:104220001F693D695D695F6961698169A169C169EA
:10423000E16931030000010A07310080D26A000100
:1042400000404031008000000002310300000107FF
:104250000A310080D46A0001004040310080000033
:104260000002110B0000010440110080D86A000117
:10427000014240110081DA6A00010102401100850B
:10428000D66A000100404011008000000002FFC813
:10429000FEC8FDC8FCC8FBC8FCC8F9C8F8C8FCC803
:1042A00001C904C9F6C8F3C805C9F1C8F0C8EFC808
:1042B00001C904C9ECC8EBC8EAC8E9C8E8C8FFFFEF
:1044000014981A7F00000000000000000000000067
:1044100000000000000000000413000014AF1A00A8
:104420000000000000000000081008FF0404000065
:104430000800090008000A0008010BFF08010CFF32
:1044400008C30DFF08E80EFF08000FFF080010FF6B
:1044500008001100080012000800130008001400F2
:104460000800150008001600080017FF089618112C
:10447000080A1911101A7000040000FF04FF00FF61
:1044800008011BFF08021CFF08041DFF08081EFF8F
:1044900008101FFF082020FF084021FF088022FF8E
:1044A000080023FF080024FF080025FF080026FF5E
:1044B000080027FF080028FF0804290F08002A0F1A
:1044C00008042B0F08002C0F08052DFF080A2EFFEB
:1044D00000000000000000000000000000000000DC
:1044E0000000000000000000086435FF086436FF8B
:1044F000088037FF088038FF088039FF08803AFFBE
:1045000000000000000000000000000000000000AB
:10451000000000000000000000000000000000009B
:10452000000000000000000000000000000000008B
:10453000000000000000000000000000000000007B
:10454000000000000000000000000000000000006B
:10455000000000000000000000000000000000005B
:10456000000000000000000000000000000000004B
:10457000000000000000000000000000000000003B
:104580000C0368000C0268000C0168000C00680055
:104590000C0768000C0668000C0568000C04680035
:1045A00008003BFF08003CFF040900000401000074
:1045B00004010000040000000C0091000C019100B7
:1045C0000C2F6A000C306A00FFFFFFFFFFFFFFFFA8
:104600000409000004010000000000000000000098
:104610000C0368000C0268000C0168000C006800C4
:104620000C0768000C0668000C0568000C046800A4
:10463000000000000000000000000000000000007A
:10464000000000000000000000000000000000006A
:10465000000000000000000000000000000000005A
:10466000000000000000000000000000000000004A
:10467000000000000000000000000000000000003A
:10468000000000000000000000000000000000002A
:10469000000000000000000000000000000000001A
:1046A000000000000000000000000000000000000A
:1046B00000000000000000000000000000000000FA
:1046C00000000000000000000000000000000000EA
:1046D00000000000000000000000000000000000DA
:1046E00000000000000000000000000000000000CA
:1046F0000000000000000000000000000C20680026
:1047000000000000000000000000000000000000A9
:104710000C2568000C2668000C2768000C2868002F
:104720000000000000000000000000000000000089
:104730000C146A000C156A000C166A000C176A004B
:104740000C186A000CEE690004550000FFFFFFFF23
:1090000087C0FFCFFFC7FFCFFFC7FFCFFFC7FFCF8F
:10901000FFC7FFCFFFC7FFCFFFC7FFCFFFC7FFCF00
:10902000FFC7FFCFFFC7FFCFFFC7FFCFFFC7FFCFF0
:10903000FFC7FFCFFFC7FFCFFFC7FFCFFFC7FFCFE0
:10904000FFC7FFCFFFC7FFCFFFC7FFCFFFC7FFCFD0
:10905000FFC7FFCFFFC7FFCFFFC7FFCFFFC7FFCFC0
:10906000FFC7FFCFFFC7FFCFFFC7FFCFFFC7FFCFB0
:10907000FFC7FFCFFFC7FFCFFFC7FFCFFFC7FFCFA0
:10908000FFC7FFCFFFC7FFCFFFC7FFCFFFC7FFCF90
:10909000FFC7FFCFFFC7FFCFFFC7FFCFFFC7FFCF80
:1090A000FFC7FFCFFFC7FFCFFFC7FFCFFFC7FFCF70
:1090B000FFC7FFCFFFC7FFCFFFC7FFCFFFC7FFCF60
:1090C000FFC7FFCFFFC7FFCFFFC7FFCFFFC7FFCF50
:1090D000FFC7FFCFFFC7FFCFFFC7FFCFFFC7FFCF40
:1090E000FFC7FFCFFFC7FFCFFFC7FFCFFFC7FFCF30
:1090F000FFC7FFCFFFC7FFCFFFC7FFCFFFC7FFCF20
:1091000001003BD101000000BDAC1E661934BEA3B6
:10911000A895F8942224EFB3E0932068E8EDE4BF2B
:1091200020921001E8EDF1E0E4BFF0936200EFE17E
:10913000F9E6EDBFFEBFAC98A49A489A409AE0E2E7
:10914000F8E02682A0E8B1E0A087B1872582A3E0FD
:10915000A783A0E4A683A9E0A093000A2092200A96
:109160002092210AA1E0A093000B2092010BAFEF07
:10917000A0930C0BA0930D0B2092B10420927604C7
:10918000A1986698E5D3A895E8EDE4BFE7E0E09301
:10919000000104D406D49AD36ED4B3D380911F684F
:1091A0008211B4D3EFB3E0932068E0911F68E2111D
:1091B00005C0E0911168E2113EC200C0C0E0D8E6EF
:1091C00010D3F993E9930FD3F993E9931AD3E4E019
:1091D000F8E6D193C193B193A19320924E69AF77F2
:1091E000A160A0934F69A6D2A0910091B091019186
:1091F000B883A983A09100A1B09101A1BA83AB83E8
:109200002C829BD2A0910091B0910191B883A98347
:109210002A822B822C8221E066C180E50DD48D81CB
:109220004DD123E067C2D6D184E406D48E818093E9
:109230000A688F8180930B68888580930868898588
:10924000809309688A853AD127E058C2C8D180E75F
:10925000F3D327E05BC2C3D181E4EED3888580934A
:109260000C68898580930D688A8582FDEAD18370B8
:109270008093116828E04DD2809111688211D4D179
:1092800032C190913469953011F0983011F4EA812F
:1092900016C0973011F09A3019F4A6D1EC810FC0A6
:1092A000993011F09C3019F495D1EE8108C09B30B3
:1092B00011F09E3019F493D1E88501C00FC1E93057
:1092C00068F4F0E0EB59F64F0994E0C0E0C0E1C06B
:1092D000E1C0E0C0DFC0E1C0E2C0E7C004C184D1AA
:1092E00082E4AAD38C8180939D6B38854985823036
:1092F00011F430FDF8C028E1E19A30FD0DD230FFC5
:109300000ED2C7E0EDE7FBE6A8D2C0919D6BCCD1B1
:10931000A4D2D1D08E819F81C0D1EDEEDE2EE8EBBC
:10932000CE2EE3E8BE2EE0E2AE2EEFEF9E2E8E2E86
:109330007E2E6E2E9FD1D7C057D183E47DD30C8073
:1093400009140D8008040E8007040F80060428E22B
:1093500011F428E48FD1BCC147D182E56DD328E751
:1093600094D1BDC141D184E567D328E5B8C13CD1D2
:1093700085E462D328E03E7F4427AAC135D186E444
:109380005BD392D190913469963019F08C8130FD85
:109390006CD230FD6ED2A7C030FD9AC09091346976
:1093A000933009F405C0953011F41ED101C096C068
:1093B00082E742D379D13BD28093466911D037D22C
:1093C000809347690DD033D28093486909D02FD25A
:1093D0008093496905D09295909590934A69BAC156
:1093E000991F90FD08950894879561D18695E9F7B6
:1093F000089530FF6DC090913469933009F422C014
:10940000953011F4F1D01EC09B3011F4229606C0A5
:109410009D3019F4E9D0249601C060C087E70CD3D1
:1094200078E069910894679542D16695E9F77A9555
:10943000C1F7A8E0B0E02897EDE7FBE610D2A8E07E
:10944000B0E01BC0A8D081F478F0A0E0B2E760E8FB
:10945000A2D011F4E8F748F08FB729D18FBF6795F4
:10946000B8F76D93A13898F33EC0A050B247C0E062
:10947000D2E7EDE7FBE6F3D100C0CDE7DBE614D1A0
:1094800030FDF1D130FDFBD12EC02DC03CC13AD111
:10949000F4C139C137D1C8D026C034D124C09E30E0
:1094A00009F021C02FD1F7D11EC09E3009F01BC09A
:1094B00029D1EFD118C0C4E2D9E6089590910A0BE2
:1094C0008923821110C0089584E40CC082E50AC08B
:1094D0008DE408C083E406C085E404C08CE402C0C7
:1094E00084E500C0A9D2EFE1F9E6EDBFFEBF4FD29F
:1094F00089D2AED02CBA6AE04ED01130A1F76A956D
:10950000D9F749D081F7E8F3913808F43094D3DFE4
:109510007727EE2761E03FD019F7661FE0F76993E0
:109520007627C233D8F637D0D9F620F0E627FFE801
:10953000E081F0CF8EE280D27211CECFE093356918
:109540003D7FE2113260C452C0933469C0912369F7
:10955000C395C093236909F49ECFADDFE881ED3F49
:1095600011F6209223696981603F08F4BCCF6F70C7
:10957000ECE9F7E9660F660FE60FF21D0190022293
:1095800009F4A6CF019000FE02C031FDA3CF0190E7
:109590001080F0010994A895112706B2032401FE5A
:1095A000FCCF9091200A2092200A2092210A06B234
:1095B000032401FCFCCF8091200A2092200A2092F3
:1095C000210A8D31111F813810FD8F30111F012E9E
:1095D00006940895E0E0F8E684E01DD00CC0E4E0D5
:1095E000F8E686E018D007C00FD029F00AD019F0AD
:1095F00005D009F00CD0821176CF0895EAE0F8E6A4
:1096000009C0E8E0F8E606C0ECE0F8E603C0EEE0EA
:10961000F8E600C082E0DE01129601901D90011470
:1096200011F48A95D1F70895C1E060D1CF3311F4D8
:10963000D13D09F00895E6D1E09105A1E0FD01D00A
:10964000DFC4E8EDE0933400E5E8E093011008950D
:10965000E091060BE0FF0895E093060BE09122698C
:10966000E395E0932269E6FF01C002C071D182C197
:1096700071D184C117D00E011EDF6A8A7B8A8C8A61
:109680009D8A0F8A188E298E089515DF6A887B8837
:109690008C889D888F89988D00C006D0C4D0C80F53
:1096A000D91FBBC001D0F1C0EDE5FBE6089530F055
:1096B000969487947794679430F009C09694879431
:1096C0007794679420F09D248C247B246A24089549
:1096D00037D0988289827A826B822C823CC0E2DF0A
:1096E000DE0180919D6B2CD088832982BA83AB8365
:1096F0002C8231C0E0E0F8E690E028C0E4E0F8E633
:1097000090E024C0E19AC8E5D9E625C0CEE4D9E6C8
:1097100022C0E19A0FD01FC0CCEDD7E91CC0C09188
:109720009D6BB1D0DE010CD00882B983AA832B8255
:109730002C8211C0C3E5D9E60895C8E5D9E608959D
:10974000C6E4D9E60895AEE3B9E60895F9DF84E00A
:10975000B4D09883F5DFF7DFA4D000C097E712D02C
:109760009AEA10D0F0DF86E09091240895FFFCCFB4
:109770009D91909322088A95B9F78AE25DD1E19B89
:10978000B2CE08950090200A0916E0F32092200A34
:109790002092210AB19B769999CE089501010D0975
:1097A000020113090401260904012B090000450ADE
:1097B0000000450A0000450AFF01410908016F0940
:1097C00070019C092001AC094001B2091001B709E0
:1097D0001001BE091000CC091000F9090200321472
:1097E000FFFF0C9408000C9409000C940A000C94E0
:1097F0000B000C940C000C940D000C940E000C94B7
:109800000F000C9410000C9411000C9412000C9496
:1098100013000C9414000C9415000C9416000C9476
:1098200017000C9418000C9419000C941A000C9456
:109830001B000C941C000C941D000C941E000C9436
:109840001F000C9420000C9421000C9422000C9416
:1098500023000C9424000C9425000C9426000C94F6
:1098600027000C9428000C9429000C942A000C94D6
:109870002B000C942C000C942D000C942E000C94B6
:109880002F000C9430000C9431000C9432000C9496
:1098900033000C9434000C9435000C9436000C9476
:1098A00037000C9438000C9439000C943A000C9456
:1098B0003B000C943C000C943D00019009928A9569
:1098C000E1F7089529928A95E9F70895EDE7FBE617
:1098D0000E94290CCDE5D9E60E942B0CEDE5FBE6B4
:1098E0000E94290CCDE5D9E60C942B0CEDE7FBE6A4
:1098F0000E942D0C0C941D0CC0E0D8E6AAE1B0E04B
:109900000EC0C0E0D8E6AEE1B0E014C0C0E0D8E6DA
:1099100080E0D8DF00C0EFEFE0931F6808956DDFAF
:10992000F001A095B095C095D095A083B183C28376
:10993000D383089562DFF00180830895E2E0F2E0CE
:1099400000C0EF23F095009020690F22E02904C0A9
:10995000E0E002C0EFEF00C0E093206900C0E091BA
:1099600020690C94FB0BEF23F095009021690F22E6
:10997000E02906C0E0E004C0E5E502C0EFEF00C06A
:10998000E093216900C0E09121690C94F90BB6992C
:1099900004C0E5E5119B0C94270C07C04424552412
:1099A0000895AD980895AD9A0895E0910408E7FFF1
:1099B0000895E0910008E0930070089502D08CE2D1
:1099C0003BC001D003C08F93829501C08F938F70ED
:1099D000805D8A3308F0895F2FD08F9108958AE0E7
:1099E0002BD08DE029C00F01451451F0F0910408EF
:1099F000F5FF06C0F1E7E52DF081F09302085394DE
:109A0000F0010895451459F0F0910408F5FFFACFDC
:109A1000F1E7E52DF081F09302085394F3CF089518
:109A2000C42DD1E70190002029F00882C395C5110B
:109A3000F9CFCA954C2ED8CF0F01F201FA95EF1746
:109A400019F0F1E780834394CFCF8F938E2FF201EB
:109A5000FA95EF1719F0F1E7808343948F910895F9
:109A60008991ACDF9A95E1F7089589918211881365
:109A70000895E2DFFACFCAE8DAE9F7DF80912068DB
:109A8000A0DFCAE9DAE9F1DFBDCF0A0D1B5B343490
:109A90006D2E2E2E5B424C442D005D1B5B6D0A0D1E
:109AA0000000CAEADAE9E1DFADCF0A0D1B5B34330F
:109AB0006D2E2E2E5B5550445D1B5B6D0A0D000014
:109AC000C2EDDAE9D2DFC0E0D8E690E1C9DF87DF96
:109AD00099CF0A0D1B5B34326D2E2E2E5B415050F8
:109AE0005D1B5B6D202D2000FFFFFFFFFFFFFFFFD1
:00000001FF
