:020000020000FC
:100000000C9446000C940F020C940F020C94A50162
:10001000C9C1CBC1CDC1CFC1F5C0E2C0BAC5BBC556
:10002000CFC1CCC1D4C182C387C30CC40FC498C391
:10003000A2C3A9C33CC415C423C48CC381C385C354
:10004000B5C4E3C1D7C1DCC125C32AC335C336C398
:100050003EC34AC361C365C370C4D5C0DBC067C4B7
:100060009AC3A4C380C3C0C4C9C4DEC4E9C6ECC675
:10007000EEC6F0C6F5C603C713C791C1010030D163
:10008000000000001DAC1E66D6894828F894222482
:10009000E7E2F9E6EDBFFEBFE0910101E0FDFCCF34
:1000A000E8EDF7E0E4BFF0930001A895E8EDF4E295
:1000B000E4BFF0936800E0914000E0934000EFBBA4
:1000C000E8EDE4BF209201102BBEE8EDF0E6E4BFBE
:1000D000F0931001E0914101E211FCCF2092480120
:1000E00020924901E1E0E0934001E0EFE093E20576
:1000F000E3E0E093E305E4E0E093E405E8E0E09387
:10010000B504E093B604E0931104E0931004E0E03A
:10011000F8E02682A0ECB0E0A087B187A0E8A58334
:10012000A3E0A783A2ECA683A6980198AD9A089AAB
:10013000A59A009A8898259A839A50D062D0F89B05
:1001400006C0E0E0F0E6AFEFA193F836E8F3E0E0B8
:10015000F9E6FB9BF899E0E0FB9BF899F8E6219221
:10016000F038E8F3E0914801F0914901F230D0F322
:10017000E2E036D042D0B69B0FC08BD2C2E006D5AB
:10018000E0910090EF3F11F0AED419F04CD4ABD415
:1001900009F458C1E1E039C1E0E0FAE020822182AF
:1001A00022822382AFE0A083E0E0FBE02082218274
:1001B000AEE6B1E0A487B587A1E0A583A5E0A08362
:1001C000B2D2B7D2789408D018D0C2E6D6D48FB3C2
:1001D0009927E0E0DFD13BC0E0E002C0EFEF00C0D4
:1001E000E0FF2D9AE0FD2D98E1FF8B9AE1FD8B98C1
:1001F000E3FF809AE3FD80980895E0E003C0E5E521
:1002000001C0EFEF0895E8EDF1E0E0933400F093E2
:100210004100FFCFA895E8EDE4BFE1E0E0930001E5
:10022000FFCFCDD316D39681C1D30C92BED3CCC30E
:10023000C6D3BBD39781BAD30CD309901C900110BD
:100240000C9211960197C9F7B0D3BED30895E7E297
:10025000F9E6EDBFFEBF222734E0EAE29BD1C09170
:10026000006994D43CD1203491F324FD10C026FFC2
:10027000F9CFEEE0F3E0059000160590159019F423
:10028000F0010995E4CFEA34B1F720FFEBCF003459
:1002900049F7622F6370613029F720620DD17A3BF4
:1002A00021F46331A1F62061DDCF24FFD0CF7B3B69
:1002B00039F4693060F6C62F69D4246031E0D2CFBA
:1002C0007C3B21F422FFC3CF98D1CCCF7F3B51F6AA
:1002D000603011F40AD0BBCF613009F40AD0B7CF37
:1002E00068E08BC1C02F49D4B2CF87D3E0EE52D1A2
:1002F000AECF99D3EEEE4ED1AACF0053E1E00A95EE
:1003000012F0EE0FFCCFFEB3FE27FEBB0895307D4A
:1003100001317D01327D01337D01347D01357D0167
:10032000367D01377D0153180252FF01647001616F
:100330007201627201637201657201667201737209
:10034000017572016C7201002701EFB64F01E09157
:100350000408E7FF13C0E72DE619E03C23FF08F08F
:10036000AD9AE0910108E2FD82C0F0E7E72D7090C0
:10037000000871927E2EF401EFBE1895E091060BF5
:10038000E093060B761411F442104A943A9422F446
:10039000332EE0E2E0932704F401EFBE1895E0E08D
:1003A000F0E00895EDE0F0E00895E0E3F1ED089568
:1003B000E1E0F0E00895E0E3F1ED089503D0EBC350
:1003C00001D0E7C3AFE0B0E0C0E1D1E10895F8DFCC
:1003D000A193B193C193D193F1DFA193B193C19351
:1003E000D1930895DFEF672C94D06710FBCF21974E
:1003F000D9F7089517D048F00895EBE001C0EAE07E
:1004000001DF2092480120924901A895F894AD9807
:10041000F0E208D0E8F7F6DEF0E404D0E8F7DCDE3E
:10042000ECDEF1CE0090480100904901F0150895EE
:10043000C0910069ABD357D3C9F4CF3311F0CB339C
:10044000A9F4D0DF209205082092000A2092000B28
:100450002092050B209248012092490193D1FE0180
:10046000E050F048F695E795F8940994FBCEF8949F
:1004700020920608AD98E8E0B3DEE5E5C3DEEFEFD5
:10048000A89500C000C000C0E211EA95119BF8CF0A
:10049000E211F5CFC4CF8E2F9927B4DEE8E0A0DEBD
:1004A000E6EA78D0F0910500E2E0F5FDEAE098DEBA
:1004B00032E0672C2ED0F6CF04D0702F02D0602F00
:1004C000089507D002950F9304D00F900029F00EE5
:1004D000089505D00F7D075308F4095D089519D0DC
:1004E000421002C025FDB3CE7614C9F3F0E7E62D25
:1004F00000816394206442102F7B26FD2F7EFBE059
:100500004F2E21FF23950A3011F00D3009F42C7F76
:1005100000C00F01A89523FD06C0E72DE619E032C3
:1005200018F4AD9801C0AD9AF0010895019101D081
:1005300003C00F93029501C00F930F70005D0A3343
:1005400008F0095F1BD00F910895092FF0DF082FE5
:10055000EECF0AE013D00DE011C0E0E0F1E1E6DFFC
:10056000E5DFE4DF0EE20AD029DFCE01EEDFCD01C8
:10057000ECDF26DFCE01E9DFCD01E7CFD8E1C9DF2F
:100580000090040805FEFBCF2197B699C1F70093B0
:1005900002080895E0930169FDE0E0910169059189
:1005A0000DBBE0930169002391F012F0E7DFF4CF77
:1005B000E9990ED0EA9911D0EB991AD0EC99CDDFD8
:1005C000EE9913D0ED99B2D2E899C3DFE5CF089543
:1005D000C591E0930169DAD290C200900069109051
:1005E00031690AE210100895C9CF09E0C7DF87C258
:1005F000EC9BABCFEC980EB39ACF6CBBE099BAD220
:10060000E19907D0E3999AD2E6991CCFE799F5CE04
:10061000089517D1B7D0C0930269D09303695FDF03
:1006200020FFFDCF0A33D9F74CDF502EF02E44DFE8
:10063000C0910269D0910369C60FD71F42DF003015
:1006400031F00130F1F0023069F0E4E024CFFDD068
:1006500008945208A0F02AD1E5E0C8F032DF802FDC
:100660000ED1F6CF29DF660F771F660F771F660F53
:10067000771F660F771F609302697093036903D039
:10068000CECF5AD100C01DDFF21411F0E6E003CF47
:100690000895BBD0CEE4D3E049D04EC0A8950895CC
:1006A000C487D5870895C93008F0C9E0DCE0CD9F44
:1006B000E001C259D5470895F6DFADC0C083D183AC
:1006C000C48BD58BCA0FDB1FC283D3830895A68F3B
:1006D000A895C28FD38FD5D020F0C28DD38D21970E
:1006E000B9F70895AA27BB27C48FD58FEC8FFD8F4C
:1006F000A895A28FB38FC48DD58DFE01B2D048F0DE
:10070000C48DD58DFE01BCD020F0A28DB38D119784
:1007100079F708958FEF79D0868FA895B2D0E8F752
:100720000CC1FADFFFCF71D0C9EED4E0C68BD78BF6
:1007300008956BD0C2EFD4E0C08FD18F089565D0FB
:1007400081D00ED018D025C260D07CD009D013D073
:1007500022C25BD0F5DF02841384C015D105089551
:10076000C489D5890895C489D58900801180C019AC
:10077000D10908954AD0A281B38104881588A019AF
:10078000B109089542D0C081D18108953ED0C2817F
:10079000D38108953AD000801180C281D381C019DD
:1007A000D10909F021960024021C08957CDFFE0186
:1007B00000801180C281D381F2CF0C2ECAE7DAE823
:1007C0001884101419F02C96CA3DD1F70895DCE076
:1007D000CD9FE001C259D5470895CE01CAE7DAE8B6
:1007E000088019808015910530F00A801B808015E3
:1007F000910531F028F02C96CA3D91F708940895A0
:1008000088940895A0E0B1E70895E8E2F9E6089534
:10081000FCDFA487B5878CE0099001928A95E1F707
:100820003C97C481D5812197C095D095C28BD38B3D
:10083000C081D181C687D787C08BD18B278E02D04C
:100840007EC0E3DFC081D18101C0DFDFC48BD58BE7
:10085000089584819581A685B785C485D585089539
:10086000D4DF25D038F0C489D58950D020F08991C3
:10087000C48BD58B089521968FEF0894F9CFC5DFEF
:10088000868F15D090F053D0C481D5812197A4894B
:10089000B589CA23DB231196A48BB58BA485B585B6
:1008A000CA0FDB1F868D888388940895AEDF048885
:1008B0001080011405881180010440F00488128022
:1008C000011405881380010419F010F008940895AC
:1008D000889408959ADFC489D589A685B785CA17F3
:1008E000DB0730F0A089B189CA17DB0719F010F0D7
:1008F000089408958894089588DFC685D78506D022
:10090000A78DAE7F08F4A160A78F0895C034B0E131
:10091000DB0748F0D63148F0D03628F0D03828F040
:10092000D03908F002C00894089588940895D3DF60
:1009300010F403D004D0089568DF2BD026C0C489FA
:10094000D58902881388C021D121C687D7878481A1
:100950009581C80FD91F2197C08BD18BCEDF40F076
:10096000A685B785C485D5850D9009920197E1F7D5
:100970000895078C00FC07C06CDF09901D900114DE
:1009800019F40197D1F718940895F3DF09F050CCCA
:100990000895078C00FC08955CDF09901D901020DD
:1009A00001103FCC0197C9F7089590E080910210A3
:1009B0008370E1F78DE984BF909300100895068855
:1009C0000F9207880F920895008C0F92018C0F925E
:1009D00008952860AD9AFF93F4E69BDDFA95E9F758
:1009E000FF910895277F95CDC2E066DE80E1809378
:1009F0000110B0DE20920110089507DFEF01DFDF64
:100A00002BD069F09BE0D2DFE895CFDF92E0CEDF1C
:100A100000801180E8953296F03AD1F7C6DFFE01EA
:100A2000D3CF02D0F7CBF1DEFF93EF93C8DFDCDF4B
:100A300081F412D071F094919F3F59F09BE0B6DFA2
:100A40000082B3DF92E0B2DF04900192F03AE1F766
:100A5000ACDFEF91FF91B8CFE0E0F0E994918191A4
:100A6000891711F4F03AD1F7E0E0F0E908950000B9
:100A7000FFFF010000002D00000000A0FFFF0002AA
:100A8000080266013FD10090FF9F00020802620247
:100A90003BD10014FF150100181265033ED18010F0
:100AA0009F102000080263043CD100111F110100B7
:100AB000000073050000501058100100000075067A
:100AC00000000060FF670002000061073AD140109B
:100AD0004F10010000006C0800000011001101001F
:100AE00000002D09000035DEA0930469B09305696C
:100AF000C0930669D09307690895F5DF06C0E0E169
:100B0000E0930110F0DF20920110E0ED09F4E6ED32
:100B10000ED0909107698091066917DD9091056963
:100B20008091046912DD02C0E0ED01C0ECEDFDE052
:100B30000591002311F022DDFBCF08950ADD81DE4F
:100B4000F3DF63DE8489958900E1080F090FF02E39
:100B5000E2E920DD85DE38F0082FF00EE8DC55DE16
:100B600004890F70B9F7E0DFF1940F2DE0DC9EDE11
:100B700040F7089566DECEDDDFCE05D00091316905
:100B800000930069089519DE3DDE42CE20DE3ADE94
:100B90003FCEE89404C06894CA0FDB1F00C0EF93F7
:100BA000FF936FEF7FEFCB01FF27A8950EF0199011
:100BB0000EF41A9008941794062E0F1E969587959A
:100BC0007795679500FE08C0EDEE9E27E8EB8E272F
:100BD000E3E87E27E0E26E27169471F7119728F775
:100BE00090958095709560950E01DB01EC01862350
:100BF000872389238095FF91EF910895FFFFFFFFE1
:100D0000A1811B5B34316D2E2E2E5B524553455411
:100D10002D885DA11B5B34346D2E2E2E5B524F4D02
:100D20002E4431332E6C65645D00A1814944205B03
:100D3000905D814C3A208708523A201B5B33326D1C
:100D40004431335230303031A1533A208705553A7F
:100D500020870681413A208707423A20C702433A5A
:100D6000208704453A208703463A20870181524F65
:100D70004D205B987C527C537C645D202D205B6110
:100D80007C627C637C657C667C6C7C737C755D3E80
:100D90002000813A31301B5B39346DA81B5B393040
:100DA0006D3030A0000081811B5B34356D2E2E2EFE
:100DB0005B4572726F722023885DA0202D203C62FB
:100DC0007265616B3E20746F20726573756D65008E
:100DD0001B5B39306D001B5B33326D001B5B6D009C
:100DE000A1811B5B34346D5B532D3E5D0000A181FE
:100DF0001B5B34346D5B3C2D525D0000FFFFFFFF39
:100E0000ACAAA9A5A3A69C9A999593968E8D8BB111
:100E1000B2B4B874726C6A696563665C5A595553AA
:100E2000564E4D4B4771E8E4E2D1C9C5D8D4D2CA79
:100E3000C6CC78171B1D1E2E363A272B2D3539337D
:100E40001ED00ED01CD00CC00BD019D009C017D0AA
:100E500007D015C005D0E991EF73E081ED930895B7
:100E6000E991EF70F881FF0FEE1FFF0FEE1FFEE814
:100E7000E081ED93E991EF73E081ED930895FEE851
:100E8000E881E695E695E081ED93E991E370E295DE
:100E9000F881F07FF295EF2BFEE8E081ED93089565
:100EA000FEE8E881E081ED930895FFFFFFFFFFFF7B
:100F0000005EBCE2613FDD83C29C7E20A3FD1F41E9
:100F10009DC3217FFCA2401E5F01E3BD3E6082DCD9
:100F2000237D9FC1421CFEA0E1BF5D0380DE3C62C9
:100F3000BEE0025CDF81633D7C22C09E1D43A1FFB9
:100F40004618FAA427799BC584DA3866E5BB5907A9
:100F5000DB856739BAE406581947A5FB7826C49A99
:100F6000653BD987045AB8E6A7F91B45C6987A2489
:100F7000F8A6441A99C7257B3A6486D85B05E7B979
:100F80008CD2306EEDB3510F4E10F2AC2F7193CD69
:100F9000114FADF3702ECC92D38D6F31B2EC0E5059
:100FA000AFF1134DCE90722C6D33D18F0C52B0EE49
:100FB000326C8ED0530DEFB1F0AE4C1291CF2D7339
:100FC000CA947628ABF517490856B4EA6937D58B29
:100FD0005709EBB536688AD495CB2977F4AA481619
:100FE000E9B7550B88D6346A2B7597C94A14F6A809
:100FF000742AC896154BA9F7B6E80A54D7896B35F9
:00000001FF
